{
  "_format": "hh-sol-artifact-1",
  "contractName": "Raffle",
  "sourceName": "contracts/Raffle.sol",
  "abi": [
    {
      "inputs": [
        {
          "internalType": "uint256",
          "name": "entranceFee",
          "type": "uint256"
        },
        {
          "internalType": "uint256",
          "name": "interval",
          "type": "uint256"
        },
        {
          "internalType": "address",
          "name": "vrfCoordinatorV2",
          "type": "address"
        },
        {
          "internalType": "bytes32",
          "name": "gasLane",
          "type": "bytes32"
        },
        {
          "internalType": "uint64",
          "name": "subscriptionId",
          "type": "uint64"
        },
        {
          "internalType": "uint32",
          "name": "callbackGasLimit",
          "type": "uint32"
        }
      ],
      "stateMutability": "nonpayable",
      "type": "constructor"
    },
    {
      "inputs": [
        {
          "internalType": "address",
          "name": "have",
          "type": "address"
        },
        {
          "internalType": "address",
          "name": "want",
          "type": "address"
        }
      ],
      "name": "OnlyCoordinatorCanFulfill",
      "type": "error"
    },
    {
      "inputs": [],
      "name": "Raffle__RaffleNotOpen",
      "type": "error"
    },
    {
      "inputs": [],
      "name": "Raffle__SendMoreToEnterRaffle",
      "type": "error"
    },
    {
      "inputs": [],
      "name": "Raffle__TransferFailed",
      "type": "error"
    },
    {
      "inputs": [],
      "name": "Raffle__UpkeepNotNeeded",
      "type": "error"
    },
    {
      "anonymous": false,
      "inputs": [
        {
          "indexed": true,
          "internalType": "address",
          "name": "player",
          "type": "address"
        },
        {
          "indexed": true,
          "internalType": "uint256",
          "name": "tickets",
          "type": "uint256"
        }
      ],
      "name": "RaffleEnter",
      "type": "event"
    },
    {
      "anonymous": false,
      "inputs": [
        {
          "indexed": true,
          "internalType": "uint256",
          "name": "requestId",
          "type": "uint256"
        }
      ],
      "name": "RequestedRaffleWinner",
      "type": "event"
    },
    {
      "anonymous": false,
      "inputs": [
        {
          "components": [
            {
              "internalType": "address",
              "name": "player1",
              "type": "address"
            },
            {
              "internalType": "address",
              "name": "player2",
              "type": "address"
            },
            {
              "internalType": "address",
              "name": "player3",
              "type": "address"
            },
            {
              "internalType": "uint256",
              "name": "prizePool",
              "type": "uint256"
            },
            {
              "internalType": "uint256",
              "name": "raffleTime",
              "type": "uint256"
            }
          ],
          "indexed": true,
          "internalType": "struct Raffle.recentWinner",
          "name": "s_recentWinner",
          "type": "tuple"
        }
      ],
      "name": "WinnerPicked",
      "type": "event"
    },
    {
      "inputs": [],
      "name": "NUM_SAVED_WINNER_ROUNDS",
      "outputs": [
        {
          "internalType": "uint8",
          "name": "",
          "type": "uint8"
        }
      ],
      "stateMutability": "view",
      "type": "function"
    },
    {
      "inputs": [],
      "name": "NUM_WINNERS",
      "outputs": [
        {
          "internalType": "uint8",
          "name": "",
          "type": "uint8"
        }
      ],
      "stateMutability": "view",
      "type": "function"
    },
    {
      "inputs": [],
      "name": "NUM_WIN_TICKETS",
      "outputs": [
        {
          "internalType": "uint8",
          "name": "",
          "type": "uint8"
        }
      ],
      "stateMutability": "view",
      "type": "function"
    },
    {
      "inputs": [],
      "name": "NUM_WORDS",
      "outputs": [
        {
          "internalType": "uint16",
          "name": "",
          "type": "uint16"
        }
      ],
      "stateMutability": "view",
      "type": "function"
    },
    {
      "inputs": [],
      "name": "REQUEST_CONFIRMATIONS",
      "outputs": [
        {
          "internalType": "uint16",
          "name": "",
          "type": "uint16"
        }
      ],
      "stateMutability": "view",
      "type": "function"
    },
    {
      "inputs": [],
      "name": "WINNER1_QUOTE",
      "outputs": [
        {
          "internalType": "uint8",
          "name": "",
          "type": "uint8"
        }
      ],
      "stateMutability": "view",
      "type": "function"
    },
    {
      "inputs": [],
      "name": "WINNER2_QUOTE",
      "outputs": [
        {
          "internalType": "uint8",
          "name": "",
          "type": "uint8"
        }
      ],
      "stateMutability": "view",
      "type": "function"
    },
    {
      "inputs": [],
      "name": "WINNER3_QUOTE",
      "outputs": [
        {
          "internalType": "uint8",
          "name": "",
          "type": "uint8"
        }
      ],
      "stateMutability": "view",
      "type": "function"
    },
    {
      "inputs": [
        {
          "internalType": "bytes",
          "name": "",
          "type": "bytes"
        }
      ],
      "name": "checkUpkeep",
      "outputs": [
        {
          "internalType": "bool",
          "name": "upkeepNeeded",
          "type": "bool"
        },
        {
          "internalType": "bytes",
          "name": "",
          "type": "bytes"
        }
      ],
      "stateMutability": "view",
      "type": "function"
    },
    {
      "inputs": [
        {
          "internalType": "uint256",
          "name": "tickets",
          "type": "uint256"
        }
      ],
      "name": "enterRaffle",
      "outputs": [],
      "stateMutability": "payable",
      "type": "function"
    },
    {
      "inputs": [],
      "name": "getBets",
      "outputs": [
        {
          "components": [
            {
              "internalType": "address payable",
              "name": "player",
              "type": "address"
            },
            {
              "internalType": "uint256",
              "name": "tickets",
              "type": "uint256"
            }
          ],
          "internalType": "struct Raffle.playerTicket[]",
          "name": "",
          "type": "tuple[]"
        }
      ],
      "stateMutability": "view",
      "type": "function"
    },
    {
      "inputs": [],
      "name": "getRecentWinners",
      "outputs": [
        {
          "components": [
            {
              "internalType": "address",
              "name": "player1",
              "type": "address"
            },
            {
              "internalType": "address",
              "name": "player2",
              "type": "address"
            },
            {
              "internalType": "address",
              "name": "player3",
              "type": "address"
            },
            {
              "internalType": "uint256",
              "name": "prizePool",
              "type": "uint256"
            },
            {
              "internalType": "uint256",
              "name": "raffleTime",
              "type": "uint256"
            }
          ],
          "internalType": "struct Raffle.recentWinner[10]",
          "name": "",
          "type": "tuple[10]"
        }
      ],
      "stateMutability": "view",
      "type": "function"
    },
    {
      "inputs": [],
      "name": "i_callbackGasLimit",
      "outputs": [
        {
          "internalType": "uint32",
          "name": "",
          "type": "uint32"
        }
      ],
      "stateMutability": "view",
      "type": "function"
    },
    {
      "inputs": [],
      "name": "i_entranceFee",
      "outputs": [
        {
          "internalType": "uint256",
          "name": "",
          "type": "uint256"
        }
      ],
      "stateMutability": "view",
      "type": "function"
    },
    {
      "inputs": [],
      "name": "i_gasLane",
      "outputs": [
        {
          "internalType": "bytes32",
          "name": "",
          "type": "bytes32"
        }
      ],
      "stateMutability": "view",
      "type": "function"
    },
    {
      "inputs": [],
      "name": "i_interval",
      "outputs": [
        {
          "internalType": "uint256",
          "name": "",
          "type": "uint256"
        }
      ],
      "stateMutability": "view",
      "type": "function"
    },
    {
      "inputs": [],
      "name": "i_subscriptionId",
      "outputs": [
        {
          "internalType": "uint64",
          "name": "",
          "type": "uint64"
        }
      ],
      "stateMutability": "view",
      "type": "function"
    },
    {
      "inputs": [],
      "name": "i_vrfCoordinator",
      "outputs": [
        {
          "internalType": "contract VRFCoordinatorV2Interface",
          "name": "",
          "type": "address"
        }
      ],
      "stateMutability": "view",
      "type": "function"
    },
    {
      "inputs": [],
      "name": "numPlayers",
      "outputs": [
        {
          "internalType": "uint256",
          "name": "totPlayers",
          "type": "uint256"
        }
      ],
      "stateMutability": "view",
      "type": "function"
    },
    {
      "inputs": [
        {
          "internalType": "bytes",
          "name": "",
          "type": "bytes"
        }
      ],
      "name": "performUpkeep",
      "outputs": [],
      "stateMutability": "nonpayable",
      "type": "function"
    },
    {
      "inputs": [
        {
          "internalType": "uint256",
          "name": "requestId",
          "type": "uint256"
        },
        {
          "internalType": "uint256[]",
          "name": "randomWords",
          "type": "uint256[]"
        }
      ],
      "name": "rawFulfillRandomWords",
      "outputs": [],
      "stateMutability": "nonpayable",
      "type": "function"
    },
    {
      "inputs": [
        {
          "internalType": "uint256",
          "name": "",
          "type": "uint256"
        }
      ],
      "name": "s_bets",
      "outputs": [
        {
          "internalType": "address payable",
          "name": "player",
          "type": "address"
        },
        {
          "internalType": "uint256",
          "name": "tickets",
          "type": "uint256"
        }
      ],
      "stateMutability": "view",
      "type": "function"
    },
    {
      "inputs": [],
      "name": "s_lastTimeStamp",
      "outputs": [
        {
          "internalType": "uint256",
          "name": "",
          "type": "uint256"
        }
      ],
      "stateMutability": "view",
      "type": "function"
    },
    {
      "inputs": [],
      "name": "s_prizePool",
      "outputs": [
        {
          "internalType": "uint256",
          "name": "",
          "type": "uint256"
        }
      ],
      "stateMutability": "view",
      "type": "function"
    },
    {
      "inputs": [],
      "name": "s_raffleState",
      "outputs": [
        {
          "internalType": "enum Raffle.RaffleState",
          "name": "",
          "type": "uint8"
        }
      ],
      "stateMutability": "view",
      "type": "function"
    },
    {
      "inputs": [],
      "name": "s_raffle_round",
      "outputs": [
        {
          "internalType": "uint256",
          "name": "",
          "type": "uint256"
        }
      ],
      "stateMutability": "view",
      "type": "function"
    },
    {
      "inputs": [
        {
          "internalType": "uint256",
          "name": "",
          "type": "uint256"
        }
      ],
      "name": "s_recentWinners",
      "outputs": [
        {
          "internalType": "address",
          "name": "player1",
          "type": "address"
        },
        {
          "internalType": "address",
          "name": "player2",
          "type": "address"
        },
        {
          "internalType": "address",
          "name": "player3",
          "type": "address"
        },
        {
          "internalType": "uint256",
          "name": "prizePool",
          "type": "uint256"
        },
        {
          "internalType": "uint256",
          "name": "raffleTime",
          "type": "uint256"
        }
      ],
      "stateMutability": "view",
      "type": "function"
    },
    {
      "inputs": [],
      "name": "s_recentWinnersIdx",
      "outputs": [
        {
          "internalType": "uint8",
          "name": "",
          "type": "uint8"
        }
      ],
      "stateMutability": "view",
      "type": "function"
    },
    {
      "inputs": [],
      "name": "totTickets",
      "outputs": [
        {
          "internalType": "uint256",
          "name": "",
          "type": "uint256"
        }
      ],
      "stateMutability": "view",
      "type": "function"
    },
    {
      "inputs": [
        {
          "internalType": "uint256",
          "name": "seed",
          "type": "uint256"
        },
        {
          "internalType": "uint8",
          "name": "numWinTickets",
          "type": "uint8"
        },
        {
          "internalType": "uint256",
          "name": "_totTickets",
          "type": "uint256"
        }
      ],
      "name": "uniqueTickets",
      "outputs": [
        {
          "internalType": "uint256[3]",
          "name": "randTickets",
          "type": "uint256[3]"
        }
      ],
      "stateMutability": "pure",
      "type": "function"
    }
  ],
  "bytecode": "0x6101006040526001603a553480156200001757600080fd5b5060405162002eb638038062002eb683398181016040528101906200003d919062000194565b838073ffffffffffffffffffffffffffffffffffffffff1660808173ffffffffffffffffffffffffffffffffffffffff1660601b81525050508560a081815250508460c08181525050426003819055508373ffffffffffffffffffffffffffffffffffffffff1660e08173ffffffffffffffffffffffffffffffffffffffff1660601b815250508260048190555081600560006101000a81548167ffffffffffffffff021916908367ffffffffffffffff16021790555080600560086101000a81548163ffffffff021916908363ffffffff16021790555050505050505062000323565b6000815190506200013281620002a1565b92915050565b6000815190506200014981620002bb565b92915050565b6000815190506200016081620002d5565b92915050565b6000815190506200017781620002ef565b92915050565b6000815190506200018e8162000309565b92915050565b60008060008060008060c08789031215620001b457620001b36200029c565b5b6000620001c489828a016200014f565b9650506020620001d789828a016200014f565b9550506040620001ea89828a0162000121565b9450506060620001fd89828a0162000138565b93505060806200021089828a016200017d565b92505060a06200022389828a0162000166565b9150509295509295509295565b60006200023d826200024e565b9050919050565b6000819050919050565b600073ffffffffffffffffffffffffffffffffffffffff82169050919050565b6000819050919050565b600063ffffffff82169050919050565b600067ffffffffffffffff82169050919050565b600080fd5b620002ac8162000230565b8114620002b857600080fd5b50565b620002c68162000244565b8114620002d257600080fd5b50565b620002e0816200026e565b8114620002ec57600080fd5b50565b620002fa8162000278565b81146200030657600080fd5b50565b620003148162000288565b81146200032057600080fd5b50565b60805160601c60a05160c05160e05160601c612b376200037f600039600081816109b30152610d97015260008181610aeb0152610b550152600081816107f20152610c0101526000818161071e01526107720152612b376000f3fe6080604052600436106101cd5760003560e01c806392c65528116100f7578063d47e690a11610095578063e26befe611610064578063e26befe614610658578063e5edd00814610683578063f077b974146106c1578063f125a55d146106ec576101cd565b8063d47e690a1461059a578063d4882fed146105c5578063d757d027146105f0578063ddcb646d1461061b576101cd565b8063adbd1dd7116100d1578063adbd1dd7146104d8578063aebc455014610519578063cad0338c14610544578063cc45483f1461056f576101cd565b806392c655281461045757806397b2f55614610482578063a6afd5fd146104ad576101cd565b806351a0fe4a1161016f5780636e04ff0d1161013e5780636e04ff0d1461039857806372cf6e34146103d65780637ea3e6c1146104015780638e879c8a1461042c576101cd565b806351a0fe4a146102ec57806367f082b0146103175780636919207d146103425780636b19d9ed1461036d576101cd565b80632e519f90116101ab5780632e519f9014610251578063348540431461026d5780634585e33b14610298578063470cdf97146102c1576101cd565b80630dc98972146101d25780631fe543e3146101fd578063247bfabd14610226575b600080fd5b3480156101de57600080fd5b506101e7610717565b6040516101f491906124d5565b60405180910390f35b34801561020957600080fd5b50610224600480360381019061021f9190611db6565b61071c565b005b34801561023257600080fd5b5061023b6107dc565b60405161024891906124d5565b60405180910390f35b61026b60048036038101906102669190611d5c565b6107ef565b005b34801561027957600080fd5b5061028261092b565b60405161028f919061245b565b60405180910390f35b3480156102a457600080fd5b506102bf60048036038101906102ba9190611cc6565b610931565b005b3480156102cd57600080fd5b506102d6610ac5565b6040516102e391906124ba565b60405180910390f35b3480156102f857600080fd5b50610301610adf565b60405161030e91906124d5565b60405180910390f35b34801561032357600080fd5b5061032c610ae4565b6040516103399190612440565b60405180910390f35b34801561034e57600080fd5b50610357610ae9565b604051610364919061245b565b60405180910390f35b34801561037957600080fd5b50610382610b0d565b60405161038f91906124d5565b60405180910390f35b3480156103a457600080fd5b506103bf60048036038101906103ba9190611d13565b610b12565b6040516103cd92919061236c565b60405180910390f35b3480156103e257600080fd5b506103eb610bfa565b6040516103f89190612440565b60405180910390f35b34801561040d57600080fd5b50610416610bff565b604051610423919061245b565b60405180910390f35b34801561043857600080fd5b50610441610c23565b60405161044e919061239c565b60405180910390f35b34801561046357600080fd5b5061046c610c29565b60405161047991906124d5565b60405180910390f35b34801561048e57600080fd5b50610497610c2e565b6040516104a4919061245b565b60405180910390f35b3480156104b957600080fd5b506104c2610c3a565b6040516104cf9190612313565b60405180910390f35b3480156104e457600080fd5b506104ff60048036038101906104fa9190611d5c565b610cf9565b6040516105109594939291906122c0565b60405180910390f35b34801561052557600080fd5b5061052e610d95565b60405161053b919061240a565b60405180910390f35b34801561055057600080fd5b50610559610db9565b60405161056691906124d5565b60405180910390f35b34801561057b57600080fd5b50610584610dbe565b6040516105919190612425565b60405180910390f35b3480156105a657600080fd5b506105af610dd1565b6040516105bc919061245b565b60405180910390f35b3480156105d157600080fd5b506105da610dd7565b6040516105e791906124d5565b60405180910390f35b3480156105fc57600080fd5b50610605610ddc565b604051610612919061249f565b60405180910390f35b34801561062757600080fd5b50610642600480360381019061063d9190611e12565b610df2565b60405161064f9190612351565b60405180910390f35b34801561066457600080fd5b5061066d610f3b565b60405161067a919061245b565b60405180910390f35b34801561068f57600080fd5b506106aa60048036038101906106a59190611d5c565b610f41565b6040516106b892919061226e565b60405180910390f35b3480156106cd57600080fd5b506106d6610f95565b6040516106e39190612335565b60405180910390f35b3480156106f857600080fd5b506107016110fd565b60405161070e919061245b565b60405180910390f35b600581565b7f000000000000000000000000000000000000000000000000000000000000000073ffffffffffffffffffffffffffffffffffffffff163373ffffffffffffffffffffffffffffffffffffffff16146107ce57337f00000000000000000000000000000000000000000000000000000000000000006040517f1cf993f40000000000000000000000000000000000000000000000000000000081526004016107c5929190612297565b60405180910390fd5b6107d88282611103565b5050565b603960009054906101000a900460ff1681565b807f000000000000000000000000000000000000000000000000000000000000000061081b91906126b9565b341015610854576040517f3038c00a00000000000000000000000000000000000000000000000000000000815260040160405180910390fd5b6000600181111561086857610867612a00565b5b600160009054906101000a900460ff16600181111561088a57610889612a00565b5b146108c1576040517fd24a271400000000000000000000000000000000000000000000000000000000815260040160405180910390fd5b6108cb338261142d565b34600660008282546108dd919061262c565b92505081905550803373ffffffffffffffffffffffffffffffffffffffff167fed20d2ab01271e5ab09835d58aec6ad1931db157b05b700c95c1e625b81c860060405160405180910390a350565b60035481565b600061094b60405180602001604052806000815250610b12565b50905080610985576040517f8e4bc81700000000000000000000000000000000000000000000000000000000815260040160405180910390fd5b60018060006101000a81548160ff021916908360018111156109aa576109a9612a00565b5b021790555060007f000000000000000000000000000000000000000000000000000000000000000073ffffffffffffffffffffffffffffffffffffffff16635d3b1d30600454600560009054906101000a900467ffffffffffffffff166003600560089054906101000a900463ffffffff1660016040518663ffffffff1660e01b8152600401610a3e9594939291906123b7565b602060405180830381600087803b158015610a5857600080fd5b505af1158015610a6c573d6000803e3d6000fd5b505050506040513d601f19601f82011682018060405250810190610a909190611d89565b9050807fcd6e45c8998311cab7e9d4385596cac867e20a0587194b954fa3a731c93ce78b60405160405180910390a250505050565b600560009054906101000a900467ffffffffffffffff1681565b600381565b600381565b7f000000000000000000000000000000000000000000000000000000000000000081565b600f81565b600060606000600160009054906101000a900460ff166001811115610b3a57610b39612a00565b5b60006001811115610b4e57610b4d612a00565b5b14905060007f000000000000000000000000000000000000000000000000000000000000000060035442610b829190612713565b11905060008047119050600080600080549050119050828015610ba25750835b8015610bab5750815b8015610bb45750805b9550856040518060400160405280600381526020017f30783000000000000000000000000000000000000000000000000000000000008152509550955050505050915091565b600181565b7f000000000000000000000000000000000000000000000000000000000000000081565b60045481565b605081565b60008080549050905090565b60606000805480602002602001604051908101604052809291908181526020016000905b82821015610cf057838290600052602060002090600202016040518060400160405290816000820160009054906101000a900473ffffffffffffffffffffffffffffffffffffffff1673ffffffffffffffffffffffffffffffffffffffff1673ffffffffffffffffffffffffffffffffffffffff16815260200160018201548152505081526020019060010190610c5e565b50505050905090565b600781600a8110610d0957600080fd5b600502016000915090508060000160009054906101000a900473ffffffffffffffffffffffffffffffffffffffff16908060010160009054906101000a900473ffffffffffffffffffffffffffffffffffffffff16908060020160009054906101000a900473ffffffffffffffffffffffffffffffffffffffff16908060030154908060040154905085565b7f000000000000000000000000000000000000000000000000000000000000000081565b600381565b600160009054906101000a900460ff1681565b60065481565b600a81565b600560089054906101000a900463ffffffff1681565b610dfa611a10565b600080600060018588610e0d9190612971565b610e17919061262c565b60ff1684600060038110610e2e57610e2d612a2f565b5b6020020181815250506000600190505b8660ff168160ff161015610f3057600183610e59919061262c565b92506001868985604051602001610e71929190612476565b6040516020818303038152906040528051906020012060001c610e949190612971565b610e9e919061262c565b93506001915060005b600360ff168160ff161015610ef457858160ff1660038110610ecc57610ecb612a2f565b5b6020020151851415610ee15760009250610ef4565b8080610eec90612947565b915050610ea7565b508115610f2b5783858260ff1660038110610f1257610f11612a2f565b5b602002018181525050600181610f289190612682565b90505b610e3e565b505050509392505050565b603a5481565b60008181548110610f5157600080fd5b90600052602060002090600202016000915090508060000160009054906101000a900473ffffffffffffffffffffffffffffffffffffffff16908060010154905082565b610f9d611a32565b6007600a80602002604051908101604052809291906000905b828210156110f4578382600502016040518060a00160405290816000820160009054906101000a900473ffffffffffffffffffffffffffffffffffffffff1673ffffffffffffffffffffffffffffffffffffffff1673ffffffffffffffffffffffffffffffffffffffff1681526020016001820160009054906101000a900473ffffffffffffffffffffffffffffffffffffffff1673ffffffffffffffffffffffffffffffffffffffff1673ffffffffffffffffffffffffffffffffffffffff1681526020016002820160009054906101000a900473ffffffffffffffffffffffffffffffffffffffff1673ffffffffffffffffffffffffffffffffffffffff1673ffffffffffffffffffffffffffffffffffffffff1681526020016003820154815260200160048201548152505081526020019060010190610fb6565b50505050905090565b603b5481565b600061112e8260008151811061111c5761111b612a2f565b5b60200260200101516003603b54610df2565b9050600061113b826115f4565b905060006040518060600160405280605060ff1660ff168152602001600560ff1660ff168152602001600f60ff1660ff16815250905060005b600360ff168110156112cc57600073ffffffffffffffffffffffffffffffffffffffff168382600381106111ab576111aa612a2f565b5b602002015173ffffffffffffffffffffffffffffffffffffffff1614156111d1576112cc565b60008382600381106111e6576111e5612a2f565b5b6020020151905060008173ffffffffffffffffffffffffffffffffffffffff1684846003811061121957611218612a2f565b5b602002015160ff1660065461122e91906126b9565b60405161123a9061223e565b60006040518083038185875af1925050503d8060008114611277576040519150601f19603f3d011682016040523d82523d6000602084013e61127c565b606091505b50509050806112b7576040517fa1d04b3900000000000000000000000000000000000000000000000000000000815260040160405180910390fd5b505080806112c4906128fe565b915050611174565b50426003819055506112e3826006546003546117c7565b6001603a60008282546112f6919061262c565b9250508190555060006006819055506000600160006101000a81548160ff0219169083600181111561132b5761132a612a00565b5b02179055506040518060a001604052808360006003811061134f5761134e612a2f565b5b602002015173ffffffffffffffffffffffffffffffffffffffff1681526020018360016003811061138357611382612a2f565b5b602002015173ffffffffffffffffffffffffffffffffffffffff168152602001836002600381106113b7576113b6612a2f565b5b602002015173ffffffffffffffffffffffffffffffffffffffff16815260200160065481526020016003548152506040516113f29190612253565b60405180910390207f603db4286c2c3e388925eccb2679b9983458118c213ac5f0f227c1562b1c105b60405160405180910390a25050505050565b60005b60008054905081101561150b578273ffffffffffffffffffffffffffffffffffffffff166000828154811061146857611467612a2f565b5b906000526020600020906002020160000160009054906101000a900473ffffffffffffffffffffffffffffffffffffffff1673ffffffffffffffffffffffffffffffffffffffff1614156114f85781600082815481106114cb576114ca612a2f565b5b906000526020600020906002020160010160008282546114eb919061262c565b92505081905550506115f0565b8080611503906128fe565b915050611430565b50611514611a60565b82816000019073ffffffffffffffffffffffffffffffffffffffff16908173ffffffffffffffffffffffffffffffffffffffff168152505081816020018181525050600081908060018154018082558091505060019003906000526020600020906002020160009091909190915060008201518160000160006101000a81548173ffffffffffffffffffffffffffffffffffffffff021916908373ffffffffffffffffffffffffffffffffffffffff16021790555060208201518160010155505081603b60008282546115e7919061262c565b92505081905550505b5050565b6115fc611a90565b60006001905060008080600090505b6000805490508110156117be5760005b600360ff1681101561176c578487826003811061163b5761163a612a2f565b5b60200201511015801561169457506000828154811061165d5761165c612a2f565b5b9060005260206000209060020201600101548561167a919061262c565b87826003811061168d5761168c612a2f565b5b6020020151105b1561175957600082815481106116ad576116ac612a2f565b5b906000526020600020906002020160000160009054906101000a900473ffffffffffffffffffffffffffffffffffffffff168682600381106116f2576116f1612a2f565b5b602002019073ffffffffffffffffffffffffffffffffffffffff16908173ffffffffffffffffffffffffffffffffffffffff16815250508380611734906128fe565b945050600160036117459190612747565b60ff16841115611758576001925061176c565b5b8080611764906128fe565b91505061161b565b508115611778576117be565b6000818154811061178c5761178b612a2f565b5b906000526020600020906002020160010154846117a9919061262c565b935080806117b6906128fe565b91505061160b565b50505050919050565b6000603960009054906101000a900460ff1660ff1614611802576001603960009054906101000a900460ff166117fd9190612747565b61182a565b6001600a6118109190612747565b603960006101000a81548160ff021916908360ff16021790555b603960006101000a81548160ff021916908360ff1602179055506040518060a001604052808460006003811061186357611862612a2f565b5b602002015173ffffffffffffffffffffffffffffffffffffffff1681526020018460016003811061189757611896612a2f565b5b602002015173ffffffffffffffffffffffffffffffffffffffff168152602001846002600381106118cb576118ca612a2f565b5b602002015173ffffffffffffffffffffffffffffffffffffffff168152602001838152602001828152506007603960009054906101000a900460ff1660ff16600a811061191b5761191a612a2f565b5b6005020160008201518160000160006101000a81548173ffffffffffffffffffffffffffffffffffffffff021916908373ffffffffffffffffffffffffffffffffffffffff16021790555060208201518160010160006101000a81548173ffffffffffffffffffffffffffffffffffffffff021916908373ffffffffffffffffffffffffffffffffffffffff16021790555060408201518160020160006101000a81548173ffffffffffffffffffffffffffffffffffffffff021916908373ffffffffffffffffffffffffffffffffffffffff1602179055506060820151816003015560808201518160040155905050505050565b6040518060600160405280600390602082028036833780820191505090505090565b604051806101400160405280600a905b611a4a611ab2565b815260200190600190039081611a425790505090565b6040518060400160405280600073ffffffffffffffffffffffffffffffffffffffff168152602001600081525090565b6040518060600160405280600390602082028036833780820191505090505090565b6040518060a00160405280600073ffffffffffffffffffffffffffffffffffffffff168152602001600073ffffffffffffffffffffffffffffffffffffffff168152602001600073ffffffffffffffffffffffffffffffffffffffff16815260200160008152602001600081525090565b6000611b36611b3184612515565b6124f0565b90508083825260208201905082856020860282011115611b5957611b58612a97565b5b60005b85811015611b895781611b6f8882611c87565b845260208401935060208301925050600181019050611b5c565b5050509392505050565b6000611ba6611ba184612541565b6124f0565b905082815260208101848484011115611bc257611bc1612a9c565b5b611bcd84828561288b565b509392505050565b600082601f830112611bea57611be9612a92565b5b8135611bfa848260208601611b23565b91505092915050565b60008083601f840112611c1957611c18612a92565b5b8235905067ffffffffffffffff811115611c3657611c35612a8d565b5b602083019150836001820283011115611c5257611c51612a97565b5b9250929050565b600082601f830112611c6e57611c6d612a92565b5b8135611c7e848260208601611b93565b91505092915050565b600081359050611c9681612ad3565b92915050565b600081519050611cab81612ad3565b92915050565b600081359050611cc081612aea565b92915050565b60008060208385031215611cdd57611cdc612aa6565b5b600083013567ffffffffffffffff811115611cfb57611cfa612aa1565b5b611d0785828601611c03565b92509250509250929050565b600060208284031215611d2957611d28612aa6565b5b600082013567ffffffffffffffff811115611d4757611d46612aa1565b5b611d5384828501611c59565b91505092915050565b600060208284031215611d7257611d71612aa6565b5b6000611d8084828501611c87565b91505092915050565b600060208284031215611d9f57611d9e612aa6565b5b6000611dad84828501611c9c565b91505092915050565b60008060408385031215611dcd57611dcc612aa6565b5b6000611ddb85828601611c87565b925050602083013567ffffffffffffffff811115611dfc57611dfb612aa1565b5b611e0885828601611bd5565b9150509250929050565b600080600060608486031215611e2b57611e2a612aa6565b5b6000611e3986828701611c87565b9350506020611e4a86828701611cb1565b9250506040611e5b86828701611c87565b9150509250925092565b6000611e718383611f19565b60208301905092915050565b6000611e8983836120cc565b60408301905092915050565b6000611ea183836120fb565b60a08301905092915050565b6000611eb983836121e4565b60208301905092915050565b6000611ed18383612202565b60208301905092915050565b611ee68161278d565b82525050565b611ef58161278d565b82525050565b611f048161277b565b82525050565b611f138161277b565b82525050565b611f228161277b565b82525050565b6000611f3382612596565b611f3d81856125e9565b9350611f4883612572565b8060005b83811015611f79578151611f608882611e7d565b9750611f6b836125c2565b925050600181019050611f4c565b5085935050505092915050565b611f8f816125a1565b611f9981846125fa565b9250611fa482612582565b8060005b83811015611fd5578151611fbc8782611e95565b9650611fc7836125cf565b925050600181019050611fa8565b505050505050565b611fe6816125ac565b611ff08184612605565b9250611ffb8261258c565b8060005b8381101561202c5781516120138782611ead565b965061201e836125dc565b925050600181019050611fff565b505050505050565b61203d8161279f565b82525050565b61204c816127ab565b82525050565b600061205d826125b7565b6120678185612610565b935061207781856020860161289a565b61208081612aab565b840191505092915050565b61209481612831565b82525050565b6120a381612843565b82525050565b60006120b6600083612621565b91506120c182612abc565b600082019050919050565b6040820160008201516120e26000850182611edd565b5060208201516120f560208501826121e4565b50505050565b60a0820160008201516121116000850182611efb565b5060208201516121246020850182611efb565b5060408201516121376040850182611efb565b50606082015161214a60608501826121e4565b50608082015161215d60808501826121e4565b50505050565b6000820160008201516121768482611e65565b93505060208201516121888482611e65565b935050604082015161219a8482611e65565b93505060608201516121ac8482611ec5565b93505060808201516121be8482611ec5565b935050505050565b6121cf816127c8565b82525050565b6121de81612879565b82525050565b6121ed816127f6565b82525050565b6121fc816127f6565b82525050565b61220b816127f6565b82525050565b61221a81612800565b82525050565b61222981612810565b82525050565b61223881612824565b82525050565b6000612249826120a9565b9150819050919050565b600061225f8284612163565b60a08201915081905092915050565b60006040820190506122836000830185611eec565b61229060208301846121f3565b9392505050565b60006040820190506122ac6000830185611f0a565b6122b96020830184611f0a565b9392505050565b600060a0820190506122d56000830188611f0a565b6122e26020830187611f0a565b6122ef6040830186611f0a565b6122fc60608301856121f3565b61230960808301846121f3565b9695505050505050565b6000602082019050818103600083015261232d8184611f28565b905092915050565b60006106408201905061234b6000830184611f86565b92915050565b60006060820190506123666000830184611fdd565b92915050565b60006040820190506123816000830185612034565b81810360208301526123938184612052565b90509392505050565b60006020820190506123b16000830184612043565b92915050565b600060a0820190506123cc6000830188612043565b6123d96020830187612220565b6123e660408301866121c6565b6123f36060830185612211565b61240060808301846121d5565b9695505050505050565b600060208201905061241f600083018461208b565b92915050565b600060208201905061243a600083018461209a565b92915050565b600060208201905061245560008301846121c6565b92915050565b600060208201905061247060008301846121f3565b92915050565b600060408201905061248b60008301856121f3565b61249860208301846121f3565b9392505050565b60006020820190506124b46000830184612211565b92915050565b60006020820190506124cf6000830184612220565b92915050565b60006020820190506124ea600083018461222f565b92915050565b60006124fa61250b565b905061250682826128cd565b919050565b6000604051905090565b600067ffffffffffffffff8211156125305761252f612a5e565b5b602082029050602081019050919050565b600067ffffffffffffffff82111561255c5761255b612a5e565b5b61256582612aab565b9050602081019050919050565b6000819050602082019050919050565b6000819050919050565b6000819050919050565b600081519050919050565b6000600a9050919050565b600060039050919050565b600081519050919050565b6000602082019050919050565b6000602082019050919050565b6000602082019050919050565b600082825260208201905092915050565b600081905092915050565b600081905092915050565b600082825260208201905092915050565b600081905092915050565b6000612637826127f6565b9150612642836127f6565b9250827fffffffffffffffffffffffffffffffffffffffffffffffffffffffffffffffff03821115612677576126766129a2565b5b828201905092915050565b600061268d82612824565b915061269883612824565b92508260ff038211156126ae576126ad6129a2565b5b828201905092915050565b60006126c4826127f6565b91506126cf836127f6565b9250817fffffffffffffffffffffffffffffffffffffffffffffffffffffffffffffffff0483118215151615612708576127076129a2565b5b828202905092915050565b600061271e826127f6565b9150612729836127f6565b92508282101561273c5761273b6129a2565b5b828203905092915050565b600061275282612824565b915061275d83612824565b9250828210156127705761276f6129a2565b5b828203905092915050565b6000612786826127d6565b9050919050565b6000612798826127d6565b9050919050565b60008115159050919050565b6000819050919050565b60008190506127c382612abf565b919050565b600061ffff82169050919050565b600073ffffffffffffffffffffffffffffffffffffffff82169050919050565b6000819050919050565b600063ffffffff82169050919050565b600067ffffffffffffffff82169050919050565b600060ff82169050919050565b600061283c82612855565b9050919050565b600061284e826127b5565b9050919050565b600061286082612867565b9050919050565b6000612872826127d6565b9050919050565b6000612884826127c8565b9050919050565b82818337600083830152505050565b60005b838110156128b857808201518184015260208101905061289d565b838111156128c7576000848401525b50505050565b6128d682612aab565b810181811067ffffffffffffffff821117156128f5576128f4612a5e565b5b80604052505050565b6000612909826127f6565b91507fffffffffffffffffffffffffffffffffffffffffffffffffffffffffffffffff82141561293c5761293b6129a2565b5b600182019050919050565b600061295282612824565b915060ff821415612966576129656129a2565b5b600182019050919050565b600061297c826127f6565b9150612987836127f6565b925082612997576129966129d1565b5b828206905092915050565b7f4e487b7100000000000000000000000000000000000000000000000000000000600052601160045260246000fd5b7f4e487b7100000000000000000000000000000000000000000000000000000000600052601260045260246000fd5b7f4e487b7100000000000000000000000000000000000000000000000000000000600052602160045260246000fd5b7f4e487b7100000000000000000000000000000000000000000000000000000000600052603260045260246000fd5b7f4e487b7100000000000000000000000000000000000000000000000000000000600052604160045260246000fd5b600080fd5b600080fd5b600080fd5b600080fd5b600080fd5b600080fd5b6000601f19601f8301169050919050565b50565b60028110612ad057612acf612a00565b5b50565b612adc816127f6565b8114612ae757600080fd5b50565b612af381612824565b8114612afe57600080fd5b5056fea2646970667358221220991f72bab432e5c94e91745b63d9eae33f1128702305767251933643729cbb7264736f6c63430008070033",
  "linkReferences": {},
  "deployedLinkReferences": {}
}