{
  "_format": "hh-sol-artifact-1",
  "contractName": "Raffle",
  "sourceName": "contracts/Raffle.sol",
  "abi": [
    {
      "inputs": [
        {
          "internalType": "uint256",
          "name": "entranceFee",
          "type": "uint256"
        },
        {
          "internalType": "uint256",
          "name": "interval",
          "type": "uint256"
        },
        {
          "internalType": "address",
          "name": "vrfCoordinatorV2",
          "type": "address"
        },
        {
          "internalType": "bytes32",
          "name": "gasLane",
          "type": "bytes32"
        },
        {
          "internalType": "uint64",
          "name": "subscriptionId",
          "type": "uint64"
        },
        {
          "internalType": "uint32",
          "name": "callbackGasLimit",
          "type": "uint32"
        }
      ],
      "stateMutability": "nonpayable",
      "type": "constructor"
    },
    {
      "inputs": [
        {
          "internalType": "address",
          "name": "have",
          "type": "address"
        },
        {
          "internalType": "address",
          "name": "want",
          "type": "address"
        }
      ],
      "name": "OnlyCoordinatorCanFulfill",
      "type": "error"
    },
    {
      "inputs": [],
      "name": "Raffle__RaffleNotOpen",
      "type": "error"
    },
    {
      "inputs": [],
      "name": "Raffle__RandomTicketsNotUnique",
      "type": "error"
    },
    {
      "inputs": [],
      "name": "Raffle__SendMoreToEnterRaffle",
      "type": "error"
    },
    {
      "inputs": [],
      "name": "Raffle__TransferFailed",
      "type": "error"
    },
    {
      "inputs": [],
      "name": "Raffle__UpkeepNotNeeded",
      "type": "error"
    },
    {
      "anonymous": false,
      "inputs": [
        {
          "indexed": true,
          "internalType": "address",
          "name": "player",
          "type": "address"
        },
        {
          "indexed": true,
          "internalType": "uint256",
          "name": "tickets",
          "type": "uint256"
        }
      ],
      "name": "RaffleEnter",
      "type": "event"
    },
    {
      "anonymous": false,
      "inputs": [
        {
          "indexed": true,
          "internalType": "uint256",
          "name": "requestId",
          "type": "uint256"
        }
      ],
      "name": "RequestedRaffleWinner",
      "type": "event"
    },
    {
      "anonymous": false,
      "inputs": [
        {
          "components": [
            {
              "internalType": "address",
              "name": "player1",
              "type": "address"
            },
            {
              "internalType": "address",
              "name": "player2",
              "type": "address"
            },
            {
              "internalType": "address",
              "name": "player3",
              "type": "address"
            },
            {
              "internalType": "uint256",
              "name": "prizePool",
              "type": "uint256"
            },
            {
              "internalType": "uint256",
              "name": "raffleTime",
              "type": "uint256"
            }
          ],
          "indexed": true,
          "internalType": "struct Raffle.recentWinner",
          "name": "s_recentWinner",
          "type": "tuple"
        }
      ],
      "name": "WinnerPicked",
      "type": "event"
    },
    {
      "inputs": [],
      "name": "NUM_SAVED_WINNER_ROUNDS",
      "outputs": [
        {
          "internalType": "uint8",
          "name": "",
          "type": "uint8"
        }
      ],
      "stateMutability": "view",
      "type": "function"
    },
    {
      "inputs": [],
      "name": "NUM_TICKETS",
      "outputs": [
        {
          "internalType": "uint8",
          "name": "",
          "type": "uint8"
        }
      ],
      "stateMutability": "view",
      "type": "function"
    },
    {
      "inputs": [],
      "name": "NUM_WINNERS",
      "outputs": [
        {
          "internalType": "uint8",
          "name": "",
          "type": "uint8"
        }
      ],
      "stateMutability": "view",
      "type": "function"
    },
    {
      "inputs": [],
      "name": "NUM_WORDS",
      "outputs": [
        {
          "internalType": "uint16",
          "name": "",
          "type": "uint16"
        }
      ],
      "stateMutability": "view",
      "type": "function"
    },
    {
      "inputs": [],
      "name": "REQUEST_CONFIRMATIONS",
      "outputs": [
        {
          "internalType": "uint16",
          "name": "",
          "type": "uint16"
        }
      ],
      "stateMutability": "view",
      "type": "function"
    },
    {
      "inputs": [],
      "name": "WINNER1_QUOTE",
      "outputs": [
        {
          "internalType": "uint8",
          "name": "",
          "type": "uint8"
        }
      ],
      "stateMutability": "view",
      "type": "function"
    },
    {
      "inputs": [],
      "name": "WINNER2_QUOTE",
      "outputs": [
        {
          "internalType": "uint8",
          "name": "",
          "type": "uint8"
        }
      ],
      "stateMutability": "view",
      "type": "function"
    },
    {
      "inputs": [],
      "name": "WINNER3_QUOTE",
      "outputs": [
        {
          "internalType": "uint8",
          "name": "",
          "type": "uint8"
        }
      ],
      "stateMutability": "view",
      "type": "function"
    },
    {
      "inputs": [
        {
          "internalType": "bytes",
          "name": "",
          "type": "bytes"
        }
      ],
      "name": "checkUpkeep",
      "outputs": [
        {
          "internalType": "bool",
          "name": "upkeepNeeded",
          "type": "bool"
        },
        {
          "internalType": "bytes",
          "name": "",
          "type": "bytes"
        }
      ],
      "stateMutability": "view",
      "type": "function"
    },
    {
      "inputs": [
        {
          "internalType": "uint256",
          "name": "tickets",
          "type": "uint256"
        }
      ],
      "name": "enterRaffle",
      "outputs": [],
      "stateMutability": "payable",
      "type": "function"
    },
    {
      "inputs": [],
      "name": "getBets",
      "outputs": [
        {
          "components": [
            {
              "internalType": "address payable",
              "name": "player",
              "type": "address"
            },
            {
              "internalType": "uint256",
              "name": "tickets",
              "type": "uint256"
            }
          ],
          "internalType": "struct Raffle.playerTicket[]",
          "name": "",
          "type": "tuple[]"
        }
      ],
      "stateMutability": "view",
      "type": "function"
    },
    {
      "inputs": [
        {
          "internalType": "uint256[3]",
          "name": "randomWords",
          "type": "uint256[3]"
        }
      ],
      "name": "getRandomTickets",
      "outputs": [
        {
          "internalType": "uint256[3]",
          "name": "randTickets",
          "type": "uint256[3]"
        }
      ],
      "stateMutability": "view",
      "type": "function"
    },
    {
      "inputs": [],
      "name": "i_callbackGasLimit",
      "outputs": [
        {
          "internalType": "uint32",
          "name": "",
          "type": "uint32"
        }
      ],
      "stateMutability": "view",
      "type": "function"
    },
    {
      "inputs": [],
      "name": "i_entranceFee",
      "outputs": [
        {
          "internalType": "uint256",
          "name": "",
          "type": "uint256"
        }
      ],
      "stateMutability": "view",
      "type": "function"
    },
    {
      "inputs": [],
      "name": "i_gasLane",
      "outputs": [
        {
          "internalType": "bytes32",
          "name": "",
          "type": "bytes32"
        }
      ],
      "stateMutability": "view",
      "type": "function"
    },
    {
      "inputs": [],
      "name": "i_interval",
      "outputs": [
        {
          "internalType": "uint256",
          "name": "",
          "type": "uint256"
        }
      ],
      "stateMutability": "view",
      "type": "function"
    },
    {
      "inputs": [],
      "name": "i_subscriptionId",
      "outputs": [
        {
          "internalType": "uint64",
          "name": "",
          "type": "uint64"
        }
      ],
      "stateMutability": "view",
      "type": "function"
    },
    {
      "inputs": [],
      "name": "i_vrfCoordinator",
      "outputs": [
        {
          "internalType": "contract VRFCoordinatorV2Interface",
          "name": "",
          "type": "address"
        }
      ],
      "stateMutability": "view",
      "type": "function"
    },
    {
      "inputs": [],
      "name": "numPlayers",
      "outputs": [
        {
          "internalType": "uint256",
          "name": "totPlayers",
          "type": "uint256"
        }
      ],
      "stateMutability": "view",
      "type": "function"
    },
    {
      "inputs": [
        {
          "internalType": "bytes",
          "name": "",
          "type": "bytes"
        }
      ],
      "name": "performUpkeep",
      "outputs": [],
      "stateMutability": "nonpayable",
      "type": "function"
    },
    {
      "inputs": [
        {
          "internalType": "uint256",
          "name": "requestId",
          "type": "uint256"
        },
        {
          "internalType": "uint256[]",
          "name": "randomWords",
          "type": "uint256[]"
        }
      ],
      "name": "rawFulfillRandomWords",
      "outputs": [],
      "stateMutability": "nonpayable",
      "type": "function"
    },
    {
      "inputs": [
        {
          "internalType": "uint256",
          "name": "",
          "type": "uint256"
        }
      ],
      "name": "s_bets",
      "outputs": [
        {
          "internalType": "address payable",
          "name": "player",
          "type": "address"
        },
        {
          "internalType": "uint256",
          "name": "tickets",
          "type": "uint256"
        }
      ],
      "stateMutability": "view",
      "type": "function"
    },
    {
      "inputs": [],
      "name": "s_lastTimeStamp",
      "outputs": [
        {
          "internalType": "uint256",
          "name": "",
          "type": "uint256"
        }
      ],
      "stateMutability": "view",
      "type": "function"
    },
    {
      "inputs": [],
      "name": "s_prizePool",
      "outputs": [
        {
          "internalType": "uint256",
          "name": "",
          "type": "uint256"
        }
      ],
      "stateMutability": "view",
      "type": "function"
    },
    {
      "inputs": [],
      "name": "s_raffleState",
      "outputs": [
        {
          "internalType": "enum Raffle.RaffleState",
          "name": "",
          "type": "uint8"
        }
      ],
      "stateMutability": "view",
      "type": "function"
    },
    {
      "inputs": [],
      "name": "s_raffle_round",
      "outputs": [
        {
          "internalType": "uint256",
          "name": "",
          "type": "uint256"
        }
      ],
      "stateMutability": "view",
      "type": "function"
    },
    {
      "inputs": [
        {
          "internalType": "uint256",
          "name": "",
          "type": "uint256"
        }
      ],
      "name": "s_recentWinners",
      "outputs": [
        {
          "internalType": "address",
          "name": "player1",
          "type": "address"
        },
        {
          "internalType": "address",
          "name": "player2",
          "type": "address"
        },
        {
          "internalType": "address",
          "name": "player3",
          "type": "address"
        },
        {
          "internalType": "uint256",
          "name": "prizePool",
          "type": "uint256"
        },
        {
          "internalType": "uint256",
          "name": "raffleTime",
          "type": "uint256"
        }
      ],
      "stateMutability": "view",
      "type": "function"
    },
    {
      "inputs": [],
      "name": "s_recentWinnersIdx",
      "outputs": [
        {
          "internalType": "uint8",
          "name": "",
          "type": "uint8"
        }
      ],
      "stateMutability": "view",
      "type": "function"
    }
  ],
  "bytecode": "0x6101006040526001603a553480156200001757600080fd5b5060405162002ae438038062002ae483398181016040528101906200003d919062000194565b838073ffffffffffffffffffffffffffffffffffffffff1660808173ffffffffffffffffffffffffffffffffffffffff1660601b81525050508560a081815250508460c08181525050426003819055508373ffffffffffffffffffffffffffffffffffffffff1660e08173ffffffffffffffffffffffffffffffffffffffff1660601b815250508260048190555081600560006101000a81548167ffffffffffffffff021916908367ffffffffffffffff16021790555080600560086101000a81548163ffffffff021916908363ffffffff16021790555050505050505062000323565b6000815190506200013281620002a1565b92915050565b6000815190506200014981620002bb565b92915050565b6000815190506200016081620002d5565b92915050565b6000815190506200017781620002ef565b92915050565b6000815190506200018e8162000309565b92915050565b60008060008060008060c08789031215620001b457620001b36200029c565b5b6000620001c489828a016200014f565b9650506020620001d789828a016200014f565b9550506040620001ea89828a0162000121565b9450506060620001fd89828a0162000138565b93505060806200021089828a016200017d565b92505060a06200022389828a0162000166565b9150509295509295509295565b60006200023d826200024e565b9050919050565b6000819050919050565b600073ffffffffffffffffffffffffffffffffffffffff82169050919050565b6000819050919050565b600063ffffffff82169050919050565b600067ffffffffffffffff82169050919050565b600080fd5b620002ac8162000230565b8114620002b857600080fd5b50565b620002c68162000244565b8114620002d257600080fd5b50565b620002e0816200026e565b8114620002ec57600080fd5b50565b620002fa8162000278565b81146200030657600080fd5b50565b620003148162000288565b81146200032057600080fd5b50565b60805160601c60a05160c05160e05160601c6127656200037f600039600081816109470152610e8f015260008181610a7a0152610ae40152600081816107860152610b900152600081816106b2015261070601526127656000f3fe6080604052600436106101b75760003560e01c806392c65528116100ec578063cad0338c1161008a578063d4882fed11610064578063d4882fed146105ec578063d757d02714610617578063e26befe614610642578063e5edd0081461066d576101b7565b8063cad0338c1461056b578063cc45483f14610596578063d47e690a146105c1576101b7565b8063a6afd5fd116100c6578063a6afd5fd146104a9578063adbd1dd7146104d4578063aebc455014610515578063b9c9214014610540576101b7565b806392c655281461041657806397b2f55614610441578063a69159971461046c576101b7565b806367f082b0116101595780636e04ff0d116101335780636e04ff0d1461035757806372cf6e34146103955780637ea3e6c1146103c05780638e879c8a146103eb576101b7565b806367f082b0146102d65780636919207d146103015780636b19d9ed1461032c576101b7565b80632e519f90116101955780632e519f901461023b57806334854043146102575780634585e33b14610282578063470cdf97146102ab576101b7565b80630dc98972146101bc5780631fe543e3146101e7578063247bfabd14610210575b600080fd5b3480156101c857600080fd5b506101d16106ab565b6040516101de9190612182565b60405180910390f35b3480156101f357600080fd5b5061020e60048036038101906102099190611be1565b6106b0565b005b34801561021c57600080fd5b50610225610770565b6040516102329190612182565b60405180910390f35b61025560048036038101906102509190611b87565b610783565b005b34801561026357600080fd5b5061026c6108bf565b6040516102799190612131565b60405180910390f35b34801561028e57600080fd5b506102a960048036038101906102a49190611af1565b6108c5565b005b3480156102b757600080fd5b506102c0610a59565b6040516102cd9190612167565b60405180910390f35b3480156102e257600080fd5b506102eb610a73565b6040516102f89190612116565b60405180910390f35b34801561030d57600080fd5b50610316610a78565b6040516103239190612131565b60405180910390f35b34801561033857600080fd5b50610341610a9c565b60405161034e9190612182565b60405180910390f35b34801561036357600080fd5b5061037e60048036038101906103799190611b3e565b610aa1565b60405161038c929190612042565b60405180910390f35b3480156103a157600080fd5b506103aa610b89565b6040516103b79190612116565b60405180910390f35b3480156103cc57600080fd5b506103d5610b8e565b6040516103e29190612131565b60405180910390f35b3480156103f757600080fd5b50610400610bb2565b60405161040d9190612072565b60405180910390f35b34801561042257600080fd5b5061042b610bb8565b6040516104389190612182565b60405180910390f35b34801561044d57600080fd5b50610456610bbd565b6040516104639190612131565b60405180910390f35b34801561047857600080fd5b50610493600480360381019061048e9190611ac4565b610bc9565b6040516104a09190612027565b60405180910390f35b3480156104b557600080fd5b506104be610d32565b6040516104cb9190612005565b60405180910390f35b3480156104e057600080fd5b506104fb60048036038101906104f69190611b87565b610df1565b60405161050c959493929190611fb2565b60405180910390f35b34801561052157600080fd5b5061052a610e8d565b60405161053791906120e0565b60405180910390f35b34801561054c57600080fd5b50610555610eb1565b6040516105629190612182565b60405180910390f35b34801561057757600080fd5b50610580610eb6565b60405161058d9190612182565b60405180910390f35b3480156105a257600080fd5b506105ab610ebb565b6040516105b891906120fb565b60405180910390f35b3480156105cd57600080fd5b506105d6610ece565b6040516105e39190612131565b60405180910390f35b3480156105f857600080fd5b50610601610ed4565b60405161060e9190612182565b60405180910390f35b34801561062357600080fd5b5061062c610ed9565b604051610639919061214c565b60405180910390f35b34801561064e57600080fd5b50610657610eef565b6040516106649190612131565b60405180910390f35b34801561067957600080fd5b50610694600480360381019061068f9190611b87565b610ef5565b6040516106a2929190611f60565b60405180910390f35b600581565b7f000000000000000000000000000000000000000000000000000000000000000073ffffffffffffffffffffffffffffffffffffffff163373ffffffffffffffffffffffffffffffffffffffff161461076257337f00000000000000000000000000000000000000000000000000000000000000006040517f1cf993f4000000000000000000000000000000000000000000000000000000008152600401610759929190611f89565b60405180910390fd5b61076c8282610f49565b5050565b603960009054906101000a900460ff1681565b807f00000000000000000000000000000000000000000000000000000000000000006107af9190612328565b3410156107e8576040517f3038c00a00000000000000000000000000000000000000000000000000000000815260040160405180910390fd5b600060018111156107fc576107fb612645565b5b600160009054906101000a900460ff16600181111561081e5761081d612645565b5b14610855576040517fd24a271400000000000000000000000000000000000000000000000000000000815260040160405180910390fd5b61085f3382611266565b346006600082825461087191906122d2565b92505081905550803373ffffffffffffffffffffffffffffffffffffffff167fed20d2ab01271e5ab09835d58aec6ad1931db157b05b700c95c1e625b81c860060405160405180910390a350565b60035481565b60006108df60405180602001604052806000815250610aa1565b50905080610919576040517f8e4bc81700000000000000000000000000000000000000000000000000000000815260040160405180910390fd5b60018060006101000a81548160ff0219169083600181111561093e5761093d612645565b5b021790555060007f000000000000000000000000000000000000000000000000000000000000000073ffffffffffffffffffffffffffffffffffffffff16635d3b1d30600454600560009054906101000a900467ffffffffffffffff166003600560089054906101000a900463ffffffff1660036040518663ffffffff1660e01b81526004016109d295949392919061208d565b602060405180830381600087803b1580156109ec57600080fd5b505af1158015610a00573d6000803e3d6000fd5b505050506040513d601f19601f82011682018060405250810190610a249190611bb4565b9050807fcd6e45c8998311cab7e9d4385596cac867e20a0587194b954fa3a731c93ce78b60405160405180910390a250505050565b600560009054906101000a900467ffffffffffffffff1681565b600381565b7f000000000000000000000000000000000000000000000000000000000000000081565b600f81565b600060606000600160009054906101000a900460ff166001811115610ac957610ac8612645565b5b60006001811115610add57610adc612645565b5b14905060007f000000000000000000000000000000000000000000000000000000000000000060035442610b119190612382565b11905060008047119050600080600080549050119050828015610b315750835b8015610b3a5750815b8015610b435750805b9550856040518060400160405280600381526020017f30783000000000000000000000000000000000000000000000000000000000008152509550955050505050915091565b600381565b7f000000000000000000000000000000000000000000000000000000000000000081565b60045481565b605081565b60008080549050905090565b610bd1611830565b6000600190506000603b5484600060038110610bf057610bef612674565b5b6020020151610bff91906125b6565b83600060038110610c1357610c12612674565b5b6020020181815250506000600190505b600361ffff16811015610cec57603b54858260038110610c4657610c45612674565b5b6020020151610c5591906125b6565b91508184600060038110610c6c57610c6b612674565b5b602002015114158015610c9757508184600160038110610c8f57610c8e612674565b5b602002015114155b15610cc85781848460038110610cb057610caf612674565b5b6020020181815250508280610cc49061256d565b9350505b600360ff16831415610cd957610cec565b8080610ce49061256d565b915050610c23565b50600360ff16821015610d2b576040517ff5a4bb2b00000000000000000000000000000000000000000000000000000000815260040160405180910390fd5b5050919050565b60606000805480602002602001604051908101604052809291908181526020016000905b82821015610de857838290600052602060002090600202016040518060400160405290816000820160009054906101000a900473ffffffffffffffffffffffffffffffffffffffff1673ffffffffffffffffffffffffffffffffffffffff1673ffffffffffffffffffffffffffffffffffffffff16815260200160018201548152505081526020019060010190610d56565b50505050905090565b600781600a8110610e0157600080fd5b600502016000915090508060000160009054906101000a900473ffffffffffffffffffffffffffffffffffffffff16908060010160009054906101000a900473ffffffffffffffffffffffffffffffffffffffff16908060020160009054906101000a900473ffffffffffffffffffffffffffffffffffffffff16908060030154908060040154905085565b7f000000000000000000000000000000000000000000000000000000000000000081565b600381565b600381565b600160009054906101000a900460ff1681565b60065481565b600a81565b600560089054906101000a900463ffffffff1681565b603a5481565b60008181548110610f0557600080fd5b90600052602060002090600202016000915090508060000160009054906101000a900473ffffffffffffffffffffffffffffffffffffffff16908060010154905082565b610f51611830565b60005b600361ffff16811015610fab57828181518110610f7457610f73612674565b5b6020026020010151828260038110610f8f57610f8e612674565b5b6020020181815250508080610fa39061256d565b915050610f54565b506000610fb782610bc9565b90506000610fc482611414565b905060006040518060600160405280605060ff1660ff168152602001600560ff1660ff168152602001600f60ff1660ff16815250905060005b600360ff1681101561110457600083826003811061101e5761101d612674565b5b6020020151905060008173ffffffffffffffffffffffffffffffffffffffff1684846003811061105157611050612674565b5b602002015160ff166006546110669190612328565b60405161107290611f30565b60006040518083038185875af1925050503d80600081146110af576040519150601f19603f3d011682016040523d82523d6000602084013e6110b4565b606091505b50509050806110ef576040517fa1d04b3900000000000000000000000000000000000000000000000000000000815260040160405180910390fd5b505080806110fc9061256d565b915050610ffd565b504260038190555061111b826006546003546115e7565b6001603a600082825461112e91906122d2565b9250508190555060006006819055506000600160006101000a81548160ff0219169083600181111561116357611162612645565b5b02179055506040518060a001604052808360006003811061118757611186612674565b5b602002015173ffffffffffffffffffffffffffffffffffffffff168152602001836001600381106111bb576111ba612674565b5b602002015173ffffffffffffffffffffffffffffffffffffffff168152602001836002600381106111ef576111ee612674565b5b602002015173ffffffffffffffffffffffffffffffffffffffff168152602001600654815260200160035481525060405161122a9190611f45565b60405180910390207f603db4286c2c3e388925eccb2679b9983458118c213ac5f0f227c1562b1c105b60405160405180910390a2505050505050565b60005b600080549050811015611344578273ffffffffffffffffffffffffffffffffffffffff16600082815481106112a1576112a0612674565b5b906000526020600020906002020160000160009054906101000a900473ffffffffffffffffffffffffffffffffffffffff1673ffffffffffffffffffffffffffffffffffffffff16141561133157816000828154811061130457611303612674565b5b9060005260206000209060020201600101600082825461132491906122d2565b9250508190555050611410565b808061133c9061256d565b915050611269565b5061134d611852565b82816000019073ffffffffffffffffffffffffffffffffffffffff16908173ffffffffffffffffffffffffffffffffffffffff168152505081816020018181525050600081908060018154018082558091505060019003906000526020600020906002020160009091909190915060008201518160000160006101000a81548173ffffffffffffffffffffffffffffffffffffffff021916908373ffffffffffffffffffffffffffffffffffffffff160217905550602082015181600101555050505b5050565b61141c611882565b60006001905060008080600090505b6000805490508110156115de5760005b600360ff1681101561158c578487826003811061145b5761145a612674565b5b6020020151101580156114b457506000828154811061147d5761147c612674565b5b9060005260206000209060020201600101548561149a91906122d2565b8782600381106114ad576114ac612674565b5b6020020151105b1561157957600082815481106114cd576114cc612674565b5b906000526020600020906002020160000160009054906101000a900473ffffffffffffffffffffffffffffffffffffffff1686826003811061151257611511612674565b5b602002019073ffffffffffffffffffffffffffffffffffffffff16908173ffffffffffffffffffffffffffffffffffffffff168152505083806115549061256d565b9450506001600361156591906123b6565b60ff16841115611578576001925061158c565b5b80806115849061256d565b91505061143b565b508115611598576115de565b600081815481106115ac576115ab612674565b5b906000526020600020906002020160010154846115c991906122d2565b935080806115d69061256d565b91505061142b565b50505050919050565b6000603960009054906101000a900460ff1660ff1614611622576001603960009054906101000a900460ff1661161d91906123b6565b61164a565b6001600a61163091906123b6565b603960006101000a81548160ff021916908360ff16021790555b603960006101000a81548160ff021916908360ff1602179055506040518060a001604052808460006003811061168357611682612674565b5b602002015173ffffffffffffffffffffffffffffffffffffffff168152602001846001600381106116b7576116b6612674565b5b602002015173ffffffffffffffffffffffffffffffffffffffff168152602001846002600381106116eb576116ea612674565b5b602002015173ffffffffffffffffffffffffffffffffffffffff168152602001838152602001828152506007603960009054906101000a900460ff1660ff16600a811061173b5761173a612674565b5b6005020160008201518160000160006101000a81548173ffffffffffffffffffffffffffffffffffffffff021916908373ffffffffffffffffffffffffffffffffffffffff16021790555060208201518160010160006101000a81548173ffffffffffffffffffffffffffffffffffffffff021916908373ffffffffffffffffffffffffffffffffffffffff16021790555060408201518160020160006101000a81548173ffffffffffffffffffffffffffffffffffffffff021916908373ffffffffffffffffffffffffffffffffffffffff1602179055506060820151816003015560808201518160040155905050505050565b6040518060600160405280600390602082028036833780820191505090505090565b6040518060400160405280600073ffffffffffffffffffffffffffffffffffffffff168152602001600081525090565b6040518060600160405280600390602082028036833780820191505090505090565b60006118b76118b2846121c2565b61219d565b905080828560208602820111156118d1576118d06126dc565b5b60005b8581101561190157816118e78882611a9a565b8452602084019350602083019250506001810190506118d4565b5050509392505050565b600061191e611919846121e8565b61219d565b90508083825260208201905082856020860282011115611941576119406126dc565b5b60005b8581101561197157816119578882611a9a565b845260208401935060208301925050600181019050611944565b5050509392505050565b600061198e61198984612214565b61219d565b9050828152602081018484840111156119aa576119a96126e1565b5b6119b58482856124fa565b509392505050565b600082601f8301126119d2576119d16126d7565b5b60036119df8482856118a4565b91505092915050565b600082601f8301126119fd576119fc6126d7565b5b8135611a0d84826020860161190b565b91505092915050565b60008083601f840112611a2c57611a2b6126d7565b5b8235905067ffffffffffffffff811115611a4957611a486126d2565b5b602083019150836001820283011115611a6557611a646126dc565b5b9250929050565b600082601f830112611a8157611a806126d7565b5b8135611a9184826020860161197b565b91505092915050565b600081359050611aa981612718565b92915050565b600081519050611abe81612718565b92915050565b600060608284031215611ada57611ad96126eb565b5b6000611ae8848285016119bd565b91505092915050565b60008060208385031215611b0857611b076126eb565b5b600083013567ffffffffffffffff811115611b2657611b256126e6565b5b611b3285828601611a16565b92509250509250929050565b600060208284031215611b5457611b536126eb565b5b600082013567ffffffffffffffff811115611b7257611b716126e6565b5b611b7e84828501611a6c565b91505092915050565b600060208284031215611b9d57611b9c6126eb565b5b6000611bab84828501611a9a565b91505092915050565b600060208284031215611bca57611bc96126eb565b5b6000611bd884828501611aaf565b91505092915050565b60008060408385031215611bf857611bf76126eb565b5b6000611c0685828601611a9a565b925050602083013567ffffffffffffffff811115611c2757611c266126e6565b5b611c33858286016119e8565b9150509250929050565b6000611c498383611cca565b60208301905092915050565b6000611c618383611e26565b60408301905092915050565b6000611c798383611ed6565b60208301905092915050565b6000611c918383611ef4565b60208301905092915050565b611ca6816123fc565b82525050565b611cb5816123fc565b82525050565b611cc4816123ea565b82525050565b611cd3816123ea565b82525050565b6000611ce48261225f565b611cee818561229a565b9350611cf983612245565b8060005b83811015611d2a578151611d118882611c55565b9750611d1c83612280565b925050600181019050611cfd565b5085935050505092915050565b611d408161226a565b611d4a81846122ab565b9250611d5582612255565b8060005b83811015611d86578151611d6d8782611c6d565b9650611d788361228d565b925050600181019050611d59565b505050505050565b611d978161240e565b82525050565b611da68161241a565b82525050565b6000611db782612275565b611dc181856122b6565b9350611dd1818560208601612509565b611dda816126f0565b840191505092915050565b611dee816124a0565b82525050565b611dfd816124b2565b82525050565b6000611e106000836122c7565b9150611e1b82612701565b600082019050919050565b604082016000820151611e3c6000850182611c9d565b506020820151611e4f6020850182611ed6565b50505050565b600082016000820151611e688482611c3d565b9350506020820151611e7a8482611c3d565b9350506040820151611e8c8482611c3d565b9350506060820151611e9e8482611c85565b9350506080820151611eb08482611c85565b935050505050565b611ec181612437565b82525050565b611ed0816124e8565b82525050565b611edf81612465565b82525050565b611eee81612465565b82525050565b611efd81612465565b82525050565b611f0c8161246f565b82525050565b611f1b8161247f565b82525050565b611f2a81612493565b82525050565b6000611f3b82611e03565b9150819050919050565b6000611f518284611e55565b60a08201915081905092915050565b6000604082019050611f756000830185611cac565b611f826020830184611ee5565b9392505050565b6000604082019050611f9e6000830185611cbb565b611fab6020830184611cbb565b9392505050565b600060a082019050611fc76000830188611cbb565b611fd46020830187611cbb565b611fe16040830186611cbb565b611fee6060830185611ee5565b611ffb6080830184611ee5565b9695505050505050565b6000602082019050818103600083015261201f8184611cd9565b905092915050565b600060608201905061203c6000830184611d37565b92915050565b60006040820190506120576000830185611d8e565b81810360208301526120698184611dac565b90509392505050565b60006020820190506120876000830184611d9d565b92915050565b600060a0820190506120a26000830188611d9d565b6120af6020830187611f12565b6120bc6040830186611eb8565b6120c96060830185611f03565b6120d66080830184611ec7565b9695505050505050565b60006020820190506120f56000830184611de5565b92915050565b60006020820190506121106000830184611df4565b92915050565b600060208201905061212b6000830184611eb8565b92915050565b60006020820190506121466000830184611ee5565b92915050565b60006020820190506121616000830184611f03565b92915050565b600060208201905061217c6000830184611f12565b92915050565b60006020820190506121976000830184611f21565b92915050565b60006121a76121b8565b90506121b3828261253c565b919050565b6000604051905090565b600067ffffffffffffffff8211156121dd576121dc6126a3565b5b602082029050919050565b600067ffffffffffffffff821115612203576122026126a3565b5b602082029050602081019050919050565b600067ffffffffffffffff82111561222f5761222e6126a3565b5b612238826126f0565b9050602081019050919050565b6000819050602082019050919050565b6000819050919050565b600081519050919050565b600060039050919050565b600081519050919050565b6000602082019050919050565b6000602082019050919050565b600082825260208201905092915050565b600081905092915050565b600082825260208201905092915050565b600081905092915050565b60006122dd82612465565b91506122e883612465565b9250827fffffffffffffffffffffffffffffffffffffffffffffffffffffffffffffffff0382111561231d5761231c6125e7565b5b828201905092915050565b600061233382612465565b915061233e83612465565b9250817fffffffffffffffffffffffffffffffffffffffffffffffffffffffffffffffff0483118215151615612377576123766125e7565b5b828202905092915050565b600061238d82612465565b915061239883612465565b9250828210156123ab576123aa6125e7565b5b828203905092915050565b60006123c182612493565b91506123cc83612493565b9250828210156123df576123de6125e7565b5b828203905092915050565b60006123f582612445565b9050919050565b600061240782612445565b9050919050565b60008115159050919050565b6000819050919050565b600081905061243282612704565b919050565b600061ffff82169050919050565b600073ffffffffffffffffffffffffffffffffffffffff82169050919050565b6000819050919050565b600063ffffffff82169050919050565b600067ffffffffffffffff82169050919050565b600060ff82169050919050565b60006124ab826124c4565b9050919050565b60006124bd82612424565b9050919050565b60006124cf826124d6565b9050919050565b60006124e182612445565b9050919050565b60006124f382612437565b9050919050565b82818337600083830152505050565b60005b8381101561252757808201518184015260208101905061250c565b83811115612536576000848401525b50505050565b612545826126f0565b810181811067ffffffffffffffff82111715612564576125636126a3565b5b80604052505050565b600061257882612465565b91507fffffffffffffffffffffffffffffffffffffffffffffffffffffffffffffffff8214156125ab576125aa6125e7565b5b600182019050919050565b60006125c182612465565b91506125cc83612465565b9250826125dc576125db612616565b5b828206905092915050565b7f4e487b7100000000000000000000000000000000000000000000000000000000600052601160045260246000fd5b7f4e487b7100000000000000000000000000000000000000000000000000000000600052601260045260246000fd5b7f4e487b7100000000000000000000000000000000000000000000000000000000600052602160045260246000fd5b7f4e487b7100000000000000000000000000000000000000000000000000000000600052603260045260246000fd5b7f4e487b7100000000000000000000000000000000000000000000000000000000600052604160045260246000fd5b600080fd5b600080fd5b600080fd5b600080fd5b600080fd5b600080fd5b6000601f19601f8301169050919050565b50565b6002811061271557612714612645565b5b50565b61272181612465565b811461272c57600080fd5b5056fea2646970667358221220135ce470e75b2929928580787784bbba4701807c91c21298850f225db82296bf64736f6c63430008070033",
  "linkReferences": {},
  "deployedLinkReferences": {}
}