{
  "contracts/Raffle.sol": {
    "Raffle": {
      "abi": [
        {
          "inputs": [
            {
              "internalType": "uint256",
              "name": "entranceFee",
              "type": "uint256"
            },
            {
              "internalType": "uint256",
              "name": "interval",
              "type": "uint256"
            },
            {
              "internalType": "address",
              "name": "vrfCoordinatorV2",
              "type": "address"
            },
            {
              "internalType": "bytes32",
              "name": "gasLane",
              "type": "bytes32"
            },
            {
              "internalType": "uint64",
              "name": "subscriptionId",
              "type": "uint64"
            },
            {
              "internalType": "uint32",
              "name": "callbackGasLimit",
              "type": "uint32"
            }
          ],
          "stateMutability": "nonpayable",
          "type": "constructor"
        },
        {
          "inputs": [
            {
              "internalType": "address",
              "name": "have",
              "type": "address"
            },
            {
              "internalType": "address",
              "name": "want",
              "type": "address"
            }
          ],
          "name": "OnlyCoordinatorCanFulfill",
          "type": "error"
        },
        {
          "inputs": [],
          "name": "Raffle__RaffleNotOpen",
          "type": "error"
        },
        {
          "inputs": [],
          "name": "Raffle__RandomTicketsNotUnique",
          "type": "error"
        },
        {
          "inputs": [],
          "name": "Raffle__SendMoreToEnterRaffle",
          "type": "error"
        },
        {
          "inputs": [],
          "name": "Raffle__TransferFailed",
          "type": "error"
        },
        {
          "inputs": [],
          "name": "Raffle__UpkeepNotNeeded",
          "type": "error"
        },
        {
          "anonymous": false,
          "inputs": [
            {
              "indexed": true,
              "internalType": "address",
              "name": "player",
              "type": "address"
            },
            {
              "indexed": true,
              "internalType": "uint256",
              "name": "tickets",
              "type": "uint256"
            }
          ],
          "name": "RaffleEnter",
          "type": "event"
        },
        {
          "anonymous": false,
          "inputs": [
            {
              "indexed": true,
              "internalType": "uint256",
              "name": "requestId",
              "type": "uint256"
            }
          ],
          "name": "RequestedRaffleWinner",
          "type": "event"
        },
        {
          "anonymous": false,
          "inputs": [
            {
              "components": [
                {
                  "internalType": "address",
                  "name": "player1",
                  "type": "address"
                },
                {
                  "internalType": "address",
                  "name": "player2",
                  "type": "address"
                },
                {
                  "internalType": "address",
                  "name": "player3",
                  "type": "address"
                },
                {
                  "internalType": "uint256",
                  "name": "prizePool",
                  "type": "uint256"
                },
                {
                  "internalType": "uint256",
                  "name": "raffleTime",
                  "type": "uint256"
                }
              ],
              "indexed": true,
              "internalType": "struct Raffle.recentWinner",
              "name": "s_recentWinner",
              "type": "tuple"
            }
          ],
          "name": "WinnerPicked",
          "type": "event"
        },
        {
          "inputs": [],
          "name": "NUM_SAVED_WINNER_ROUNDS",
          "outputs": [
            {
              "internalType": "uint8",
              "name": "",
              "type": "uint8"
            }
          ],
          "stateMutability": "view",
          "type": "function"
        },
        {
          "inputs": [],
          "name": "NUM_TICKETS",
          "outputs": [
            {
              "internalType": "uint8",
              "name": "",
              "type": "uint8"
            }
          ],
          "stateMutability": "view",
          "type": "function"
        },
        {
          "inputs": [],
          "name": "NUM_WINNERS",
          "outputs": [
            {
              "internalType": "uint8",
              "name": "",
              "type": "uint8"
            }
          ],
          "stateMutability": "view",
          "type": "function"
        },
        {
          "inputs": [],
          "name": "NUM_WORDS",
          "outputs": [
            {
              "internalType": "uint16",
              "name": "",
              "type": "uint16"
            }
          ],
          "stateMutability": "view",
          "type": "function"
        },
        {
          "inputs": [],
          "name": "REQUEST_CONFIRMATIONS",
          "outputs": [
            {
              "internalType": "uint16",
              "name": "",
              "type": "uint16"
            }
          ],
          "stateMutability": "view",
          "type": "function"
        },
        {
          "inputs": [],
          "name": "WINNER1_QUOTE",
          "outputs": [
            {
              "internalType": "uint8",
              "name": "",
              "type": "uint8"
            }
          ],
          "stateMutability": "view",
          "type": "function"
        },
        {
          "inputs": [],
          "name": "WINNER2_QUOTE",
          "outputs": [
            {
              "internalType": "uint8",
              "name": "",
              "type": "uint8"
            }
          ],
          "stateMutability": "view",
          "type": "function"
        },
        {
          "inputs": [],
          "name": "WINNER3_QUOTE",
          "outputs": [
            {
              "internalType": "uint8",
              "name": "",
              "type": "uint8"
            }
          ],
          "stateMutability": "view",
          "type": "function"
        },
        {
          "inputs": [
            {
              "internalType": "bytes",
              "name": "",
              "type": "bytes"
            }
          ],
          "name": "checkUpkeep",
          "outputs": [
            {
              "internalType": "bool",
              "name": "upkeepNeeded",
              "type": "bool"
            },
            {
              "internalType": "bytes",
              "name": "",
              "type": "bytes"
            }
          ],
          "stateMutability": "view",
          "type": "function"
        },
        {
          "inputs": [
            {
              "internalType": "uint256",
              "name": "tickets",
              "type": "uint256"
            }
          ],
          "name": "enterRaffle",
          "outputs": [],
          "stateMutability": "payable",
          "type": "function"
        },
        {
          "inputs": [],
          "name": "getBets",
          "outputs": [
            {
              "components": [
                {
                  "internalType": "address payable",
                  "name": "player",
                  "type": "address"
                },
                {
                  "internalType": "uint256",
                  "name": "tickets",
                  "type": "uint256"
                }
              ],
              "internalType": "struct Raffle.playerTicket[]",
              "name": "",
              "type": "tuple[]"
            }
          ],
          "stateMutability": "view",
          "type": "function"
        },
        {
          "inputs": [
            {
              "internalType": "uint256[3]",
              "name": "randomWords",
              "type": "uint256[3]"
            }
          ],
          "name": "getRandomTickets",
          "outputs": [
            {
              "internalType": "uint256[3]",
              "name": "randTickets",
              "type": "uint256[3]"
            }
          ],
          "stateMutability": "view",
          "type": "function"
        },
        {
          "inputs": [],
          "name": "i_callbackGasLimit",
          "outputs": [
            {
              "internalType": "uint32",
              "name": "",
              "type": "uint32"
            }
          ],
          "stateMutability": "view",
          "type": "function"
        },
        {
          "inputs": [],
          "name": "i_entranceFee",
          "outputs": [
            {
              "internalType": "uint256",
              "name": "",
              "type": "uint256"
            }
          ],
          "stateMutability": "view",
          "type": "function"
        },
        {
          "inputs": [],
          "name": "i_gasLane",
          "outputs": [
            {
              "internalType": "bytes32",
              "name": "",
              "type": "bytes32"
            }
          ],
          "stateMutability": "view",
          "type": "function"
        },
        {
          "inputs": [],
          "name": "i_interval",
          "outputs": [
            {
              "internalType": "uint256",
              "name": "",
              "type": "uint256"
            }
          ],
          "stateMutability": "view",
          "type": "function"
        },
        {
          "inputs": [],
          "name": "i_subscriptionId",
          "outputs": [
            {
              "internalType": "uint64",
              "name": "",
              "type": "uint64"
            }
          ],
          "stateMutability": "view",
          "type": "function"
        },
        {
          "inputs": [],
          "name": "i_vrfCoordinator",
          "outputs": [
            {
              "internalType": "contract VRFCoordinatorV2Interface",
              "name": "",
              "type": "address"
            }
          ],
          "stateMutability": "view",
          "type": "function"
        },
        {
          "inputs": [],
          "name": "numPlayers",
          "outputs": [
            {
              "internalType": "uint256",
              "name": "totPlayers",
              "type": "uint256"
            }
          ],
          "stateMutability": "view",
          "type": "function"
        },
        {
          "inputs": [
            {
              "internalType": "bytes",
              "name": "",
              "type": "bytes"
            }
          ],
          "name": "performUpkeep",
          "outputs": [],
          "stateMutability": "nonpayable",
          "type": "function"
        },
        {
          "inputs": [
            {
              "internalType": "uint256",
              "name": "requestId",
              "type": "uint256"
            },
            {
              "internalType": "uint256[]",
              "name": "randomWords",
              "type": "uint256[]"
            }
          ],
          "name": "rawFulfillRandomWords",
          "outputs": [],
          "stateMutability": "nonpayable",
          "type": "function"
        },
        {
          "inputs": [
            {
              "internalType": "uint256",
              "name": "",
              "type": "uint256"
            }
          ],
          "name": "s_bets",
          "outputs": [
            {
              "internalType": "address payable",
              "name": "player",
              "type": "address"
            },
            {
              "internalType": "uint256",
              "name": "tickets",
              "type": "uint256"
            }
          ],
          "stateMutability": "view",
          "type": "function"
        },
        {
          "inputs": [],
          "name": "s_lastTimeStamp",
          "outputs": [
            {
              "internalType": "uint256",
              "name": "",
              "type": "uint256"
            }
          ],
          "stateMutability": "view",
          "type": "function"
        },
        {
          "inputs": [],
          "name": "s_prizePool",
          "outputs": [
            {
              "internalType": "uint256",
              "name": "",
              "type": "uint256"
            }
          ],
          "stateMutability": "view",
          "type": "function"
        },
        {
          "inputs": [],
          "name": "s_raffleState",
          "outputs": [
            {
              "internalType": "enum Raffle.RaffleState",
              "name": "",
              "type": "uint8"
            }
          ],
          "stateMutability": "view",
          "type": "function"
        },
        {
          "inputs": [],
          "name": "s_raffle_round",
          "outputs": [
            {
              "internalType": "uint256",
              "name": "",
              "type": "uint256"
            }
          ],
          "stateMutability": "view",
          "type": "function"
        },
        {
          "inputs": [
            {
              "internalType": "uint256",
              "name": "",
              "type": "uint256"
            }
          ],
          "name": "s_recentWinners",
          "outputs": [
            {
              "internalType": "address",
              "name": "player1",
              "type": "address"
            },
            {
              "internalType": "address",
              "name": "player2",
              "type": "address"
            },
            {
              "internalType": "address",
              "name": "player3",
              "type": "address"
            },
            {
              "internalType": "uint256",
              "name": "prizePool",
              "type": "uint256"
            },
            {
              "internalType": "uint256",
              "name": "raffleTime",
              "type": "uint256"
            }
          ],
          "stateMutability": "view",
          "type": "function"
        },
        {
          "inputs": [],
          "name": "s_recentWinnersIdx",
          "outputs": [
            {
              "internalType": "uint8",
              "name": "",
              "type": "uint8"
            }
          ],
          "stateMutability": "view",
          "type": "function"
        }
      ],
      "devdoc": {
        "kind": "dev",
        "methods": {},
        "version": 1
      },
      "evm": {
        "bytecode": {
          "linkReferences": {},
          "object": "6101006040526001603a553480156200001757600080fd5b5060405162002ae438038062002ae483398181016040528101906200003d919062000194565b838073ffffffffffffffffffffffffffffffffffffffff1660808173ffffffffffffffffffffffffffffffffffffffff1660601b81525050508560a081815250508460c08181525050426003819055508373ffffffffffffffffffffffffffffffffffffffff1660e08173ffffffffffffffffffffffffffffffffffffffff1660601b815250508260048190555081600560006101000a81548167ffffffffffffffff021916908367ffffffffffffffff16021790555080600560086101000a81548163ffffffff021916908363ffffffff16021790555050505050505062000323565b6000815190506200013281620002a1565b92915050565b6000815190506200014981620002bb565b92915050565b6000815190506200016081620002d5565b92915050565b6000815190506200017781620002ef565b92915050565b6000815190506200018e8162000309565b92915050565b60008060008060008060c08789031215620001b457620001b36200029c565b5b6000620001c489828a016200014f565b9650506020620001d789828a016200014f565b9550506040620001ea89828a0162000121565b9450506060620001fd89828a0162000138565b93505060806200021089828a016200017d565b92505060a06200022389828a0162000166565b9150509295509295509295565b60006200023d826200024e565b9050919050565b6000819050919050565b600073ffffffffffffffffffffffffffffffffffffffff82169050919050565b6000819050919050565b600063ffffffff82169050919050565b600067ffffffffffffffff82169050919050565b600080fd5b620002ac8162000230565b8114620002b857600080fd5b50565b620002c68162000244565b8114620002d257600080fd5b50565b620002e0816200026e565b8114620002ec57600080fd5b50565b620002fa8162000278565b81146200030657600080fd5b50565b620003148162000288565b81146200032057600080fd5b50565b60805160601c60a05160c05160e05160601c6127656200037f600039600081816109470152610e8f015260008181610a7a0152610ae40152600081816107860152610b900152600081816106b2015261070601526127656000f3fe6080604052600436106101b75760003560e01c806392c65528116100ec578063cad0338c1161008a578063d4882fed11610064578063d4882fed146105ec578063d757d02714610617578063e26befe614610642578063e5edd0081461066d576101b7565b8063cad0338c1461056b578063cc45483f14610596578063d47e690a146105c1576101b7565b8063a6afd5fd116100c6578063a6afd5fd146104a9578063adbd1dd7146104d4578063aebc455014610515578063b9c9214014610540576101b7565b806392c655281461041657806397b2f55614610441578063a69159971461046c576101b7565b806367f082b0116101595780636e04ff0d116101335780636e04ff0d1461035757806372cf6e34146103955780637ea3e6c1146103c05780638e879c8a146103eb576101b7565b806367f082b0146102d65780636919207d146103015780636b19d9ed1461032c576101b7565b80632e519f90116101955780632e519f901461023b57806334854043146102575780634585e33b14610282578063470cdf97146102ab576101b7565b80630dc98972146101bc5780631fe543e3146101e7578063247bfabd14610210575b600080fd5b3480156101c857600080fd5b506101d16106ab565b6040516101de9190612182565b60405180910390f35b3480156101f357600080fd5b5061020e60048036038101906102099190611be1565b6106b0565b005b34801561021c57600080fd5b50610225610770565b6040516102329190612182565b60405180910390f35b61025560048036038101906102509190611b87565b610783565b005b34801561026357600080fd5b5061026c6108bf565b6040516102799190612131565b60405180910390f35b34801561028e57600080fd5b506102a960048036038101906102a49190611af1565b6108c5565b005b3480156102b757600080fd5b506102c0610a59565b6040516102cd9190612167565b60405180910390f35b3480156102e257600080fd5b506102eb610a73565b6040516102f89190612116565b60405180910390f35b34801561030d57600080fd5b50610316610a78565b6040516103239190612131565b60405180910390f35b34801561033857600080fd5b50610341610a9c565b60405161034e9190612182565b60405180910390f35b34801561036357600080fd5b5061037e60048036038101906103799190611b3e565b610aa1565b60405161038c929190612042565b60405180910390f35b3480156103a157600080fd5b506103aa610b89565b6040516103b79190612116565b60405180910390f35b3480156103cc57600080fd5b506103d5610b8e565b6040516103e29190612131565b60405180910390f35b3480156103f757600080fd5b50610400610bb2565b60405161040d9190612072565b60405180910390f35b34801561042257600080fd5b5061042b610bb8565b6040516104389190612182565b60405180910390f35b34801561044d57600080fd5b50610456610bbd565b6040516104639190612131565b60405180910390f35b34801561047857600080fd5b50610493600480360381019061048e9190611ac4565b610bc9565b6040516104a09190612027565b60405180910390f35b3480156104b557600080fd5b506104be610d32565b6040516104cb9190612005565b60405180910390f35b3480156104e057600080fd5b506104fb60048036038101906104f69190611b87565b610df1565b60405161050c959493929190611fb2565b60405180910390f35b34801561052157600080fd5b5061052a610e8d565b60405161053791906120e0565b60405180910390f35b34801561054c57600080fd5b50610555610eb1565b6040516105629190612182565b60405180910390f35b34801561057757600080fd5b50610580610eb6565b60405161058d9190612182565b60405180910390f35b3480156105a257600080fd5b506105ab610ebb565b6040516105b891906120fb565b60405180910390f35b3480156105cd57600080fd5b506105d6610ece565b6040516105e39190612131565b60405180910390f35b3480156105f857600080fd5b50610601610ed4565b60405161060e9190612182565b60405180910390f35b34801561062357600080fd5b5061062c610ed9565b604051610639919061214c565b60405180910390f35b34801561064e57600080fd5b50610657610eef565b6040516106649190612131565b60405180910390f35b34801561067957600080fd5b50610694600480360381019061068f9190611b87565b610ef5565b6040516106a2929190611f60565b60405180910390f35b600581565b7f000000000000000000000000000000000000000000000000000000000000000073ffffffffffffffffffffffffffffffffffffffff163373ffffffffffffffffffffffffffffffffffffffff161461076257337f00000000000000000000000000000000000000000000000000000000000000006040517f1cf993f4000000000000000000000000000000000000000000000000000000008152600401610759929190611f89565b60405180910390fd5b61076c8282610f49565b5050565b603960009054906101000a900460ff1681565b807f00000000000000000000000000000000000000000000000000000000000000006107af9190612328565b3410156107e8576040517f3038c00a00000000000000000000000000000000000000000000000000000000815260040160405180910390fd5b600060018111156107fc576107fb612645565b5b600160009054906101000a900460ff16600181111561081e5761081d612645565b5b14610855576040517fd24a271400000000000000000000000000000000000000000000000000000000815260040160405180910390fd5b61085f3382611266565b346006600082825461087191906122d2565b92505081905550803373ffffffffffffffffffffffffffffffffffffffff167fed20d2ab01271e5ab09835d58aec6ad1931db157b05b700c95c1e625b81c860060405160405180910390a350565b60035481565b60006108df60405180602001604052806000815250610aa1565b50905080610919576040517f8e4bc81700000000000000000000000000000000000000000000000000000000815260040160405180910390fd5b60018060006101000a81548160ff0219169083600181111561093e5761093d612645565b5b021790555060007f000000000000000000000000000000000000000000000000000000000000000073ffffffffffffffffffffffffffffffffffffffff16635d3b1d30600454600560009054906101000a900467ffffffffffffffff166003600560089054906101000a900463ffffffff1660036040518663ffffffff1660e01b81526004016109d295949392919061208d565b602060405180830381600087803b1580156109ec57600080fd5b505af1158015610a00573d6000803e3d6000fd5b505050506040513d601f19601f82011682018060405250810190610a249190611bb4565b9050807fcd6e45c8998311cab7e9d4385596cac867e20a0587194b954fa3a731c93ce78b60405160405180910390a250505050565b600560009054906101000a900467ffffffffffffffff1681565b600381565b7f000000000000000000000000000000000000000000000000000000000000000081565b600f81565b600060606000600160009054906101000a900460ff166001811115610ac957610ac8612645565b5b60006001811115610add57610adc612645565b5b14905060007f000000000000000000000000000000000000000000000000000000000000000060035442610b119190612382565b11905060008047119050600080600080549050119050828015610b315750835b8015610b3a5750815b8015610b435750805b9550856040518060400160405280600381526020017f30783000000000000000000000000000000000000000000000000000000000008152509550955050505050915091565b600381565b7f000000000000000000000000000000000000000000000000000000000000000081565b60045481565b605081565b60008080549050905090565b610bd1611830565b6000600190506000603b5484600060038110610bf057610bef612674565b5b6020020151610bff91906125b6565b83600060038110610c1357610c12612674565b5b6020020181815250506000600190505b600361ffff16811015610cec57603b54858260038110610c4657610c45612674565b5b6020020151610c5591906125b6565b91508184600060038110610c6c57610c6b612674565b5b602002015114158015610c9757508184600160038110610c8f57610c8e612674565b5b602002015114155b15610cc85781848460038110610cb057610caf612674565b5b6020020181815250508280610cc49061256d565b9350505b600360ff16831415610cd957610cec565b8080610ce49061256d565b915050610c23565b50600360ff16821015610d2b576040517ff5a4bb2b00000000000000000000000000000000000000000000000000000000815260040160405180910390fd5b5050919050565b60606000805480602002602001604051908101604052809291908181526020016000905b82821015610de857838290600052602060002090600202016040518060400160405290816000820160009054906101000a900473ffffffffffffffffffffffffffffffffffffffff1673ffffffffffffffffffffffffffffffffffffffff1673ffffffffffffffffffffffffffffffffffffffff16815260200160018201548152505081526020019060010190610d56565b50505050905090565b600781600a8110610e0157600080fd5b600502016000915090508060000160009054906101000a900473ffffffffffffffffffffffffffffffffffffffff16908060010160009054906101000a900473ffffffffffffffffffffffffffffffffffffffff16908060020160009054906101000a900473ffffffffffffffffffffffffffffffffffffffff16908060030154908060040154905085565b7f000000000000000000000000000000000000000000000000000000000000000081565b600381565b600381565b600160009054906101000a900460ff1681565b60065481565b600a81565b600560089054906101000a900463ffffffff1681565b603a5481565b60008181548110610f0557600080fd5b90600052602060002090600202016000915090508060000160009054906101000a900473ffffffffffffffffffffffffffffffffffffffff16908060010154905082565b610f51611830565b60005b600361ffff16811015610fab57828181518110610f7457610f73612674565b5b6020026020010151828260038110610f8f57610f8e612674565b5b6020020181815250508080610fa39061256d565b915050610f54565b506000610fb782610bc9565b90506000610fc482611414565b905060006040518060600160405280605060ff1660ff168152602001600560ff1660ff168152602001600f60ff1660ff16815250905060005b600360ff1681101561110457600083826003811061101e5761101d612674565b5b6020020151905060008173ffffffffffffffffffffffffffffffffffffffff1684846003811061105157611050612674565b5b602002015160ff166006546110669190612328565b60405161107290611f30565b60006040518083038185875af1925050503d80600081146110af576040519150601f19603f3d011682016040523d82523d6000602084013e6110b4565b606091505b50509050806110ef576040517fa1d04b3900000000000000000000000000000000000000000000000000000000815260040160405180910390fd5b505080806110fc9061256d565b915050610ffd565b504260038190555061111b826006546003546115e7565b6001603a600082825461112e91906122d2565b9250508190555060006006819055506000600160006101000a81548160ff0219169083600181111561116357611162612645565b5b02179055506040518060a001604052808360006003811061118757611186612674565b5b602002015173ffffffffffffffffffffffffffffffffffffffff168152602001836001600381106111bb576111ba612674565b5b602002015173ffffffffffffffffffffffffffffffffffffffff168152602001836002600381106111ef576111ee612674565b5b602002015173ffffffffffffffffffffffffffffffffffffffff168152602001600654815260200160035481525060405161122a9190611f45565b60405180910390207f603db4286c2c3e388925eccb2679b9983458118c213ac5f0f227c1562b1c105b60405160405180910390a2505050505050565b60005b600080549050811015611344578273ffffffffffffffffffffffffffffffffffffffff16600082815481106112a1576112a0612674565b5b906000526020600020906002020160000160009054906101000a900473ffffffffffffffffffffffffffffffffffffffff1673ffffffffffffffffffffffffffffffffffffffff16141561133157816000828154811061130457611303612674565b5b9060005260206000209060020201600101600082825461132491906122d2565b9250508190555050611410565b808061133c9061256d565b915050611269565b5061134d611852565b82816000019073ffffffffffffffffffffffffffffffffffffffff16908173ffffffffffffffffffffffffffffffffffffffff168152505081816020018181525050600081908060018154018082558091505060019003906000526020600020906002020160009091909190915060008201518160000160006101000a81548173ffffffffffffffffffffffffffffffffffffffff021916908373ffffffffffffffffffffffffffffffffffffffff160217905550602082015181600101555050505b5050565b61141c611882565b60006001905060008080600090505b6000805490508110156115de5760005b600360ff1681101561158c578487826003811061145b5761145a612674565b5b6020020151101580156114b457506000828154811061147d5761147c612674565b5b9060005260206000209060020201600101548561149a91906122d2565b8782600381106114ad576114ac612674565b5b6020020151105b1561157957600082815481106114cd576114cc612674565b5b906000526020600020906002020160000160009054906101000a900473ffffffffffffffffffffffffffffffffffffffff1686826003811061151257611511612674565b5b602002019073ffffffffffffffffffffffffffffffffffffffff16908173ffffffffffffffffffffffffffffffffffffffff168152505083806115549061256d565b9450506001600361156591906123b6565b60ff16841115611578576001925061158c565b5b80806115849061256d565b91505061143b565b508115611598576115de565b600081815481106115ac576115ab612674565b5b906000526020600020906002020160010154846115c991906122d2565b935080806115d69061256d565b91505061142b565b50505050919050565b6000603960009054906101000a900460ff1660ff1614611622576001603960009054906101000a900460ff1661161d91906123b6565b61164a565b6001600a61163091906123b6565b603960006101000a81548160ff021916908360ff16021790555b603960006101000a81548160ff021916908360ff1602179055506040518060a001604052808460006003811061168357611682612674565b5b602002015173ffffffffffffffffffffffffffffffffffffffff168152602001846001600381106116b7576116b6612674565b5b602002015173ffffffffffffffffffffffffffffffffffffffff168152602001846002600381106116eb576116ea612674565b5b602002015173ffffffffffffffffffffffffffffffffffffffff168152602001838152602001828152506007603960009054906101000a900460ff1660ff16600a811061173b5761173a612674565b5b6005020160008201518160000160006101000a81548173ffffffffffffffffffffffffffffffffffffffff021916908373ffffffffffffffffffffffffffffffffffffffff16021790555060208201518160010160006101000a81548173ffffffffffffffffffffffffffffffffffffffff021916908373ffffffffffffffffffffffffffffffffffffffff16021790555060408201518160020160006101000a81548173ffffffffffffffffffffffffffffffffffffffff021916908373ffffffffffffffffffffffffffffffffffffffff1602179055506060820151816003015560808201518160040155905050505050565b6040518060600160405280600390602082028036833780820191505090505090565b6040518060400160405280600073ffffffffffffffffffffffffffffffffffffffff168152602001600081525090565b6040518060600160405280600390602082028036833780820191505090505090565b60006118b76118b2846121c2565b61219d565b905080828560208602820111156118d1576118d06126dc565b5b60005b8581101561190157816118e78882611a9a565b8452602084019350602083019250506001810190506118d4565b5050509392505050565b600061191e611919846121e8565b61219d565b90508083825260208201905082856020860282011115611941576119406126dc565b5b60005b8581101561197157816119578882611a9a565b845260208401935060208301925050600181019050611944565b5050509392505050565b600061198e61198984612214565b61219d565b9050828152602081018484840111156119aa576119a96126e1565b5b6119b58482856124fa565b509392505050565b600082601f8301126119d2576119d16126d7565b5b60036119df8482856118a4565b91505092915050565b600082601f8301126119fd576119fc6126d7565b5b8135611a0d84826020860161190b565b91505092915050565b60008083601f840112611a2c57611a2b6126d7565b5b8235905067ffffffffffffffff811115611a4957611a486126d2565b5b602083019150836001820283011115611a6557611a646126dc565b5b9250929050565b600082601f830112611a8157611a806126d7565b5b8135611a9184826020860161197b565b91505092915050565b600081359050611aa981612718565b92915050565b600081519050611abe81612718565b92915050565b600060608284031215611ada57611ad96126eb565b5b6000611ae8848285016119bd565b91505092915050565b60008060208385031215611b0857611b076126eb565b5b600083013567ffffffffffffffff811115611b2657611b256126e6565b5b611b3285828601611a16565b92509250509250929050565b600060208284031215611b5457611b536126eb565b5b600082013567ffffffffffffffff811115611b7257611b716126e6565b5b611b7e84828501611a6c565b91505092915050565b600060208284031215611b9d57611b9c6126eb565b5b6000611bab84828501611a9a565b91505092915050565b600060208284031215611bca57611bc96126eb565b5b6000611bd884828501611aaf565b91505092915050565b60008060408385031215611bf857611bf76126eb565b5b6000611c0685828601611a9a565b925050602083013567ffffffffffffffff811115611c2757611c266126e6565b5b611c33858286016119e8565b9150509250929050565b6000611c498383611cca565b60208301905092915050565b6000611c618383611e26565b60408301905092915050565b6000611c798383611ed6565b60208301905092915050565b6000611c918383611ef4565b60208301905092915050565b611ca6816123fc565b82525050565b611cb5816123fc565b82525050565b611cc4816123ea565b82525050565b611cd3816123ea565b82525050565b6000611ce48261225f565b611cee818561229a565b9350611cf983612245565b8060005b83811015611d2a578151611d118882611c55565b9750611d1c83612280565b925050600181019050611cfd565b5085935050505092915050565b611d408161226a565b611d4a81846122ab565b9250611d5582612255565b8060005b83811015611d86578151611d6d8782611c6d565b9650611d788361228d565b925050600181019050611d59565b505050505050565b611d978161240e565b82525050565b611da68161241a565b82525050565b6000611db782612275565b611dc181856122b6565b9350611dd1818560208601612509565b611dda816126f0565b840191505092915050565b611dee816124a0565b82525050565b611dfd816124b2565b82525050565b6000611e106000836122c7565b9150611e1b82612701565b600082019050919050565b604082016000820151611e3c6000850182611c9d565b506020820151611e4f6020850182611ed6565b50505050565b600082016000820151611e688482611c3d565b9350506020820151611e7a8482611c3d565b9350506040820151611e8c8482611c3d565b9350506060820151611e9e8482611c85565b9350506080820151611eb08482611c85565b935050505050565b611ec181612437565b82525050565b611ed0816124e8565b82525050565b611edf81612465565b82525050565b611eee81612465565b82525050565b611efd81612465565b82525050565b611f0c8161246f565b82525050565b611f1b8161247f565b82525050565b611f2a81612493565b82525050565b6000611f3b82611e03565b9150819050919050565b6000611f518284611e55565b60a08201915081905092915050565b6000604082019050611f756000830185611cac565b611f826020830184611ee5565b9392505050565b6000604082019050611f9e6000830185611cbb565b611fab6020830184611cbb565b9392505050565b600060a082019050611fc76000830188611cbb565b611fd46020830187611cbb565b611fe16040830186611cbb565b611fee6060830185611ee5565b611ffb6080830184611ee5565b9695505050505050565b6000602082019050818103600083015261201f8184611cd9565b905092915050565b600060608201905061203c6000830184611d37565b92915050565b60006040820190506120576000830185611d8e565b81810360208301526120698184611dac565b90509392505050565b60006020820190506120876000830184611d9d565b92915050565b600060a0820190506120a26000830188611d9d565b6120af6020830187611f12565b6120bc6040830186611eb8565b6120c96060830185611f03565b6120d66080830184611ec7565b9695505050505050565b60006020820190506120f56000830184611de5565b92915050565b60006020820190506121106000830184611df4565b92915050565b600060208201905061212b6000830184611eb8565b92915050565b60006020820190506121466000830184611ee5565b92915050565b60006020820190506121616000830184611f03565b92915050565b600060208201905061217c6000830184611f12565b92915050565b60006020820190506121976000830184611f21565b92915050565b60006121a76121b8565b90506121b3828261253c565b919050565b6000604051905090565b600067ffffffffffffffff8211156121dd576121dc6126a3565b5b602082029050919050565b600067ffffffffffffffff821115612203576122026126a3565b5b602082029050602081019050919050565b600067ffffffffffffffff82111561222f5761222e6126a3565b5b612238826126f0565b9050602081019050919050565b6000819050602082019050919050565b6000819050919050565b600081519050919050565b600060039050919050565b600081519050919050565b6000602082019050919050565b6000602082019050919050565b600082825260208201905092915050565b600081905092915050565b600082825260208201905092915050565b600081905092915050565b60006122dd82612465565b91506122e883612465565b9250827fffffffffffffffffffffffffffffffffffffffffffffffffffffffffffffffff0382111561231d5761231c6125e7565b5b828201905092915050565b600061233382612465565b915061233e83612465565b9250817fffffffffffffffffffffffffffffffffffffffffffffffffffffffffffffffff0483118215151615612377576123766125e7565b5b828202905092915050565b600061238d82612465565b915061239883612465565b9250828210156123ab576123aa6125e7565b5b828203905092915050565b60006123c182612493565b91506123cc83612493565b9250828210156123df576123de6125e7565b5b828203905092915050565b60006123f582612445565b9050919050565b600061240782612445565b9050919050565b60008115159050919050565b6000819050919050565b600081905061243282612704565b919050565b600061ffff82169050919050565b600073ffffffffffffffffffffffffffffffffffffffff82169050919050565b6000819050919050565b600063ffffffff82169050919050565b600067ffffffffffffffff82169050919050565b600060ff82169050919050565b60006124ab826124c4565b9050919050565b60006124bd82612424565b9050919050565b60006124cf826124d6565b9050919050565b60006124e182612445565b9050919050565b60006124f382612437565b9050919050565b82818337600083830152505050565b60005b8381101561252757808201518184015260208101905061250c565b83811115612536576000848401525b50505050565b612545826126f0565b810181811067ffffffffffffffff82111715612564576125636126a3565b5b80604052505050565b600061257882612465565b91507fffffffffffffffffffffffffffffffffffffffffffffffffffffffffffffffff8214156125ab576125aa6125e7565b5b600182019050919050565b60006125c182612465565b91506125cc83612465565b9250826125dc576125db612616565b5b828206905092915050565b7f4e487b7100000000000000000000000000000000000000000000000000000000600052601160045260246000fd5b7f4e487b7100000000000000000000000000000000000000000000000000000000600052601260045260246000fd5b7f4e487b7100000000000000000000000000000000000000000000000000000000600052602160045260246000fd5b7f4e487b7100000000000000000000000000000000000000000000000000000000600052603260045260246000fd5b7f4e487b7100000000000000000000000000000000000000000000000000000000600052604160045260246000fd5b600080fd5b600080fd5b600080fd5b600080fd5b600080fd5b600080fd5b6000601f19601f8301169050919050565b50565b6002811061271557612714612645565b5b50565b61272181612465565b811461272c57600080fd5b5056fea2646970667358221220135ce470e75b2929928580787784bbba4701807c91c21298850f225db82296bf64736f6c63430008070033",
          "opcodes": "PUSH2 0x100 PUSH1 0x40 MSTORE PUSH1 0x1 PUSH1 0x3A SSTORE CALLVALUE DUP1 ISZERO PUSH3 0x17 JUMPI PUSH1 0x0 DUP1 REVERT JUMPDEST POP PUSH1 0x40 MLOAD PUSH3 0x2AE4 CODESIZE SUB DUP1 PUSH3 0x2AE4 DUP4 CODECOPY DUP2 DUP2 ADD PUSH1 0x40 MSTORE DUP2 ADD SWAP1 PUSH3 0x3D SWAP2 SWAP1 PUSH3 0x194 JUMP JUMPDEST DUP4 DUP1 PUSH20 0xFFFFFFFFFFFFFFFFFFFFFFFFFFFFFFFFFFFFFFFF AND PUSH1 0x80 DUP2 PUSH20 0xFFFFFFFFFFFFFFFFFFFFFFFFFFFFFFFFFFFFFFFF AND PUSH1 0x60 SHL DUP2 MSTORE POP POP POP DUP6 PUSH1 0xA0 DUP2 DUP2 MSTORE POP POP DUP5 PUSH1 0xC0 DUP2 DUP2 MSTORE POP POP TIMESTAMP PUSH1 0x3 DUP2 SWAP1 SSTORE POP DUP4 PUSH20 0xFFFFFFFFFFFFFFFFFFFFFFFFFFFFFFFFFFFFFFFF AND PUSH1 0xE0 DUP2 PUSH20 0xFFFFFFFFFFFFFFFFFFFFFFFFFFFFFFFFFFFFFFFF AND PUSH1 0x60 SHL DUP2 MSTORE POP POP DUP3 PUSH1 0x4 DUP2 SWAP1 SSTORE POP DUP2 PUSH1 0x5 PUSH1 0x0 PUSH2 0x100 EXP DUP2 SLOAD DUP2 PUSH8 0xFFFFFFFFFFFFFFFF MUL NOT AND SWAP1 DUP4 PUSH8 0xFFFFFFFFFFFFFFFF AND MUL OR SWAP1 SSTORE POP DUP1 PUSH1 0x5 PUSH1 0x8 PUSH2 0x100 EXP DUP2 SLOAD DUP2 PUSH4 0xFFFFFFFF MUL NOT AND SWAP1 DUP4 PUSH4 0xFFFFFFFF AND MUL OR SWAP1 SSTORE POP POP POP POP POP POP POP PUSH3 0x323 JUMP JUMPDEST PUSH1 0x0 DUP2 MLOAD SWAP1 POP PUSH3 0x132 DUP2 PUSH3 0x2A1 JUMP JUMPDEST SWAP3 SWAP2 POP POP JUMP JUMPDEST PUSH1 0x0 DUP2 MLOAD SWAP1 POP PUSH3 0x149 DUP2 PUSH3 0x2BB JUMP JUMPDEST SWAP3 SWAP2 POP POP JUMP JUMPDEST PUSH1 0x0 DUP2 MLOAD SWAP1 POP PUSH3 0x160 DUP2 PUSH3 0x2D5 JUMP JUMPDEST SWAP3 SWAP2 POP POP JUMP JUMPDEST PUSH1 0x0 DUP2 MLOAD SWAP1 POP PUSH3 0x177 DUP2 PUSH3 0x2EF JUMP JUMPDEST SWAP3 SWAP2 POP POP JUMP JUMPDEST PUSH1 0x0 DUP2 MLOAD SWAP1 POP PUSH3 0x18E DUP2 PUSH3 0x309 JUMP JUMPDEST SWAP3 SWAP2 POP POP JUMP JUMPDEST PUSH1 0x0 DUP1 PUSH1 0x0 DUP1 PUSH1 0x0 DUP1 PUSH1 0xC0 DUP8 DUP10 SUB SLT ISZERO PUSH3 0x1B4 JUMPI PUSH3 0x1B3 PUSH3 0x29C JUMP JUMPDEST JUMPDEST PUSH1 0x0 PUSH3 0x1C4 DUP10 DUP3 DUP11 ADD PUSH3 0x14F JUMP JUMPDEST SWAP7 POP POP PUSH1 0x20 PUSH3 0x1D7 DUP10 DUP3 DUP11 ADD PUSH3 0x14F JUMP JUMPDEST SWAP6 POP POP PUSH1 0x40 PUSH3 0x1EA DUP10 DUP3 DUP11 ADD PUSH3 0x121 JUMP JUMPDEST SWAP5 POP POP PUSH1 0x60 PUSH3 0x1FD DUP10 DUP3 DUP11 ADD PUSH3 0x138 JUMP JUMPDEST SWAP4 POP POP PUSH1 0x80 PUSH3 0x210 DUP10 DUP3 DUP11 ADD PUSH3 0x17D JUMP JUMPDEST SWAP3 POP POP PUSH1 0xA0 PUSH3 0x223 DUP10 DUP3 DUP11 ADD PUSH3 0x166 JUMP JUMPDEST SWAP2 POP POP SWAP3 SWAP6 POP SWAP3 SWAP6 POP SWAP3 SWAP6 JUMP JUMPDEST PUSH1 0x0 PUSH3 0x23D DUP3 PUSH3 0x24E JUMP JUMPDEST SWAP1 POP SWAP2 SWAP1 POP JUMP JUMPDEST PUSH1 0x0 DUP2 SWAP1 POP SWAP2 SWAP1 POP JUMP JUMPDEST PUSH1 0x0 PUSH20 0xFFFFFFFFFFFFFFFFFFFFFFFFFFFFFFFFFFFFFFFF DUP3 AND SWAP1 POP SWAP2 SWAP1 POP JUMP JUMPDEST PUSH1 0x0 DUP2 SWAP1 POP SWAP2 SWAP1 POP JUMP JUMPDEST PUSH1 0x0 PUSH4 0xFFFFFFFF DUP3 AND SWAP1 POP SWAP2 SWAP1 POP JUMP JUMPDEST PUSH1 0x0 PUSH8 0xFFFFFFFFFFFFFFFF DUP3 AND SWAP1 POP SWAP2 SWAP1 POP JUMP JUMPDEST PUSH1 0x0 DUP1 REVERT JUMPDEST PUSH3 0x2AC DUP2 PUSH3 0x230 JUMP JUMPDEST DUP2 EQ PUSH3 0x2B8 JUMPI PUSH1 0x0 DUP1 REVERT JUMPDEST POP JUMP JUMPDEST PUSH3 0x2C6 DUP2 PUSH3 0x244 JUMP JUMPDEST DUP2 EQ PUSH3 0x2D2 JUMPI PUSH1 0x0 DUP1 REVERT JUMPDEST POP JUMP JUMPDEST PUSH3 0x2E0 DUP2 PUSH3 0x26E JUMP JUMPDEST DUP2 EQ PUSH3 0x2EC JUMPI PUSH1 0x0 DUP1 REVERT JUMPDEST POP JUMP JUMPDEST PUSH3 0x2FA DUP2 PUSH3 0x278 JUMP JUMPDEST DUP2 EQ PUSH3 0x306 JUMPI PUSH1 0x0 DUP1 REVERT JUMPDEST POP JUMP JUMPDEST PUSH3 0x314 DUP2 PUSH3 0x288 JUMP JUMPDEST DUP2 EQ PUSH3 0x320 JUMPI PUSH1 0x0 DUP1 REVERT JUMPDEST POP JUMP JUMPDEST PUSH1 0x80 MLOAD PUSH1 0x60 SHR PUSH1 0xA0 MLOAD PUSH1 0xC0 MLOAD PUSH1 0xE0 MLOAD PUSH1 0x60 SHR PUSH2 0x2765 PUSH3 0x37F PUSH1 0x0 CODECOPY PUSH1 0x0 DUP2 DUP2 PUSH2 0x947 ADD MSTORE PUSH2 0xE8F ADD MSTORE PUSH1 0x0 DUP2 DUP2 PUSH2 0xA7A ADD MSTORE PUSH2 0xAE4 ADD MSTORE PUSH1 0x0 DUP2 DUP2 PUSH2 0x786 ADD MSTORE PUSH2 0xB90 ADD MSTORE PUSH1 0x0 DUP2 DUP2 PUSH2 0x6B2 ADD MSTORE PUSH2 0x706 ADD MSTORE PUSH2 0x2765 PUSH1 0x0 RETURN INVALID PUSH1 0x80 PUSH1 0x40 MSTORE PUSH1 0x4 CALLDATASIZE LT PUSH2 0x1B7 JUMPI PUSH1 0x0 CALLDATALOAD PUSH1 0xE0 SHR DUP1 PUSH4 0x92C65528 GT PUSH2 0xEC JUMPI DUP1 PUSH4 0xCAD0338C GT PUSH2 0x8A JUMPI DUP1 PUSH4 0xD4882FED GT PUSH2 0x64 JUMPI DUP1 PUSH4 0xD4882FED EQ PUSH2 0x5EC JUMPI DUP1 PUSH4 0xD757D027 EQ PUSH2 0x617 JUMPI DUP1 PUSH4 0xE26BEFE6 EQ PUSH2 0x642 JUMPI DUP1 PUSH4 0xE5EDD008 EQ PUSH2 0x66D JUMPI PUSH2 0x1B7 JUMP JUMPDEST DUP1 PUSH4 0xCAD0338C EQ PUSH2 0x56B JUMPI DUP1 PUSH4 0xCC45483F EQ PUSH2 0x596 JUMPI DUP1 PUSH4 0xD47E690A EQ PUSH2 0x5C1 JUMPI PUSH2 0x1B7 JUMP JUMPDEST DUP1 PUSH4 0xA6AFD5FD GT PUSH2 0xC6 JUMPI DUP1 PUSH4 0xA6AFD5FD EQ PUSH2 0x4A9 JUMPI DUP1 PUSH4 0xADBD1DD7 EQ PUSH2 0x4D4 JUMPI DUP1 PUSH4 0xAEBC4550 EQ PUSH2 0x515 JUMPI DUP1 PUSH4 0xB9C92140 EQ PUSH2 0x540 JUMPI PUSH2 0x1B7 JUMP JUMPDEST DUP1 PUSH4 0x92C65528 EQ PUSH2 0x416 JUMPI DUP1 PUSH4 0x97B2F556 EQ PUSH2 0x441 JUMPI DUP1 PUSH4 0xA6915997 EQ PUSH2 0x46C JUMPI PUSH2 0x1B7 JUMP JUMPDEST DUP1 PUSH4 0x67F082B0 GT PUSH2 0x159 JUMPI DUP1 PUSH4 0x6E04FF0D GT PUSH2 0x133 JUMPI DUP1 PUSH4 0x6E04FF0D EQ PUSH2 0x357 JUMPI DUP1 PUSH4 0x72CF6E34 EQ PUSH2 0x395 JUMPI DUP1 PUSH4 0x7EA3E6C1 EQ PUSH2 0x3C0 JUMPI DUP1 PUSH4 0x8E879C8A EQ PUSH2 0x3EB JUMPI PUSH2 0x1B7 JUMP JUMPDEST DUP1 PUSH4 0x67F082B0 EQ PUSH2 0x2D6 JUMPI DUP1 PUSH4 0x6919207D EQ PUSH2 0x301 JUMPI DUP1 PUSH4 0x6B19D9ED EQ PUSH2 0x32C JUMPI PUSH2 0x1B7 JUMP JUMPDEST DUP1 PUSH4 0x2E519F90 GT PUSH2 0x195 JUMPI DUP1 PUSH4 0x2E519F90 EQ PUSH2 0x23B JUMPI DUP1 PUSH4 0x34854043 EQ PUSH2 0x257 JUMPI DUP1 PUSH4 0x4585E33B EQ PUSH2 0x282 JUMPI DUP1 PUSH4 0x470CDF97 EQ PUSH2 0x2AB JUMPI PUSH2 0x1B7 JUMP JUMPDEST DUP1 PUSH4 0xDC98972 EQ PUSH2 0x1BC JUMPI DUP1 PUSH4 0x1FE543E3 EQ PUSH2 0x1E7 JUMPI DUP1 PUSH4 0x247BFABD EQ PUSH2 0x210 JUMPI JUMPDEST PUSH1 0x0 DUP1 REVERT JUMPDEST CALLVALUE DUP1 ISZERO PUSH2 0x1C8 JUMPI PUSH1 0x0 DUP1 REVERT JUMPDEST POP PUSH2 0x1D1 PUSH2 0x6AB JUMP JUMPDEST PUSH1 0x40 MLOAD PUSH2 0x1DE SWAP2 SWAP1 PUSH2 0x2182 JUMP JUMPDEST PUSH1 0x40 MLOAD DUP1 SWAP2 SUB SWAP1 RETURN JUMPDEST CALLVALUE DUP1 ISZERO PUSH2 0x1F3 JUMPI PUSH1 0x0 DUP1 REVERT JUMPDEST POP PUSH2 0x20E PUSH1 0x4 DUP1 CALLDATASIZE SUB DUP2 ADD SWAP1 PUSH2 0x209 SWAP2 SWAP1 PUSH2 0x1BE1 JUMP JUMPDEST PUSH2 0x6B0 JUMP JUMPDEST STOP JUMPDEST CALLVALUE DUP1 ISZERO PUSH2 0x21C JUMPI PUSH1 0x0 DUP1 REVERT JUMPDEST POP PUSH2 0x225 PUSH2 0x770 JUMP JUMPDEST PUSH1 0x40 MLOAD PUSH2 0x232 SWAP2 SWAP1 PUSH2 0x2182 JUMP JUMPDEST PUSH1 0x40 MLOAD DUP1 SWAP2 SUB SWAP1 RETURN JUMPDEST PUSH2 0x255 PUSH1 0x4 DUP1 CALLDATASIZE SUB DUP2 ADD SWAP1 PUSH2 0x250 SWAP2 SWAP1 PUSH2 0x1B87 JUMP JUMPDEST PUSH2 0x783 JUMP JUMPDEST STOP JUMPDEST CALLVALUE DUP1 ISZERO PUSH2 0x263 JUMPI PUSH1 0x0 DUP1 REVERT JUMPDEST POP PUSH2 0x26C PUSH2 0x8BF JUMP JUMPDEST PUSH1 0x40 MLOAD PUSH2 0x279 SWAP2 SWAP1 PUSH2 0x2131 JUMP JUMPDEST PUSH1 0x40 MLOAD DUP1 SWAP2 SUB SWAP1 RETURN JUMPDEST CALLVALUE DUP1 ISZERO PUSH2 0x28E JUMPI PUSH1 0x0 DUP1 REVERT JUMPDEST POP PUSH2 0x2A9 PUSH1 0x4 DUP1 CALLDATASIZE SUB DUP2 ADD SWAP1 PUSH2 0x2A4 SWAP2 SWAP1 PUSH2 0x1AF1 JUMP JUMPDEST PUSH2 0x8C5 JUMP JUMPDEST STOP JUMPDEST CALLVALUE DUP1 ISZERO PUSH2 0x2B7 JUMPI PUSH1 0x0 DUP1 REVERT JUMPDEST POP PUSH2 0x2C0 PUSH2 0xA59 JUMP JUMPDEST PUSH1 0x40 MLOAD PUSH2 0x2CD SWAP2 SWAP1 PUSH2 0x2167 JUMP JUMPDEST PUSH1 0x40 MLOAD DUP1 SWAP2 SUB SWAP1 RETURN JUMPDEST CALLVALUE DUP1 ISZERO PUSH2 0x2E2 JUMPI PUSH1 0x0 DUP1 REVERT JUMPDEST POP PUSH2 0x2EB PUSH2 0xA73 JUMP JUMPDEST PUSH1 0x40 MLOAD PUSH2 0x2F8 SWAP2 SWAP1 PUSH2 0x2116 JUMP JUMPDEST PUSH1 0x40 MLOAD DUP1 SWAP2 SUB SWAP1 RETURN JUMPDEST CALLVALUE DUP1 ISZERO PUSH2 0x30D JUMPI PUSH1 0x0 DUP1 REVERT JUMPDEST POP PUSH2 0x316 PUSH2 0xA78 JUMP JUMPDEST PUSH1 0x40 MLOAD PUSH2 0x323 SWAP2 SWAP1 PUSH2 0x2131 JUMP JUMPDEST PUSH1 0x40 MLOAD DUP1 SWAP2 SUB SWAP1 RETURN JUMPDEST CALLVALUE DUP1 ISZERO PUSH2 0x338 JUMPI PUSH1 0x0 DUP1 REVERT JUMPDEST POP PUSH2 0x341 PUSH2 0xA9C JUMP JUMPDEST PUSH1 0x40 MLOAD PUSH2 0x34E SWAP2 SWAP1 PUSH2 0x2182 JUMP JUMPDEST PUSH1 0x40 MLOAD DUP1 SWAP2 SUB SWAP1 RETURN JUMPDEST CALLVALUE DUP1 ISZERO PUSH2 0x363 JUMPI PUSH1 0x0 DUP1 REVERT JUMPDEST POP PUSH2 0x37E PUSH1 0x4 DUP1 CALLDATASIZE SUB DUP2 ADD SWAP1 PUSH2 0x379 SWAP2 SWAP1 PUSH2 0x1B3E JUMP JUMPDEST PUSH2 0xAA1 JUMP JUMPDEST PUSH1 0x40 MLOAD PUSH2 0x38C SWAP3 SWAP2 SWAP1 PUSH2 0x2042 JUMP JUMPDEST PUSH1 0x40 MLOAD DUP1 SWAP2 SUB SWAP1 RETURN JUMPDEST CALLVALUE DUP1 ISZERO PUSH2 0x3A1 JUMPI PUSH1 0x0 DUP1 REVERT JUMPDEST POP PUSH2 0x3AA PUSH2 0xB89 JUMP JUMPDEST PUSH1 0x40 MLOAD PUSH2 0x3B7 SWAP2 SWAP1 PUSH2 0x2116 JUMP JUMPDEST PUSH1 0x40 MLOAD DUP1 SWAP2 SUB SWAP1 RETURN JUMPDEST CALLVALUE DUP1 ISZERO PUSH2 0x3CC JUMPI PUSH1 0x0 DUP1 REVERT JUMPDEST POP PUSH2 0x3D5 PUSH2 0xB8E JUMP JUMPDEST PUSH1 0x40 MLOAD PUSH2 0x3E2 SWAP2 SWAP1 PUSH2 0x2131 JUMP JUMPDEST PUSH1 0x40 MLOAD DUP1 SWAP2 SUB SWAP1 RETURN JUMPDEST CALLVALUE DUP1 ISZERO PUSH2 0x3F7 JUMPI PUSH1 0x0 DUP1 REVERT JUMPDEST POP PUSH2 0x400 PUSH2 0xBB2 JUMP JUMPDEST PUSH1 0x40 MLOAD PUSH2 0x40D SWAP2 SWAP1 PUSH2 0x2072 JUMP JUMPDEST PUSH1 0x40 MLOAD DUP1 SWAP2 SUB SWAP1 RETURN JUMPDEST CALLVALUE DUP1 ISZERO PUSH2 0x422 JUMPI PUSH1 0x0 DUP1 REVERT JUMPDEST POP PUSH2 0x42B PUSH2 0xBB8 JUMP JUMPDEST PUSH1 0x40 MLOAD PUSH2 0x438 SWAP2 SWAP1 PUSH2 0x2182 JUMP JUMPDEST PUSH1 0x40 MLOAD DUP1 SWAP2 SUB SWAP1 RETURN JUMPDEST CALLVALUE DUP1 ISZERO PUSH2 0x44D JUMPI PUSH1 0x0 DUP1 REVERT JUMPDEST POP PUSH2 0x456 PUSH2 0xBBD JUMP JUMPDEST PUSH1 0x40 MLOAD PUSH2 0x463 SWAP2 SWAP1 PUSH2 0x2131 JUMP JUMPDEST PUSH1 0x40 MLOAD DUP1 SWAP2 SUB SWAP1 RETURN JUMPDEST CALLVALUE DUP1 ISZERO PUSH2 0x478 JUMPI PUSH1 0x0 DUP1 REVERT JUMPDEST POP PUSH2 0x493 PUSH1 0x4 DUP1 CALLDATASIZE SUB DUP2 ADD SWAP1 PUSH2 0x48E SWAP2 SWAP1 PUSH2 0x1AC4 JUMP JUMPDEST PUSH2 0xBC9 JUMP JUMPDEST PUSH1 0x40 MLOAD PUSH2 0x4A0 SWAP2 SWAP1 PUSH2 0x2027 JUMP JUMPDEST PUSH1 0x40 MLOAD DUP1 SWAP2 SUB SWAP1 RETURN JUMPDEST CALLVALUE DUP1 ISZERO PUSH2 0x4B5 JUMPI PUSH1 0x0 DUP1 REVERT JUMPDEST POP PUSH2 0x4BE PUSH2 0xD32 JUMP JUMPDEST PUSH1 0x40 MLOAD PUSH2 0x4CB SWAP2 SWAP1 PUSH2 0x2005 JUMP JUMPDEST PUSH1 0x40 MLOAD DUP1 SWAP2 SUB SWAP1 RETURN JUMPDEST CALLVALUE DUP1 ISZERO PUSH2 0x4E0 JUMPI PUSH1 0x0 DUP1 REVERT JUMPDEST POP PUSH2 0x4FB PUSH1 0x4 DUP1 CALLDATASIZE SUB DUP2 ADD SWAP1 PUSH2 0x4F6 SWAP2 SWAP1 PUSH2 0x1B87 JUMP JUMPDEST PUSH2 0xDF1 JUMP JUMPDEST PUSH1 0x40 MLOAD PUSH2 0x50C SWAP6 SWAP5 SWAP4 SWAP3 SWAP2 SWAP1 PUSH2 0x1FB2 JUMP JUMPDEST PUSH1 0x40 MLOAD DUP1 SWAP2 SUB SWAP1 RETURN JUMPDEST CALLVALUE DUP1 ISZERO PUSH2 0x521 JUMPI PUSH1 0x0 DUP1 REVERT JUMPDEST POP PUSH2 0x52A PUSH2 0xE8D JUMP JUMPDEST PUSH1 0x40 MLOAD PUSH2 0x537 SWAP2 SWAP1 PUSH2 0x20E0 JUMP JUMPDEST PUSH1 0x40 MLOAD DUP1 SWAP2 SUB SWAP1 RETURN JUMPDEST CALLVALUE DUP1 ISZERO PUSH2 0x54C JUMPI PUSH1 0x0 DUP1 REVERT JUMPDEST POP PUSH2 0x555 PUSH2 0xEB1 JUMP JUMPDEST PUSH1 0x40 MLOAD PUSH2 0x562 SWAP2 SWAP1 PUSH2 0x2182 JUMP JUMPDEST PUSH1 0x40 MLOAD DUP1 SWAP2 SUB SWAP1 RETURN JUMPDEST CALLVALUE DUP1 ISZERO PUSH2 0x577 JUMPI PUSH1 0x0 DUP1 REVERT JUMPDEST POP PUSH2 0x580 PUSH2 0xEB6 JUMP JUMPDEST PUSH1 0x40 MLOAD PUSH2 0x58D SWAP2 SWAP1 PUSH2 0x2182 JUMP JUMPDEST PUSH1 0x40 MLOAD DUP1 SWAP2 SUB SWAP1 RETURN JUMPDEST CALLVALUE DUP1 ISZERO PUSH2 0x5A2 JUMPI PUSH1 0x0 DUP1 REVERT JUMPDEST POP PUSH2 0x5AB PUSH2 0xEBB JUMP JUMPDEST PUSH1 0x40 MLOAD PUSH2 0x5B8 SWAP2 SWAP1 PUSH2 0x20FB JUMP JUMPDEST PUSH1 0x40 MLOAD DUP1 SWAP2 SUB SWAP1 RETURN JUMPDEST CALLVALUE DUP1 ISZERO PUSH2 0x5CD JUMPI PUSH1 0x0 DUP1 REVERT JUMPDEST POP PUSH2 0x5D6 PUSH2 0xECE JUMP JUMPDEST PUSH1 0x40 MLOAD PUSH2 0x5E3 SWAP2 SWAP1 PUSH2 0x2131 JUMP JUMPDEST PUSH1 0x40 MLOAD DUP1 SWAP2 SUB SWAP1 RETURN JUMPDEST CALLVALUE DUP1 ISZERO PUSH2 0x5F8 JUMPI PUSH1 0x0 DUP1 REVERT JUMPDEST POP PUSH2 0x601 PUSH2 0xED4 JUMP JUMPDEST PUSH1 0x40 MLOAD PUSH2 0x60E SWAP2 SWAP1 PUSH2 0x2182 JUMP JUMPDEST PUSH1 0x40 MLOAD DUP1 SWAP2 SUB SWAP1 RETURN JUMPDEST CALLVALUE DUP1 ISZERO PUSH2 0x623 JUMPI PUSH1 0x0 DUP1 REVERT JUMPDEST POP PUSH2 0x62C PUSH2 0xED9 JUMP JUMPDEST PUSH1 0x40 MLOAD PUSH2 0x639 SWAP2 SWAP1 PUSH2 0x214C JUMP JUMPDEST PUSH1 0x40 MLOAD DUP1 SWAP2 SUB SWAP1 RETURN JUMPDEST CALLVALUE DUP1 ISZERO PUSH2 0x64E JUMPI PUSH1 0x0 DUP1 REVERT JUMPDEST POP PUSH2 0x657 PUSH2 0xEEF JUMP JUMPDEST PUSH1 0x40 MLOAD PUSH2 0x664 SWAP2 SWAP1 PUSH2 0x2131 JUMP JUMPDEST PUSH1 0x40 MLOAD DUP1 SWAP2 SUB SWAP1 RETURN JUMPDEST CALLVALUE DUP1 ISZERO PUSH2 0x679 JUMPI PUSH1 0x0 DUP1 REVERT JUMPDEST POP PUSH2 0x694 PUSH1 0x4 DUP1 CALLDATASIZE SUB DUP2 ADD SWAP1 PUSH2 0x68F SWAP2 SWAP1 PUSH2 0x1B87 JUMP JUMPDEST PUSH2 0xEF5 JUMP JUMPDEST PUSH1 0x40 MLOAD PUSH2 0x6A2 SWAP3 SWAP2 SWAP1 PUSH2 0x1F60 JUMP JUMPDEST PUSH1 0x40 MLOAD DUP1 SWAP2 SUB SWAP1 RETURN JUMPDEST PUSH1 0x5 DUP2 JUMP JUMPDEST PUSH32 0x0 PUSH20 0xFFFFFFFFFFFFFFFFFFFFFFFFFFFFFFFFFFFFFFFF AND CALLER PUSH20 0xFFFFFFFFFFFFFFFFFFFFFFFFFFFFFFFFFFFFFFFF AND EQ PUSH2 0x762 JUMPI CALLER PUSH32 0x0 PUSH1 0x40 MLOAD PUSH32 0x1CF993F400000000000000000000000000000000000000000000000000000000 DUP2 MSTORE PUSH1 0x4 ADD PUSH2 0x759 SWAP3 SWAP2 SWAP1 PUSH2 0x1F89 JUMP JUMPDEST PUSH1 0x40 MLOAD DUP1 SWAP2 SUB SWAP1 REVERT JUMPDEST PUSH2 0x76C DUP3 DUP3 PUSH2 0xF49 JUMP JUMPDEST POP POP JUMP JUMPDEST PUSH1 0x39 PUSH1 0x0 SWAP1 SLOAD SWAP1 PUSH2 0x100 EXP SWAP1 DIV PUSH1 0xFF AND DUP2 JUMP JUMPDEST DUP1 PUSH32 0x0 PUSH2 0x7AF SWAP2 SWAP1 PUSH2 0x2328 JUMP JUMPDEST CALLVALUE LT ISZERO PUSH2 0x7E8 JUMPI PUSH1 0x40 MLOAD PUSH32 0x3038C00A00000000000000000000000000000000000000000000000000000000 DUP2 MSTORE PUSH1 0x4 ADD PUSH1 0x40 MLOAD DUP1 SWAP2 SUB SWAP1 REVERT JUMPDEST PUSH1 0x0 PUSH1 0x1 DUP2 GT ISZERO PUSH2 0x7FC JUMPI PUSH2 0x7FB PUSH2 0x2645 JUMP JUMPDEST JUMPDEST PUSH1 0x1 PUSH1 0x0 SWAP1 SLOAD SWAP1 PUSH2 0x100 EXP SWAP1 DIV PUSH1 0xFF AND PUSH1 0x1 DUP2 GT ISZERO PUSH2 0x81E JUMPI PUSH2 0x81D PUSH2 0x2645 JUMP JUMPDEST JUMPDEST EQ PUSH2 0x855 JUMPI PUSH1 0x40 MLOAD PUSH32 0xD24A271400000000000000000000000000000000000000000000000000000000 DUP2 MSTORE PUSH1 0x4 ADD PUSH1 0x40 MLOAD DUP1 SWAP2 SUB SWAP1 REVERT JUMPDEST PUSH2 0x85F CALLER DUP3 PUSH2 0x1266 JUMP JUMPDEST CALLVALUE PUSH1 0x6 PUSH1 0x0 DUP3 DUP3 SLOAD PUSH2 0x871 SWAP2 SWAP1 PUSH2 0x22D2 JUMP JUMPDEST SWAP3 POP POP DUP2 SWAP1 SSTORE POP DUP1 CALLER PUSH20 0xFFFFFFFFFFFFFFFFFFFFFFFFFFFFFFFFFFFFFFFF AND PUSH32 0xED20D2AB01271E5AB09835D58AEC6AD1931DB157B05B700C95C1E625B81C8600 PUSH1 0x40 MLOAD PUSH1 0x40 MLOAD DUP1 SWAP2 SUB SWAP1 LOG3 POP JUMP JUMPDEST PUSH1 0x3 SLOAD DUP2 JUMP JUMPDEST PUSH1 0x0 PUSH2 0x8DF PUSH1 0x40 MLOAD DUP1 PUSH1 0x20 ADD PUSH1 0x40 MSTORE DUP1 PUSH1 0x0 DUP2 MSTORE POP PUSH2 0xAA1 JUMP JUMPDEST POP SWAP1 POP DUP1 PUSH2 0x919 JUMPI PUSH1 0x40 MLOAD PUSH32 0x8E4BC81700000000000000000000000000000000000000000000000000000000 DUP2 MSTORE PUSH1 0x4 ADD PUSH1 0x40 MLOAD DUP1 SWAP2 SUB SWAP1 REVERT JUMPDEST PUSH1 0x1 DUP1 PUSH1 0x0 PUSH2 0x100 EXP DUP2 SLOAD DUP2 PUSH1 0xFF MUL NOT AND SWAP1 DUP4 PUSH1 0x1 DUP2 GT ISZERO PUSH2 0x93E JUMPI PUSH2 0x93D PUSH2 0x2645 JUMP JUMPDEST JUMPDEST MUL OR SWAP1 SSTORE POP PUSH1 0x0 PUSH32 0x0 PUSH20 0xFFFFFFFFFFFFFFFFFFFFFFFFFFFFFFFFFFFFFFFF AND PUSH4 0x5D3B1D30 PUSH1 0x4 SLOAD PUSH1 0x5 PUSH1 0x0 SWAP1 SLOAD SWAP1 PUSH2 0x100 EXP SWAP1 DIV PUSH8 0xFFFFFFFFFFFFFFFF AND PUSH1 0x3 PUSH1 0x5 PUSH1 0x8 SWAP1 SLOAD SWAP1 PUSH2 0x100 EXP SWAP1 DIV PUSH4 0xFFFFFFFF AND PUSH1 0x3 PUSH1 0x40 MLOAD DUP7 PUSH4 0xFFFFFFFF AND PUSH1 0xE0 SHL DUP2 MSTORE PUSH1 0x4 ADD PUSH2 0x9D2 SWAP6 SWAP5 SWAP4 SWAP3 SWAP2 SWAP1 PUSH2 0x208D JUMP JUMPDEST PUSH1 0x20 PUSH1 0x40 MLOAD DUP1 DUP4 SUB DUP2 PUSH1 0x0 DUP8 DUP1 EXTCODESIZE ISZERO DUP1 ISZERO PUSH2 0x9EC JUMPI PUSH1 0x0 DUP1 REVERT JUMPDEST POP GAS CALL ISZERO DUP1 ISZERO PUSH2 0xA00 JUMPI RETURNDATASIZE PUSH1 0x0 DUP1 RETURNDATACOPY RETURNDATASIZE PUSH1 0x0 REVERT JUMPDEST POP POP POP POP PUSH1 0x40 MLOAD RETURNDATASIZE PUSH1 0x1F NOT PUSH1 0x1F DUP3 ADD AND DUP3 ADD DUP1 PUSH1 0x40 MSTORE POP DUP2 ADD SWAP1 PUSH2 0xA24 SWAP2 SWAP1 PUSH2 0x1BB4 JUMP JUMPDEST SWAP1 POP DUP1 PUSH32 0xCD6E45C8998311CAB7E9D4385596CAC867E20A0587194B954FA3A731C93CE78B PUSH1 0x40 MLOAD PUSH1 0x40 MLOAD DUP1 SWAP2 SUB SWAP1 LOG2 POP POP POP POP JUMP JUMPDEST PUSH1 0x5 PUSH1 0x0 SWAP1 SLOAD SWAP1 PUSH2 0x100 EXP SWAP1 DIV PUSH8 0xFFFFFFFFFFFFFFFF AND DUP2 JUMP JUMPDEST PUSH1 0x3 DUP2 JUMP JUMPDEST PUSH32 0x0 DUP2 JUMP JUMPDEST PUSH1 0xF DUP2 JUMP JUMPDEST PUSH1 0x0 PUSH1 0x60 PUSH1 0x0 PUSH1 0x1 PUSH1 0x0 SWAP1 SLOAD SWAP1 PUSH2 0x100 EXP SWAP1 DIV PUSH1 0xFF AND PUSH1 0x1 DUP2 GT ISZERO PUSH2 0xAC9 JUMPI PUSH2 0xAC8 PUSH2 0x2645 JUMP JUMPDEST JUMPDEST PUSH1 0x0 PUSH1 0x1 DUP2 GT ISZERO PUSH2 0xADD JUMPI PUSH2 0xADC PUSH2 0x2645 JUMP JUMPDEST JUMPDEST EQ SWAP1 POP PUSH1 0x0 PUSH32 0x0 PUSH1 0x3 SLOAD TIMESTAMP PUSH2 0xB11 SWAP2 SWAP1 PUSH2 0x2382 JUMP JUMPDEST GT SWAP1 POP PUSH1 0x0 DUP1 SELFBALANCE GT SWAP1 POP PUSH1 0x0 DUP1 PUSH1 0x0 DUP1 SLOAD SWAP1 POP GT SWAP1 POP DUP3 DUP1 ISZERO PUSH2 0xB31 JUMPI POP DUP4 JUMPDEST DUP1 ISZERO PUSH2 0xB3A JUMPI POP DUP2 JUMPDEST DUP1 ISZERO PUSH2 0xB43 JUMPI POP DUP1 JUMPDEST SWAP6 POP DUP6 PUSH1 0x40 MLOAD DUP1 PUSH1 0x40 ADD PUSH1 0x40 MSTORE DUP1 PUSH1 0x3 DUP2 MSTORE PUSH1 0x20 ADD PUSH32 0x3078300000000000000000000000000000000000000000000000000000000000 DUP2 MSTORE POP SWAP6 POP SWAP6 POP POP POP POP POP SWAP2 POP SWAP2 JUMP JUMPDEST PUSH1 0x3 DUP2 JUMP JUMPDEST PUSH32 0x0 DUP2 JUMP JUMPDEST PUSH1 0x4 SLOAD DUP2 JUMP JUMPDEST PUSH1 0x50 DUP2 JUMP JUMPDEST PUSH1 0x0 DUP1 DUP1 SLOAD SWAP1 POP SWAP1 POP SWAP1 JUMP JUMPDEST PUSH2 0xBD1 PUSH2 0x1830 JUMP JUMPDEST PUSH1 0x0 PUSH1 0x1 SWAP1 POP PUSH1 0x0 PUSH1 0x3B SLOAD DUP5 PUSH1 0x0 PUSH1 0x3 DUP2 LT PUSH2 0xBF0 JUMPI PUSH2 0xBEF PUSH2 0x2674 JUMP JUMPDEST JUMPDEST PUSH1 0x20 MUL ADD MLOAD PUSH2 0xBFF SWAP2 SWAP1 PUSH2 0x25B6 JUMP JUMPDEST DUP4 PUSH1 0x0 PUSH1 0x3 DUP2 LT PUSH2 0xC13 JUMPI PUSH2 0xC12 PUSH2 0x2674 JUMP JUMPDEST JUMPDEST PUSH1 0x20 MUL ADD DUP2 DUP2 MSTORE POP POP PUSH1 0x0 PUSH1 0x1 SWAP1 POP JUMPDEST PUSH1 0x3 PUSH2 0xFFFF AND DUP2 LT ISZERO PUSH2 0xCEC JUMPI PUSH1 0x3B SLOAD DUP6 DUP3 PUSH1 0x3 DUP2 LT PUSH2 0xC46 JUMPI PUSH2 0xC45 PUSH2 0x2674 JUMP JUMPDEST JUMPDEST PUSH1 0x20 MUL ADD MLOAD PUSH2 0xC55 SWAP2 SWAP1 PUSH2 0x25B6 JUMP JUMPDEST SWAP2 POP DUP2 DUP5 PUSH1 0x0 PUSH1 0x3 DUP2 LT PUSH2 0xC6C JUMPI PUSH2 0xC6B PUSH2 0x2674 JUMP JUMPDEST JUMPDEST PUSH1 0x20 MUL ADD MLOAD EQ ISZERO DUP1 ISZERO PUSH2 0xC97 JUMPI POP DUP2 DUP5 PUSH1 0x1 PUSH1 0x3 DUP2 LT PUSH2 0xC8F JUMPI PUSH2 0xC8E PUSH2 0x2674 JUMP JUMPDEST JUMPDEST PUSH1 0x20 MUL ADD MLOAD EQ ISZERO JUMPDEST ISZERO PUSH2 0xCC8 JUMPI DUP2 DUP5 DUP5 PUSH1 0x3 DUP2 LT PUSH2 0xCB0 JUMPI PUSH2 0xCAF PUSH2 0x2674 JUMP JUMPDEST JUMPDEST PUSH1 0x20 MUL ADD DUP2 DUP2 MSTORE POP POP DUP3 DUP1 PUSH2 0xCC4 SWAP1 PUSH2 0x256D JUMP JUMPDEST SWAP4 POP POP JUMPDEST PUSH1 0x3 PUSH1 0xFF AND DUP4 EQ ISZERO PUSH2 0xCD9 JUMPI PUSH2 0xCEC JUMP JUMPDEST DUP1 DUP1 PUSH2 0xCE4 SWAP1 PUSH2 0x256D JUMP JUMPDEST SWAP2 POP POP PUSH2 0xC23 JUMP JUMPDEST POP PUSH1 0x3 PUSH1 0xFF AND DUP3 LT ISZERO PUSH2 0xD2B JUMPI PUSH1 0x40 MLOAD PUSH32 0xF5A4BB2B00000000000000000000000000000000000000000000000000000000 DUP2 MSTORE PUSH1 0x4 ADD PUSH1 0x40 MLOAD DUP1 SWAP2 SUB SWAP1 REVERT JUMPDEST POP POP SWAP2 SWAP1 POP JUMP JUMPDEST PUSH1 0x60 PUSH1 0x0 DUP1 SLOAD DUP1 PUSH1 0x20 MUL PUSH1 0x20 ADD PUSH1 0x40 MLOAD SWAP1 DUP2 ADD PUSH1 0x40 MSTORE DUP1 SWAP3 SWAP2 SWAP1 DUP2 DUP2 MSTORE PUSH1 0x20 ADD PUSH1 0x0 SWAP1 JUMPDEST DUP3 DUP3 LT ISZERO PUSH2 0xDE8 JUMPI DUP4 DUP3 SWAP1 PUSH1 0x0 MSTORE PUSH1 0x20 PUSH1 0x0 KECCAK256 SWAP1 PUSH1 0x2 MUL ADD PUSH1 0x40 MLOAD DUP1 PUSH1 0x40 ADD PUSH1 0x40 MSTORE SWAP1 DUP2 PUSH1 0x0 DUP3 ADD PUSH1 0x0 SWAP1 SLOAD SWAP1 PUSH2 0x100 EXP SWAP1 DIV PUSH20 0xFFFFFFFFFFFFFFFFFFFFFFFFFFFFFFFFFFFFFFFF AND PUSH20 0xFFFFFFFFFFFFFFFFFFFFFFFFFFFFFFFFFFFFFFFF AND PUSH20 0xFFFFFFFFFFFFFFFFFFFFFFFFFFFFFFFFFFFFFFFF AND DUP2 MSTORE PUSH1 0x20 ADD PUSH1 0x1 DUP3 ADD SLOAD DUP2 MSTORE POP POP DUP2 MSTORE PUSH1 0x20 ADD SWAP1 PUSH1 0x1 ADD SWAP1 PUSH2 0xD56 JUMP JUMPDEST POP POP POP POP SWAP1 POP SWAP1 JUMP JUMPDEST PUSH1 0x7 DUP2 PUSH1 0xA DUP2 LT PUSH2 0xE01 JUMPI PUSH1 0x0 DUP1 REVERT JUMPDEST PUSH1 0x5 MUL ADD PUSH1 0x0 SWAP2 POP SWAP1 POP DUP1 PUSH1 0x0 ADD PUSH1 0x0 SWAP1 SLOAD SWAP1 PUSH2 0x100 EXP SWAP1 DIV PUSH20 0xFFFFFFFFFFFFFFFFFFFFFFFFFFFFFFFFFFFFFFFF AND SWAP1 DUP1 PUSH1 0x1 ADD PUSH1 0x0 SWAP1 SLOAD SWAP1 PUSH2 0x100 EXP SWAP1 DIV PUSH20 0xFFFFFFFFFFFFFFFFFFFFFFFFFFFFFFFFFFFFFFFF AND SWAP1 DUP1 PUSH1 0x2 ADD PUSH1 0x0 SWAP1 SLOAD SWAP1 PUSH2 0x100 EXP SWAP1 DIV PUSH20 0xFFFFFFFFFFFFFFFFFFFFFFFFFFFFFFFFFFFFFFFF AND SWAP1 DUP1 PUSH1 0x3 ADD SLOAD SWAP1 DUP1 PUSH1 0x4 ADD SLOAD SWAP1 POP DUP6 JUMP JUMPDEST PUSH32 0x0 DUP2 JUMP JUMPDEST PUSH1 0x3 DUP2 JUMP JUMPDEST PUSH1 0x3 DUP2 JUMP JUMPDEST PUSH1 0x1 PUSH1 0x0 SWAP1 SLOAD SWAP1 PUSH2 0x100 EXP SWAP1 DIV PUSH1 0xFF AND DUP2 JUMP JUMPDEST PUSH1 0x6 SLOAD DUP2 JUMP JUMPDEST PUSH1 0xA DUP2 JUMP JUMPDEST PUSH1 0x5 PUSH1 0x8 SWAP1 SLOAD SWAP1 PUSH2 0x100 EXP SWAP1 DIV PUSH4 0xFFFFFFFF AND DUP2 JUMP JUMPDEST PUSH1 0x3A SLOAD DUP2 JUMP JUMPDEST PUSH1 0x0 DUP2 DUP2 SLOAD DUP2 LT PUSH2 0xF05 JUMPI PUSH1 0x0 DUP1 REVERT JUMPDEST SWAP1 PUSH1 0x0 MSTORE PUSH1 0x20 PUSH1 0x0 KECCAK256 SWAP1 PUSH1 0x2 MUL ADD PUSH1 0x0 SWAP2 POP SWAP1 POP DUP1 PUSH1 0x0 ADD PUSH1 0x0 SWAP1 SLOAD SWAP1 PUSH2 0x100 EXP SWAP1 DIV PUSH20 0xFFFFFFFFFFFFFFFFFFFFFFFFFFFFFFFFFFFFFFFF AND SWAP1 DUP1 PUSH1 0x1 ADD SLOAD SWAP1 POP DUP3 JUMP JUMPDEST PUSH2 0xF51 PUSH2 0x1830 JUMP JUMPDEST PUSH1 0x0 JUMPDEST PUSH1 0x3 PUSH2 0xFFFF AND DUP2 LT ISZERO PUSH2 0xFAB JUMPI DUP3 DUP2 DUP2 MLOAD DUP2 LT PUSH2 0xF74 JUMPI PUSH2 0xF73 PUSH2 0x2674 JUMP JUMPDEST JUMPDEST PUSH1 0x20 MUL PUSH1 0x20 ADD ADD MLOAD DUP3 DUP3 PUSH1 0x3 DUP2 LT PUSH2 0xF8F JUMPI PUSH2 0xF8E PUSH2 0x2674 JUMP JUMPDEST JUMPDEST PUSH1 0x20 MUL ADD DUP2 DUP2 MSTORE POP POP DUP1 DUP1 PUSH2 0xFA3 SWAP1 PUSH2 0x256D JUMP JUMPDEST SWAP2 POP POP PUSH2 0xF54 JUMP JUMPDEST POP PUSH1 0x0 PUSH2 0xFB7 DUP3 PUSH2 0xBC9 JUMP JUMPDEST SWAP1 POP PUSH1 0x0 PUSH2 0xFC4 DUP3 PUSH2 0x1414 JUMP JUMPDEST SWAP1 POP PUSH1 0x0 PUSH1 0x40 MLOAD DUP1 PUSH1 0x60 ADD PUSH1 0x40 MSTORE DUP1 PUSH1 0x50 PUSH1 0xFF AND PUSH1 0xFF AND DUP2 MSTORE PUSH1 0x20 ADD PUSH1 0x5 PUSH1 0xFF AND PUSH1 0xFF AND DUP2 MSTORE PUSH1 0x20 ADD PUSH1 0xF PUSH1 0xFF AND PUSH1 0xFF AND DUP2 MSTORE POP SWAP1 POP PUSH1 0x0 JUMPDEST PUSH1 0x3 PUSH1 0xFF AND DUP2 LT ISZERO PUSH2 0x1104 JUMPI PUSH1 0x0 DUP4 DUP3 PUSH1 0x3 DUP2 LT PUSH2 0x101E JUMPI PUSH2 0x101D PUSH2 0x2674 JUMP JUMPDEST JUMPDEST PUSH1 0x20 MUL ADD MLOAD SWAP1 POP PUSH1 0x0 DUP2 PUSH20 0xFFFFFFFFFFFFFFFFFFFFFFFFFFFFFFFFFFFFFFFF AND DUP5 DUP5 PUSH1 0x3 DUP2 LT PUSH2 0x1051 JUMPI PUSH2 0x1050 PUSH2 0x2674 JUMP JUMPDEST JUMPDEST PUSH1 0x20 MUL ADD MLOAD PUSH1 0xFF AND PUSH1 0x6 SLOAD PUSH2 0x1066 SWAP2 SWAP1 PUSH2 0x2328 JUMP JUMPDEST PUSH1 0x40 MLOAD PUSH2 0x1072 SWAP1 PUSH2 0x1F30 JUMP JUMPDEST PUSH1 0x0 PUSH1 0x40 MLOAD DUP1 DUP4 SUB DUP2 DUP6 DUP8 GAS CALL SWAP3 POP POP POP RETURNDATASIZE DUP1 PUSH1 0x0 DUP2 EQ PUSH2 0x10AF JUMPI PUSH1 0x40 MLOAD SWAP2 POP PUSH1 0x1F NOT PUSH1 0x3F RETURNDATASIZE ADD AND DUP3 ADD PUSH1 0x40 MSTORE RETURNDATASIZE DUP3 MSTORE RETURNDATASIZE PUSH1 0x0 PUSH1 0x20 DUP5 ADD RETURNDATACOPY PUSH2 0x10B4 JUMP JUMPDEST PUSH1 0x60 SWAP2 POP JUMPDEST POP POP SWAP1 POP DUP1 PUSH2 0x10EF JUMPI PUSH1 0x40 MLOAD PUSH32 0xA1D04B3900000000000000000000000000000000000000000000000000000000 DUP2 MSTORE PUSH1 0x4 ADD PUSH1 0x40 MLOAD DUP1 SWAP2 SUB SWAP1 REVERT JUMPDEST POP POP DUP1 DUP1 PUSH2 0x10FC SWAP1 PUSH2 0x256D JUMP JUMPDEST SWAP2 POP POP PUSH2 0xFFD JUMP JUMPDEST POP TIMESTAMP PUSH1 0x3 DUP2 SWAP1 SSTORE POP PUSH2 0x111B DUP3 PUSH1 0x6 SLOAD PUSH1 0x3 SLOAD PUSH2 0x15E7 JUMP JUMPDEST PUSH1 0x1 PUSH1 0x3A PUSH1 0x0 DUP3 DUP3 SLOAD PUSH2 0x112E SWAP2 SWAP1 PUSH2 0x22D2 JUMP JUMPDEST SWAP3 POP POP DUP2 SWAP1 SSTORE POP PUSH1 0x0 PUSH1 0x6 DUP2 SWAP1 SSTORE POP PUSH1 0x0 PUSH1 0x1 PUSH1 0x0 PUSH2 0x100 EXP DUP2 SLOAD DUP2 PUSH1 0xFF MUL NOT AND SWAP1 DUP4 PUSH1 0x1 DUP2 GT ISZERO PUSH2 0x1163 JUMPI PUSH2 0x1162 PUSH2 0x2645 JUMP JUMPDEST JUMPDEST MUL OR SWAP1 SSTORE POP PUSH1 0x40 MLOAD DUP1 PUSH1 0xA0 ADD PUSH1 0x40 MSTORE DUP1 DUP4 PUSH1 0x0 PUSH1 0x3 DUP2 LT PUSH2 0x1187 JUMPI PUSH2 0x1186 PUSH2 0x2674 JUMP JUMPDEST JUMPDEST PUSH1 0x20 MUL ADD MLOAD PUSH20 0xFFFFFFFFFFFFFFFFFFFFFFFFFFFFFFFFFFFFFFFF AND DUP2 MSTORE PUSH1 0x20 ADD DUP4 PUSH1 0x1 PUSH1 0x3 DUP2 LT PUSH2 0x11BB JUMPI PUSH2 0x11BA PUSH2 0x2674 JUMP JUMPDEST JUMPDEST PUSH1 0x20 MUL ADD MLOAD PUSH20 0xFFFFFFFFFFFFFFFFFFFFFFFFFFFFFFFFFFFFFFFF AND DUP2 MSTORE PUSH1 0x20 ADD DUP4 PUSH1 0x2 PUSH1 0x3 DUP2 LT PUSH2 0x11EF JUMPI PUSH2 0x11EE PUSH2 0x2674 JUMP JUMPDEST JUMPDEST PUSH1 0x20 MUL ADD MLOAD PUSH20 0xFFFFFFFFFFFFFFFFFFFFFFFFFFFFFFFFFFFFFFFF AND DUP2 MSTORE PUSH1 0x20 ADD PUSH1 0x6 SLOAD DUP2 MSTORE PUSH1 0x20 ADD PUSH1 0x3 SLOAD DUP2 MSTORE POP PUSH1 0x40 MLOAD PUSH2 0x122A SWAP2 SWAP1 PUSH2 0x1F45 JUMP JUMPDEST PUSH1 0x40 MLOAD DUP1 SWAP2 SUB SWAP1 KECCAK256 PUSH32 0x603DB4286C2C3E388925ECCB2679B9983458118C213AC5F0F227C1562B1C105B PUSH1 0x40 MLOAD PUSH1 0x40 MLOAD DUP1 SWAP2 SUB SWAP1 LOG2 POP POP POP POP POP POP JUMP JUMPDEST PUSH1 0x0 JUMPDEST PUSH1 0x0 DUP1 SLOAD SWAP1 POP DUP2 LT ISZERO PUSH2 0x1344 JUMPI DUP3 PUSH20 0xFFFFFFFFFFFFFFFFFFFFFFFFFFFFFFFFFFFFFFFF AND PUSH1 0x0 DUP3 DUP2 SLOAD DUP2 LT PUSH2 0x12A1 JUMPI PUSH2 0x12A0 PUSH2 0x2674 JUMP JUMPDEST JUMPDEST SWAP1 PUSH1 0x0 MSTORE PUSH1 0x20 PUSH1 0x0 KECCAK256 SWAP1 PUSH1 0x2 MUL ADD PUSH1 0x0 ADD PUSH1 0x0 SWAP1 SLOAD SWAP1 PUSH2 0x100 EXP SWAP1 DIV PUSH20 0xFFFFFFFFFFFFFFFFFFFFFFFFFFFFFFFFFFFFFFFF AND PUSH20 0xFFFFFFFFFFFFFFFFFFFFFFFFFFFFFFFFFFFFFFFF AND EQ ISZERO PUSH2 0x1331 JUMPI DUP2 PUSH1 0x0 DUP3 DUP2 SLOAD DUP2 LT PUSH2 0x1304 JUMPI PUSH2 0x1303 PUSH2 0x2674 JUMP JUMPDEST JUMPDEST SWAP1 PUSH1 0x0 MSTORE PUSH1 0x20 PUSH1 0x0 KECCAK256 SWAP1 PUSH1 0x2 MUL ADD PUSH1 0x1 ADD PUSH1 0x0 DUP3 DUP3 SLOAD PUSH2 0x1324 SWAP2 SWAP1 PUSH2 0x22D2 JUMP JUMPDEST SWAP3 POP POP DUP2 SWAP1 SSTORE POP POP PUSH2 0x1410 JUMP JUMPDEST DUP1 DUP1 PUSH2 0x133C SWAP1 PUSH2 0x256D JUMP JUMPDEST SWAP2 POP POP PUSH2 0x1269 JUMP JUMPDEST POP PUSH2 0x134D PUSH2 0x1852 JUMP JUMPDEST DUP3 DUP2 PUSH1 0x0 ADD SWAP1 PUSH20 0xFFFFFFFFFFFFFFFFFFFFFFFFFFFFFFFFFFFFFFFF AND SWAP1 DUP2 PUSH20 0xFFFFFFFFFFFFFFFFFFFFFFFFFFFFFFFFFFFFFFFF AND DUP2 MSTORE POP POP DUP2 DUP2 PUSH1 0x20 ADD DUP2 DUP2 MSTORE POP POP PUSH1 0x0 DUP2 SWAP1 DUP1 PUSH1 0x1 DUP2 SLOAD ADD DUP1 DUP3 SSTORE DUP1 SWAP2 POP POP PUSH1 0x1 SWAP1 SUB SWAP1 PUSH1 0x0 MSTORE PUSH1 0x20 PUSH1 0x0 KECCAK256 SWAP1 PUSH1 0x2 MUL ADD PUSH1 0x0 SWAP1 SWAP2 SWAP1 SWAP2 SWAP1 SWAP2 POP PUSH1 0x0 DUP3 ADD MLOAD DUP2 PUSH1 0x0 ADD PUSH1 0x0 PUSH2 0x100 EXP DUP2 SLOAD DUP2 PUSH20 0xFFFFFFFFFFFFFFFFFFFFFFFFFFFFFFFFFFFFFFFF MUL NOT AND SWAP1 DUP4 PUSH20 0xFFFFFFFFFFFFFFFFFFFFFFFFFFFFFFFFFFFFFFFF AND MUL OR SWAP1 SSTORE POP PUSH1 0x20 DUP3 ADD MLOAD DUP2 PUSH1 0x1 ADD SSTORE POP POP POP JUMPDEST POP POP JUMP JUMPDEST PUSH2 0x141C PUSH2 0x1882 JUMP JUMPDEST PUSH1 0x0 PUSH1 0x1 SWAP1 POP PUSH1 0x0 DUP1 DUP1 PUSH1 0x0 SWAP1 POP JUMPDEST PUSH1 0x0 DUP1 SLOAD SWAP1 POP DUP2 LT ISZERO PUSH2 0x15DE JUMPI PUSH1 0x0 JUMPDEST PUSH1 0x3 PUSH1 0xFF AND DUP2 LT ISZERO PUSH2 0x158C JUMPI DUP5 DUP8 DUP3 PUSH1 0x3 DUP2 LT PUSH2 0x145B JUMPI PUSH2 0x145A PUSH2 0x2674 JUMP JUMPDEST JUMPDEST PUSH1 0x20 MUL ADD MLOAD LT ISZERO DUP1 ISZERO PUSH2 0x14B4 JUMPI POP PUSH1 0x0 DUP3 DUP2 SLOAD DUP2 LT PUSH2 0x147D JUMPI PUSH2 0x147C PUSH2 0x2674 JUMP JUMPDEST JUMPDEST SWAP1 PUSH1 0x0 MSTORE PUSH1 0x20 PUSH1 0x0 KECCAK256 SWAP1 PUSH1 0x2 MUL ADD PUSH1 0x1 ADD SLOAD DUP6 PUSH2 0x149A SWAP2 SWAP1 PUSH2 0x22D2 JUMP JUMPDEST DUP8 DUP3 PUSH1 0x3 DUP2 LT PUSH2 0x14AD JUMPI PUSH2 0x14AC PUSH2 0x2674 JUMP JUMPDEST JUMPDEST PUSH1 0x20 MUL ADD MLOAD LT JUMPDEST ISZERO PUSH2 0x1579 JUMPI PUSH1 0x0 DUP3 DUP2 SLOAD DUP2 LT PUSH2 0x14CD JUMPI PUSH2 0x14CC PUSH2 0x2674 JUMP JUMPDEST JUMPDEST SWAP1 PUSH1 0x0 MSTORE PUSH1 0x20 PUSH1 0x0 KECCAK256 SWAP1 PUSH1 0x2 MUL ADD PUSH1 0x0 ADD PUSH1 0x0 SWAP1 SLOAD SWAP1 PUSH2 0x100 EXP SWAP1 DIV PUSH20 0xFFFFFFFFFFFFFFFFFFFFFFFFFFFFFFFFFFFFFFFF AND DUP7 DUP3 PUSH1 0x3 DUP2 LT PUSH2 0x1512 JUMPI PUSH2 0x1511 PUSH2 0x2674 JUMP JUMPDEST JUMPDEST PUSH1 0x20 MUL ADD SWAP1 PUSH20 0xFFFFFFFFFFFFFFFFFFFFFFFFFFFFFFFFFFFFFFFF AND SWAP1 DUP2 PUSH20 0xFFFFFFFFFFFFFFFFFFFFFFFFFFFFFFFFFFFFFFFF AND DUP2 MSTORE POP POP DUP4 DUP1 PUSH2 0x1554 SWAP1 PUSH2 0x256D JUMP JUMPDEST SWAP5 POP POP PUSH1 0x1 PUSH1 0x3 PUSH2 0x1565 SWAP2 SWAP1 PUSH2 0x23B6 JUMP JUMPDEST PUSH1 0xFF AND DUP5 GT ISZERO PUSH2 0x1578 JUMPI PUSH1 0x1 SWAP3 POP PUSH2 0x158C JUMP JUMPDEST JUMPDEST DUP1 DUP1 PUSH2 0x1584 SWAP1 PUSH2 0x256D JUMP JUMPDEST SWAP2 POP POP PUSH2 0x143B JUMP JUMPDEST POP DUP2 ISZERO PUSH2 0x1598 JUMPI PUSH2 0x15DE JUMP JUMPDEST PUSH1 0x0 DUP2 DUP2 SLOAD DUP2 LT PUSH2 0x15AC JUMPI PUSH2 0x15AB PUSH2 0x2674 JUMP JUMPDEST JUMPDEST SWAP1 PUSH1 0x0 MSTORE PUSH1 0x20 PUSH1 0x0 KECCAK256 SWAP1 PUSH1 0x2 MUL ADD PUSH1 0x1 ADD SLOAD DUP5 PUSH2 0x15C9 SWAP2 SWAP1 PUSH2 0x22D2 JUMP JUMPDEST SWAP4 POP DUP1 DUP1 PUSH2 0x15D6 SWAP1 PUSH2 0x256D JUMP JUMPDEST SWAP2 POP POP PUSH2 0x142B JUMP JUMPDEST POP POP POP POP SWAP2 SWAP1 POP JUMP JUMPDEST PUSH1 0x0 PUSH1 0x39 PUSH1 0x0 SWAP1 SLOAD SWAP1 PUSH2 0x100 EXP SWAP1 DIV PUSH1 0xFF AND PUSH1 0xFF AND EQ PUSH2 0x1622 JUMPI PUSH1 0x1 PUSH1 0x39 PUSH1 0x0 SWAP1 SLOAD SWAP1 PUSH2 0x100 EXP SWAP1 DIV PUSH1 0xFF AND PUSH2 0x161D SWAP2 SWAP1 PUSH2 0x23B6 JUMP JUMPDEST PUSH2 0x164A JUMP JUMPDEST PUSH1 0x1 PUSH1 0xA PUSH2 0x1630 SWAP2 SWAP1 PUSH2 0x23B6 JUMP JUMPDEST PUSH1 0x39 PUSH1 0x0 PUSH2 0x100 EXP DUP2 SLOAD DUP2 PUSH1 0xFF MUL NOT AND SWAP1 DUP4 PUSH1 0xFF AND MUL OR SWAP1 SSTORE JUMPDEST PUSH1 0x39 PUSH1 0x0 PUSH2 0x100 EXP DUP2 SLOAD DUP2 PUSH1 0xFF MUL NOT AND SWAP1 DUP4 PUSH1 0xFF AND MUL OR SWAP1 SSTORE POP PUSH1 0x40 MLOAD DUP1 PUSH1 0xA0 ADD PUSH1 0x40 MSTORE DUP1 DUP5 PUSH1 0x0 PUSH1 0x3 DUP2 LT PUSH2 0x1683 JUMPI PUSH2 0x1682 PUSH2 0x2674 JUMP JUMPDEST JUMPDEST PUSH1 0x20 MUL ADD MLOAD PUSH20 0xFFFFFFFFFFFFFFFFFFFFFFFFFFFFFFFFFFFFFFFF AND DUP2 MSTORE PUSH1 0x20 ADD DUP5 PUSH1 0x1 PUSH1 0x3 DUP2 LT PUSH2 0x16B7 JUMPI PUSH2 0x16B6 PUSH2 0x2674 JUMP JUMPDEST JUMPDEST PUSH1 0x20 MUL ADD MLOAD PUSH20 0xFFFFFFFFFFFFFFFFFFFFFFFFFFFFFFFFFFFFFFFF AND DUP2 MSTORE PUSH1 0x20 ADD DUP5 PUSH1 0x2 PUSH1 0x3 DUP2 LT PUSH2 0x16EB JUMPI PUSH2 0x16EA PUSH2 0x2674 JUMP JUMPDEST JUMPDEST PUSH1 0x20 MUL ADD MLOAD PUSH20 0xFFFFFFFFFFFFFFFFFFFFFFFFFFFFFFFFFFFFFFFF AND DUP2 MSTORE PUSH1 0x20 ADD DUP4 DUP2 MSTORE PUSH1 0x20 ADD DUP3 DUP2 MSTORE POP PUSH1 0x7 PUSH1 0x39 PUSH1 0x0 SWAP1 SLOAD SWAP1 PUSH2 0x100 EXP SWAP1 DIV PUSH1 0xFF AND PUSH1 0xFF AND PUSH1 0xA DUP2 LT PUSH2 0x173B JUMPI PUSH2 0x173A PUSH2 0x2674 JUMP JUMPDEST JUMPDEST PUSH1 0x5 MUL ADD PUSH1 0x0 DUP3 ADD MLOAD DUP2 PUSH1 0x0 ADD PUSH1 0x0 PUSH2 0x100 EXP DUP2 SLOAD DUP2 PUSH20 0xFFFFFFFFFFFFFFFFFFFFFFFFFFFFFFFFFFFFFFFF MUL NOT AND SWAP1 DUP4 PUSH20 0xFFFFFFFFFFFFFFFFFFFFFFFFFFFFFFFFFFFFFFFF AND MUL OR SWAP1 SSTORE POP PUSH1 0x20 DUP3 ADD MLOAD DUP2 PUSH1 0x1 ADD PUSH1 0x0 PUSH2 0x100 EXP DUP2 SLOAD DUP2 PUSH20 0xFFFFFFFFFFFFFFFFFFFFFFFFFFFFFFFFFFFFFFFF MUL NOT AND SWAP1 DUP4 PUSH20 0xFFFFFFFFFFFFFFFFFFFFFFFFFFFFFFFFFFFFFFFF AND MUL OR SWAP1 SSTORE POP PUSH1 0x40 DUP3 ADD MLOAD DUP2 PUSH1 0x2 ADD PUSH1 0x0 PUSH2 0x100 EXP DUP2 SLOAD DUP2 PUSH20 0xFFFFFFFFFFFFFFFFFFFFFFFFFFFFFFFFFFFFFFFF MUL NOT AND SWAP1 DUP4 PUSH20 0xFFFFFFFFFFFFFFFFFFFFFFFFFFFFFFFFFFFFFFFF AND MUL OR SWAP1 SSTORE POP PUSH1 0x60 DUP3 ADD MLOAD DUP2 PUSH1 0x3 ADD SSTORE PUSH1 0x80 DUP3 ADD MLOAD DUP2 PUSH1 0x4 ADD SSTORE SWAP1 POP POP POP POP POP JUMP JUMPDEST PUSH1 0x40 MLOAD DUP1 PUSH1 0x60 ADD PUSH1 0x40 MSTORE DUP1 PUSH1 0x3 SWAP1 PUSH1 0x20 DUP3 MUL DUP1 CALLDATASIZE DUP4 CALLDATACOPY DUP1 DUP3 ADD SWAP2 POP POP SWAP1 POP POP SWAP1 JUMP JUMPDEST PUSH1 0x40 MLOAD DUP1 PUSH1 0x40 ADD PUSH1 0x40 MSTORE DUP1 PUSH1 0x0 PUSH20 0xFFFFFFFFFFFFFFFFFFFFFFFFFFFFFFFFFFFFFFFF AND DUP2 MSTORE PUSH1 0x20 ADD PUSH1 0x0 DUP2 MSTORE POP SWAP1 JUMP JUMPDEST PUSH1 0x40 MLOAD DUP1 PUSH1 0x60 ADD PUSH1 0x40 MSTORE DUP1 PUSH1 0x3 SWAP1 PUSH1 0x20 DUP3 MUL DUP1 CALLDATASIZE DUP4 CALLDATACOPY DUP1 DUP3 ADD SWAP2 POP POP SWAP1 POP POP SWAP1 JUMP JUMPDEST PUSH1 0x0 PUSH2 0x18B7 PUSH2 0x18B2 DUP5 PUSH2 0x21C2 JUMP JUMPDEST PUSH2 0x219D JUMP JUMPDEST SWAP1 POP DUP1 DUP3 DUP6 PUSH1 0x20 DUP7 MUL DUP3 ADD GT ISZERO PUSH2 0x18D1 JUMPI PUSH2 0x18D0 PUSH2 0x26DC JUMP JUMPDEST JUMPDEST PUSH1 0x0 JUMPDEST DUP6 DUP2 LT ISZERO PUSH2 0x1901 JUMPI DUP2 PUSH2 0x18E7 DUP9 DUP3 PUSH2 0x1A9A JUMP JUMPDEST DUP5 MSTORE PUSH1 0x20 DUP5 ADD SWAP4 POP PUSH1 0x20 DUP4 ADD SWAP3 POP POP PUSH1 0x1 DUP2 ADD SWAP1 POP PUSH2 0x18D4 JUMP JUMPDEST POP POP POP SWAP4 SWAP3 POP POP POP JUMP JUMPDEST PUSH1 0x0 PUSH2 0x191E PUSH2 0x1919 DUP5 PUSH2 0x21E8 JUMP JUMPDEST PUSH2 0x219D JUMP JUMPDEST SWAP1 POP DUP1 DUP4 DUP3 MSTORE PUSH1 0x20 DUP3 ADD SWAP1 POP DUP3 DUP6 PUSH1 0x20 DUP7 MUL DUP3 ADD GT ISZERO PUSH2 0x1941 JUMPI PUSH2 0x1940 PUSH2 0x26DC JUMP JUMPDEST JUMPDEST PUSH1 0x0 JUMPDEST DUP6 DUP2 LT ISZERO PUSH2 0x1971 JUMPI DUP2 PUSH2 0x1957 DUP9 DUP3 PUSH2 0x1A9A JUMP JUMPDEST DUP5 MSTORE PUSH1 0x20 DUP5 ADD SWAP4 POP PUSH1 0x20 DUP4 ADD SWAP3 POP POP PUSH1 0x1 DUP2 ADD SWAP1 POP PUSH2 0x1944 JUMP JUMPDEST POP POP POP SWAP4 SWAP3 POP POP POP JUMP JUMPDEST PUSH1 0x0 PUSH2 0x198E PUSH2 0x1989 DUP5 PUSH2 0x2214 JUMP JUMPDEST PUSH2 0x219D JUMP JUMPDEST SWAP1 POP DUP3 DUP2 MSTORE PUSH1 0x20 DUP2 ADD DUP5 DUP5 DUP5 ADD GT ISZERO PUSH2 0x19AA JUMPI PUSH2 0x19A9 PUSH2 0x26E1 JUMP JUMPDEST JUMPDEST PUSH2 0x19B5 DUP5 DUP3 DUP6 PUSH2 0x24FA JUMP JUMPDEST POP SWAP4 SWAP3 POP POP POP JUMP JUMPDEST PUSH1 0x0 DUP3 PUSH1 0x1F DUP4 ADD SLT PUSH2 0x19D2 JUMPI PUSH2 0x19D1 PUSH2 0x26D7 JUMP JUMPDEST JUMPDEST PUSH1 0x3 PUSH2 0x19DF DUP5 DUP3 DUP6 PUSH2 0x18A4 JUMP JUMPDEST SWAP2 POP POP SWAP3 SWAP2 POP POP JUMP JUMPDEST PUSH1 0x0 DUP3 PUSH1 0x1F DUP4 ADD SLT PUSH2 0x19FD JUMPI PUSH2 0x19FC PUSH2 0x26D7 JUMP JUMPDEST JUMPDEST DUP2 CALLDATALOAD PUSH2 0x1A0D DUP5 DUP3 PUSH1 0x20 DUP7 ADD PUSH2 0x190B JUMP JUMPDEST SWAP2 POP POP SWAP3 SWAP2 POP POP JUMP JUMPDEST PUSH1 0x0 DUP1 DUP4 PUSH1 0x1F DUP5 ADD SLT PUSH2 0x1A2C JUMPI PUSH2 0x1A2B PUSH2 0x26D7 JUMP JUMPDEST JUMPDEST DUP3 CALLDATALOAD SWAP1 POP PUSH8 0xFFFFFFFFFFFFFFFF DUP2 GT ISZERO PUSH2 0x1A49 JUMPI PUSH2 0x1A48 PUSH2 0x26D2 JUMP JUMPDEST JUMPDEST PUSH1 0x20 DUP4 ADD SWAP2 POP DUP4 PUSH1 0x1 DUP3 MUL DUP4 ADD GT ISZERO PUSH2 0x1A65 JUMPI PUSH2 0x1A64 PUSH2 0x26DC JUMP JUMPDEST JUMPDEST SWAP3 POP SWAP3 SWAP1 POP JUMP JUMPDEST PUSH1 0x0 DUP3 PUSH1 0x1F DUP4 ADD SLT PUSH2 0x1A81 JUMPI PUSH2 0x1A80 PUSH2 0x26D7 JUMP JUMPDEST JUMPDEST DUP2 CALLDATALOAD PUSH2 0x1A91 DUP5 DUP3 PUSH1 0x20 DUP7 ADD PUSH2 0x197B JUMP JUMPDEST SWAP2 POP POP SWAP3 SWAP2 POP POP JUMP JUMPDEST PUSH1 0x0 DUP2 CALLDATALOAD SWAP1 POP PUSH2 0x1AA9 DUP2 PUSH2 0x2718 JUMP JUMPDEST SWAP3 SWAP2 POP POP JUMP JUMPDEST PUSH1 0x0 DUP2 MLOAD SWAP1 POP PUSH2 0x1ABE DUP2 PUSH2 0x2718 JUMP JUMPDEST SWAP3 SWAP2 POP POP JUMP JUMPDEST PUSH1 0x0 PUSH1 0x60 DUP3 DUP5 SUB SLT ISZERO PUSH2 0x1ADA JUMPI PUSH2 0x1AD9 PUSH2 0x26EB JUMP JUMPDEST JUMPDEST PUSH1 0x0 PUSH2 0x1AE8 DUP5 DUP3 DUP6 ADD PUSH2 0x19BD JUMP JUMPDEST SWAP2 POP POP SWAP3 SWAP2 POP POP JUMP JUMPDEST PUSH1 0x0 DUP1 PUSH1 0x20 DUP4 DUP6 SUB SLT ISZERO PUSH2 0x1B08 JUMPI PUSH2 0x1B07 PUSH2 0x26EB JUMP JUMPDEST JUMPDEST PUSH1 0x0 DUP4 ADD CALLDATALOAD PUSH8 0xFFFFFFFFFFFFFFFF DUP2 GT ISZERO PUSH2 0x1B26 JUMPI PUSH2 0x1B25 PUSH2 0x26E6 JUMP JUMPDEST JUMPDEST PUSH2 0x1B32 DUP6 DUP3 DUP7 ADD PUSH2 0x1A16 JUMP JUMPDEST SWAP3 POP SWAP3 POP POP SWAP3 POP SWAP3 SWAP1 POP JUMP JUMPDEST PUSH1 0x0 PUSH1 0x20 DUP3 DUP5 SUB SLT ISZERO PUSH2 0x1B54 JUMPI PUSH2 0x1B53 PUSH2 0x26EB JUMP JUMPDEST JUMPDEST PUSH1 0x0 DUP3 ADD CALLDATALOAD PUSH8 0xFFFFFFFFFFFFFFFF DUP2 GT ISZERO PUSH2 0x1B72 JUMPI PUSH2 0x1B71 PUSH2 0x26E6 JUMP JUMPDEST JUMPDEST PUSH2 0x1B7E DUP5 DUP3 DUP6 ADD PUSH2 0x1A6C JUMP JUMPDEST SWAP2 POP POP SWAP3 SWAP2 POP POP JUMP JUMPDEST PUSH1 0x0 PUSH1 0x20 DUP3 DUP5 SUB SLT ISZERO PUSH2 0x1B9D JUMPI PUSH2 0x1B9C PUSH2 0x26EB JUMP JUMPDEST JUMPDEST PUSH1 0x0 PUSH2 0x1BAB DUP5 DUP3 DUP6 ADD PUSH2 0x1A9A JUMP JUMPDEST SWAP2 POP POP SWAP3 SWAP2 POP POP JUMP JUMPDEST PUSH1 0x0 PUSH1 0x20 DUP3 DUP5 SUB SLT ISZERO PUSH2 0x1BCA JUMPI PUSH2 0x1BC9 PUSH2 0x26EB JUMP JUMPDEST JUMPDEST PUSH1 0x0 PUSH2 0x1BD8 DUP5 DUP3 DUP6 ADD PUSH2 0x1AAF JUMP JUMPDEST SWAP2 POP POP SWAP3 SWAP2 POP POP JUMP JUMPDEST PUSH1 0x0 DUP1 PUSH1 0x40 DUP4 DUP6 SUB SLT ISZERO PUSH2 0x1BF8 JUMPI PUSH2 0x1BF7 PUSH2 0x26EB JUMP JUMPDEST JUMPDEST PUSH1 0x0 PUSH2 0x1C06 DUP6 DUP3 DUP7 ADD PUSH2 0x1A9A JUMP JUMPDEST SWAP3 POP POP PUSH1 0x20 DUP4 ADD CALLDATALOAD PUSH8 0xFFFFFFFFFFFFFFFF DUP2 GT ISZERO PUSH2 0x1C27 JUMPI PUSH2 0x1C26 PUSH2 0x26E6 JUMP JUMPDEST JUMPDEST PUSH2 0x1C33 DUP6 DUP3 DUP7 ADD PUSH2 0x19E8 JUMP JUMPDEST SWAP2 POP POP SWAP3 POP SWAP3 SWAP1 POP JUMP JUMPDEST PUSH1 0x0 PUSH2 0x1C49 DUP4 DUP4 PUSH2 0x1CCA JUMP JUMPDEST PUSH1 0x20 DUP4 ADD SWAP1 POP SWAP3 SWAP2 POP POP JUMP JUMPDEST PUSH1 0x0 PUSH2 0x1C61 DUP4 DUP4 PUSH2 0x1E26 JUMP JUMPDEST PUSH1 0x40 DUP4 ADD SWAP1 POP SWAP3 SWAP2 POP POP JUMP JUMPDEST PUSH1 0x0 PUSH2 0x1C79 DUP4 DUP4 PUSH2 0x1ED6 JUMP JUMPDEST PUSH1 0x20 DUP4 ADD SWAP1 POP SWAP3 SWAP2 POP POP JUMP JUMPDEST PUSH1 0x0 PUSH2 0x1C91 DUP4 DUP4 PUSH2 0x1EF4 JUMP JUMPDEST PUSH1 0x20 DUP4 ADD SWAP1 POP SWAP3 SWAP2 POP POP JUMP JUMPDEST PUSH2 0x1CA6 DUP2 PUSH2 0x23FC JUMP JUMPDEST DUP3 MSTORE POP POP JUMP JUMPDEST PUSH2 0x1CB5 DUP2 PUSH2 0x23FC JUMP JUMPDEST DUP3 MSTORE POP POP JUMP JUMPDEST PUSH2 0x1CC4 DUP2 PUSH2 0x23EA JUMP JUMPDEST DUP3 MSTORE POP POP JUMP JUMPDEST PUSH2 0x1CD3 DUP2 PUSH2 0x23EA JUMP JUMPDEST DUP3 MSTORE POP POP JUMP JUMPDEST PUSH1 0x0 PUSH2 0x1CE4 DUP3 PUSH2 0x225F JUMP JUMPDEST PUSH2 0x1CEE DUP2 DUP6 PUSH2 0x229A JUMP JUMPDEST SWAP4 POP PUSH2 0x1CF9 DUP4 PUSH2 0x2245 JUMP JUMPDEST DUP1 PUSH1 0x0 JUMPDEST DUP4 DUP2 LT ISZERO PUSH2 0x1D2A JUMPI DUP2 MLOAD PUSH2 0x1D11 DUP9 DUP3 PUSH2 0x1C55 JUMP JUMPDEST SWAP8 POP PUSH2 0x1D1C DUP4 PUSH2 0x2280 JUMP JUMPDEST SWAP3 POP POP PUSH1 0x1 DUP2 ADD SWAP1 POP PUSH2 0x1CFD JUMP JUMPDEST POP DUP6 SWAP4 POP POP POP POP SWAP3 SWAP2 POP POP JUMP JUMPDEST PUSH2 0x1D40 DUP2 PUSH2 0x226A JUMP JUMPDEST PUSH2 0x1D4A DUP2 DUP5 PUSH2 0x22AB JUMP JUMPDEST SWAP3 POP PUSH2 0x1D55 DUP3 PUSH2 0x2255 JUMP JUMPDEST DUP1 PUSH1 0x0 JUMPDEST DUP4 DUP2 LT ISZERO PUSH2 0x1D86 JUMPI DUP2 MLOAD PUSH2 0x1D6D DUP8 DUP3 PUSH2 0x1C6D JUMP JUMPDEST SWAP7 POP PUSH2 0x1D78 DUP4 PUSH2 0x228D JUMP JUMPDEST SWAP3 POP POP PUSH1 0x1 DUP2 ADD SWAP1 POP PUSH2 0x1D59 JUMP JUMPDEST POP POP POP POP POP POP JUMP JUMPDEST PUSH2 0x1D97 DUP2 PUSH2 0x240E JUMP JUMPDEST DUP3 MSTORE POP POP JUMP JUMPDEST PUSH2 0x1DA6 DUP2 PUSH2 0x241A JUMP JUMPDEST DUP3 MSTORE POP POP JUMP JUMPDEST PUSH1 0x0 PUSH2 0x1DB7 DUP3 PUSH2 0x2275 JUMP JUMPDEST PUSH2 0x1DC1 DUP2 DUP6 PUSH2 0x22B6 JUMP JUMPDEST SWAP4 POP PUSH2 0x1DD1 DUP2 DUP6 PUSH1 0x20 DUP7 ADD PUSH2 0x2509 JUMP JUMPDEST PUSH2 0x1DDA DUP2 PUSH2 0x26F0 JUMP JUMPDEST DUP5 ADD SWAP2 POP POP SWAP3 SWAP2 POP POP JUMP JUMPDEST PUSH2 0x1DEE DUP2 PUSH2 0x24A0 JUMP JUMPDEST DUP3 MSTORE POP POP JUMP JUMPDEST PUSH2 0x1DFD DUP2 PUSH2 0x24B2 JUMP JUMPDEST DUP3 MSTORE POP POP JUMP JUMPDEST PUSH1 0x0 PUSH2 0x1E10 PUSH1 0x0 DUP4 PUSH2 0x22C7 JUMP JUMPDEST SWAP2 POP PUSH2 0x1E1B DUP3 PUSH2 0x2701 JUMP JUMPDEST PUSH1 0x0 DUP3 ADD SWAP1 POP SWAP2 SWAP1 POP JUMP JUMPDEST PUSH1 0x40 DUP3 ADD PUSH1 0x0 DUP3 ADD MLOAD PUSH2 0x1E3C PUSH1 0x0 DUP6 ADD DUP3 PUSH2 0x1C9D JUMP JUMPDEST POP PUSH1 0x20 DUP3 ADD MLOAD PUSH2 0x1E4F PUSH1 0x20 DUP6 ADD DUP3 PUSH2 0x1ED6 JUMP JUMPDEST POP POP POP POP JUMP JUMPDEST PUSH1 0x0 DUP3 ADD PUSH1 0x0 DUP3 ADD MLOAD PUSH2 0x1E68 DUP5 DUP3 PUSH2 0x1C3D JUMP JUMPDEST SWAP4 POP POP PUSH1 0x20 DUP3 ADD MLOAD PUSH2 0x1E7A DUP5 DUP3 PUSH2 0x1C3D JUMP JUMPDEST SWAP4 POP POP PUSH1 0x40 DUP3 ADD MLOAD PUSH2 0x1E8C DUP5 DUP3 PUSH2 0x1C3D JUMP JUMPDEST SWAP4 POP POP PUSH1 0x60 DUP3 ADD MLOAD PUSH2 0x1E9E DUP5 DUP3 PUSH2 0x1C85 JUMP JUMPDEST SWAP4 POP POP PUSH1 0x80 DUP3 ADD MLOAD PUSH2 0x1EB0 DUP5 DUP3 PUSH2 0x1C85 JUMP JUMPDEST SWAP4 POP POP POP POP POP JUMP JUMPDEST PUSH2 0x1EC1 DUP2 PUSH2 0x2437 JUMP JUMPDEST DUP3 MSTORE POP POP JUMP JUMPDEST PUSH2 0x1ED0 DUP2 PUSH2 0x24E8 JUMP JUMPDEST DUP3 MSTORE POP POP JUMP JUMPDEST PUSH2 0x1EDF DUP2 PUSH2 0x2465 JUMP JUMPDEST DUP3 MSTORE POP POP JUMP JUMPDEST PUSH2 0x1EEE DUP2 PUSH2 0x2465 JUMP JUMPDEST DUP3 MSTORE POP POP JUMP JUMPDEST PUSH2 0x1EFD DUP2 PUSH2 0x2465 JUMP JUMPDEST DUP3 MSTORE POP POP JUMP JUMPDEST PUSH2 0x1F0C DUP2 PUSH2 0x246F JUMP JUMPDEST DUP3 MSTORE POP POP JUMP JUMPDEST PUSH2 0x1F1B DUP2 PUSH2 0x247F JUMP JUMPDEST DUP3 MSTORE POP POP JUMP JUMPDEST PUSH2 0x1F2A DUP2 PUSH2 0x2493 JUMP JUMPDEST DUP3 MSTORE POP POP JUMP JUMPDEST PUSH1 0x0 PUSH2 0x1F3B DUP3 PUSH2 0x1E03 JUMP JUMPDEST SWAP2 POP DUP2 SWAP1 POP SWAP2 SWAP1 POP JUMP JUMPDEST PUSH1 0x0 PUSH2 0x1F51 DUP3 DUP5 PUSH2 0x1E55 JUMP JUMPDEST PUSH1 0xA0 DUP3 ADD SWAP2 POP DUP2 SWAP1 POP SWAP3 SWAP2 POP POP JUMP JUMPDEST PUSH1 0x0 PUSH1 0x40 DUP3 ADD SWAP1 POP PUSH2 0x1F75 PUSH1 0x0 DUP4 ADD DUP6 PUSH2 0x1CAC JUMP JUMPDEST PUSH2 0x1F82 PUSH1 0x20 DUP4 ADD DUP5 PUSH2 0x1EE5 JUMP JUMPDEST SWAP4 SWAP3 POP POP POP JUMP JUMPDEST PUSH1 0x0 PUSH1 0x40 DUP3 ADD SWAP1 POP PUSH2 0x1F9E PUSH1 0x0 DUP4 ADD DUP6 PUSH2 0x1CBB JUMP JUMPDEST PUSH2 0x1FAB PUSH1 0x20 DUP4 ADD DUP5 PUSH2 0x1CBB JUMP JUMPDEST SWAP4 SWAP3 POP POP POP JUMP JUMPDEST PUSH1 0x0 PUSH1 0xA0 DUP3 ADD SWAP1 POP PUSH2 0x1FC7 PUSH1 0x0 DUP4 ADD DUP9 PUSH2 0x1CBB JUMP JUMPDEST PUSH2 0x1FD4 PUSH1 0x20 DUP4 ADD DUP8 PUSH2 0x1CBB JUMP JUMPDEST PUSH2 0x1FE1 PUSH1 0x40 DUP4 ADD DUP7 PUSH2 0x1CBB JUMP JUMPDEST PUSH2 0x1FEE PUSH1 0x60 DUP4 ADD DUP6 PUSH2 0x1EE5 JUMP JUMPDEST PUSH2 0x1FFB PUSH1 0x80 DUP4 ADD DUP5 PUSH2 0x1EE5 JUMP JUMPDEST SWAP7 SWAP6 POP POP POP POP POP POP JUMP JUMPDEST PUSH1 0x0 PUSH1 0x20 DUP3 ADD SWAP1 POP DUP2 DUP2 SUB PUSH1 0x0 DUP4 ADD MSTORE PUSH2 0x201F DUP2 DUP5 PUSH2 0x1CD9 JUMP JUMPDEST SWAP1 POP SWAP3 SWAP2 POP POP JUMP JUMPDEST PUSH1 0x0 PUSH1 0x60 DUP3 ADD SWAP1 POP PUSH2 0x203C PUSH1 0x0 DUP4 ADD DUP5 PUSH2 0x1D37 JUMP JUMPDEST SWAP3 SWAP2 POP POP JUMP JUMPDEST PUSH1 0x0 PUSH1 0x40 DUP3 ADD SWAP1 POP PUSH2 0x2057 PUSH1 0x0 DUP4 ADD DUP6 PUSH2 0x1D8E JUMP JUMPDEST DUP2 DUP2 SUB PUSH1 0x20 DUP4 ADD MSTORE PUSH2 0x2069 DUP2 DUP5 PUSH2 0x1DAC JUMP JUMPDEST SWAP1 POP SWAP4 SWAP3 POP POP POP JUMP JUMPDEST PUSH1 0x0 PUSH1 0x20 DUP3 ADD SWAP1 POP PUSH2 0x2087 PUSH1 0x0 DUP4 ADD DUP5 PUSH2 0x1D9D JUMP JUMPDEST SWAP3 SWAP2 POP POP JUMP JUMPDEST PUSH1 0x0 PUSH1 0xA0 DUP3 ADD SWAP1 POP PUSH2 0x20A2 PUSH1 0x0 DUP4 ADD DUP9 PUSH2 0x1D9D JUMP JUMPDEST PUSH2 0x20AF PUSH1 0x20 DUP4 ADD DUP8 PUSH2 0x1F12 JUMP JUMPDEST PUSH2 0x20BC PUSH1 0x40 DUP4 ADD DUP7 PUSH2 0x1EB8 JUMP JUMPDEST PUSH2 0x20C9 PUSH1 0x60 DUP4 ADD DUP6 PUSH2 0x1F03 JUMP JUMPDEST PUSH2 0x20D6 PUSH1 0x80 DUP4 ADD DUP5 PUSH2 0x1EC7 JUMP JUMPDEST SWAP7 SWAP6 POP POP POP POP POP POP JUMP JUMPDEST PUSH1 0x0 PUSH1 0x20 DUP3 ADD SWAP1 POP PUSH2 0x20F5 PUSH1 0x0 DUP4 ADD DUP5 PUSH2 0x1DE5 JUMP JUMPDEST SWAP3 SWAP2 POP POP JUMP JUMPDEST PUSH1 0x0 PUSH1 0x20 DUP3 ADD SWAP1 POP PUSH2 0x2110 PUSH1 0x0 DUP4 ADD DUP5 PUSH2 0x1DF4 JUMP JUMPDEST SWAP3 SWAP2 POP POP JUMP JUMPDEST PUSH1 0x0 PUSH1 0x20 DUP3 ADD SWAP1 POP PUSH2 0x212B PUSH1 0x0 DUP4 ADD DUP5 PUSH2 0x1EB8 JUMP JUMPDEST SWAP3 SWAP2 POP POP JUMP JUMPDEST PUSH1 0x0 PUSH1 0x20 DUP3 ADD SWAP1 POP PUSH2 0x2146 PUSH1 0x0 DUP4 ADD DUP5 PUSH2 0x1EE5 JUMP JUMPDEST SWAP3 SWAP2 POP POP JUMP JUMPDEST PUSH1 0x0 PUSH1 0x20 DUP3 ADD SWAP1 POP PUSH2 0x2161 PUSH1 0x0 DUP4 ADD DUP5 PUSH2 0x1F03 JUMP JUMPDEST SWAP3 SWAP2 POP POP JUMP JUMPDEST PUSH1 0x0 PUSH1 0x20 DUP3 ADD SWAP1 POP PUSH2 0x217C PUSH1 0x0 DUP4 ADD DUP5 PUSH2 0x1F12 JUMP JUMPDEST SWAP3 SWAP2 POP POP JUMP JUMPDEST PUSH1 0x0 PUSH1 0x20 DUP3 ADD SWAP1 POP PUSH2 0x2197 PUSH1 0x0 DUP4 ADD DUP5 PUSH2 0x1F21 JUMP JUMPDEST SWAP3 SWAP2 POP POP JUMP JUMPDEST PUSH1 0x0 PUSH2 0x21A7 PUSH2 0x21B8 JUMP JUMPDEST SWAP1 POP PUSH2 0x21B3 DUP3 DUP3 PUSH2 0x253C JUMP JUMPDEST SWAP2 SWAP1 POP JUMP JUMPDEST PUSH1 0x0 PUSH1 0x40 MLOAD SWAP1 POP SWAP1 JUMP JUMPDEST PUSH1 0x0 PUSH8 0xFFFFFFFFFFFFFFFF DUP3 GT ISZERO PUSH2 0x21DD JUMPI PUSH2 0x21DC PUSH2 0x26A3 JUMP JUMPDEST JUMPDEST PUSH1 0x20 DUP3 MUL SWAP1 POP SWAP2 SWAP1 POP JUMP JUMPDEST PUSH1 0x0 PUSH8 0xFFFFFFFFFFFFFFFF DUP3 GT ISZERO PUSH2 0x2203 JUMPI PUSH2 0x2202 PUSH2 0x26A3 JUMP JUMPDEST JUMPDEST PUSH1 0x20 DUP3 MUL SWAP1 POP PUSH1 0x20 DUP2 ADD SWAP1 POP SWAP2 SWAP1 POP JUMP JUMPDEST PUSH1 0x0 PUSH8 0xFFFFFFFFFFFFFFFF DUP3 GT ISZERO PUSH2 0x222F JUMPI PUSH2 0x222E PUSH2 0x26A3 JUMP JUMPDEST JUMPDEST PUSH2 0x2238 DUP3 PUSH2 0x26F0 JUMP JUMPDEST SWAP1 POP PUSH1 0x20 DUP2 ADD SWAP1 POP SWAP2 SWAP1 POP JUMP JUMPDEST PUSH1 0x0 DUP2 SWAP1 POP PUSH1 0x20 DUP3 ADD SWAP1 POP SWAP2 SWAP1 POP JUMP JUMPDEST PUSH1 0x0 DUP2 SWAP1 POP SWAP2 SWAP1 POP JUMP JUMPDEST PUSH1 0x0 DUP2 MLOAD SWAP1 POP SWAP2 SWAP1 POP JUMP JUMPDEST PUSH1 0x0 PUSH1 0x3 SWAP1 POP SWAP2 SWAP1 POP JUMP JUMPDEST PUSH1 0x0 DUP2 MLOAD SWAP1 POP SWAP2 SWAP1 POP JUMP JUMPDEST PUSH1 0x0 PUSH1 0x20 DUP3 ADD SWAP1 POP SWAP2 SWAP1 POP JUMP JUMPDEST PUSH1 0x0 PUSH1 0x20 DUP3 ADD SWAP1 POP SWAP2 SWAP1 POP JUMP JUMPDEST PUSH1 0x0 DUP3 DUP3 MSTORE PUSH1 0x20 DUP3 ADD SWAP1 POP SWAP3 SWAP2 POP POP JUMP JUMPDEST PUSH1 0x0 DUP2 SWAP1 POP SWAP3 SWAP2 POP POP JUMP JUMPDEST PUSH1 0x0 DUP3 DUP3 MSTORE PUSH1 0x20 DUP3 ADD SWAP1 POP SWAP3 SWAP2 POP POP JUMP JUMPDEST PUSH1 0x0 DUP2 SWAP1 POP SWAP3 SWAP2 POP POP JUMP JUMPDEST PUSH1 0x0 PUSH2 0x22DD DUP3 PUSH2 0x2465 JUMP JUMPDEST SWAP2 POP PUSH2 0x22E8 DUP4 PUSH2 0x2465 JUMP JUMPDEST SWAP3 POP DUP3 PUSH32 0xFFFFFFFFFFFFFFFFFFFFFFFFFFFFFFFFFFFFFFFFFFFFFFFFFFFFFFFFFFFFFFFF SUB DUP3 GT ISZERO PUSH2 0x231D JUMPI PUSH2 0x231C PUSH2 0x25E7 JUMP JUMPDEST JUMPDEST DUP3 DUP3 ADD SWAP1 POP SWAP3 SWAP2 POP POP JUMP JUMPDEST PUSH1 0x0 PUSH2 0x2333 DUP3 PUSH2 0x2465 JUMP JUMPDEST SWAP2 POP PUSH2 0x233E DUP4 PUSH2 0x2465 JUMP JUMPDEST SWAP3 POP DUP2 PUSH32 0xFFFFFFFFFFFFFFFFFFFFFFFFFFFFFFFFFFFFFFFFFFFFFFFFFFFFFFFFFFFFFFFF DIV DUP4 GT DUP3 ISZERO ISZERO AND ISZERO PUSH2 0x2377 JUMPI PUSH2 0x2376 PUSH2 0x25E7 JUMP JUMPDEST JUMPDEST DUP3 DUP3 MUL SWAP1 POP SWAP3 SWAP2 POP POP JUMP JUMPDEST PUSH1 0x0 PUSH2 0x238D DUP3 PUSH2 0x2465 JUMP JUMPDEST SWAP2 POP PUSH2 0x2398 DUP4 PUSH2 0x2465 JUMP JUMPDEST SWAP3 POP DUP3 DUP3 LT ISZERO PUSH2 0x23AB JUMPI PUSH2 0x23AA PUSH2 0x25E7 JUMP JUMPDEST JUMPDEST DUP3 DUP3 SUB SWAP1 POP SWAP3 SWAP2 POP POP JUMP JUMPDEST PUSH1 0x0 PUSH2 0x23C1 DUP3 PUSH2 0x2493 JUMP JUMPDEST SWAP2 POP PUSH2 0x23CC DUP4 PUSH2 0x2493 JUMP JUMPDEST SWAP3 POP DUP3 DUP3 LT ISZERO PUSH2 0x23DF JUMPI PUSH2 0x23DE PUSH2 0x25E7 JUMP JUMPDEST JUMPDEST DUP3 DUP3 SUB SWAP1 POP SWAP3 SWAP2 POP POP JUMP JUMPDEST PUSH1 0x0 PUSH2 0x23F5 DUP3 PUSH2 0x2445 JUMP JUMPDEST SWAP1 POP SWAP2 SWAP1 POP JUMP JUMPDEST PUSH1 0x0 PUSH2 0x2407 DUP3 PUSH2 0x2445 JUMP JUMPDEST SWAP1 POP SWAP2 SWAP1 POP JUMP JUMPDEST PUSH1 0x0 DUP2 ISZERO ISZERO SWAP1 POP SWAP2 SWAP1 POP JUMP JUMPDEST PUSH1 0x0 DUP2 SWAP1 POP SWAP2 SWAP1 POP JUMP JUMPDEST PUSH1 0x0 DUP2 SWAP1 POP PUSH2 0x2432 DUP3 PUSH2 0x2704 JUMP JUMPDEST SWAP2 SWAP1 POP JUMP JUMPDEST PUSH1 0x0 PUSH2 0xFFFF DUP3 AND SWAP1 POP SWAP2 SWAP1 POP JUMP JUMPDEST PUSH1 0x0 PUSH20 0xFFFFFFFFFFFFFFFFFFFFFFFFFFFFFFFFFFFFFFFF DUP3 AND SWAP1 POP SWAP2 SWAP1 POP JUMP JUMPDEST PUSH1 0x0 DUP2 SWAP1 POP SWAP2 SWAP1 POP JUMP JUMPDEST PUSH1 0x0 PUSH4 0xFFFFFFFF DUP3 AND SWAP1 POP SWAP2 SWAP1 POP JUMP JUMPDEST PUSH1 0x0 PUSH8 0xFFFFFFFFFFFFFFFF DUP3 AND SWAP1 POP SWAP2 SWAP1 POP JUMP JUMPDEST PUSH1 0x0 PUSH1 0xFF DUP3 AND SWAP1 POP SWAP2 SWAP1 POP JUMP JUMPDEST PUSH1 0x0 PUSH2 0x24AB DUP3 PUSH2 0x24C4 JUMP JUMPDEST SWAP1 POP SWAP2 SWAP1 POP JUMP JUMPDEST PUSH1 0x0 PUSH2 0x24BD DUP3 PUSH2 0x2424 JUMP JUMPDEST SWAP1 POP SWAP2 SWAP1 POP JUMP JUMPDEST PUSH1 0x0 PUSH2 0x24CF DUP3 PUSH2 0x24D6 JUMP JUMPDEST SWAP1 POP SWAP2 SWAP1 POP JUMP JUMPDEST PUSH1 0x0 PUSH2 0x24E1 DUP3 PUSH2 0x2445 JUMP JUMPDEST SWAP1 POP SWAP2 SWAP1 POP JUMP JUMPDEST PUSH1 0x0 PUSH2 0x24F3 DUP3 PUSH2 0x2437 JUMP JUMPDEST SWAP1 POP SWAP2 SWAP1 POP JUMP JUMPDEST DUP3 DUP2 DUP4 CALLDATACOPY PUSH1 0x0 DUP4 DUP4 ADD MSTORE POP POP POP JUMP JUMPDEST PUSH1 0x0 JUMPDEST DUP4 DUP2 LT ISZERO PUSH2 0x2527 JUMPI DUP1 DUP3 ADD MLOAD DUP2 DUP5 ADD MSTORE PUSH1 0x20 DUP2 ADD SWAP1 POP PUSH2 0x250C JUMP JUMPDEST DUP4 DUP2 GT ISZERO PUSH2 0x2536 JUMPI PUSH1 0x0 DUP5 DUP5 ADD MSTORE JUMPDEST POP POP POP POP JUMP JUMPDEST PUSH2 0x2545 DUP3 PUSH2 0x26F0 JUMP JUMPDEST DUP2 ADD DUP2 DUP2 LT PUSH8 0xFFFFFFFFFFFFFFFF DUP3 GT OR ISZERO PUSH2 0x2564 JUMPI PUSH2 0x2563 PUSH2 0x26A3 JUMP JUMPDEST JUMPDEST DUP1 PUSH1 0x40 MSTORE POP POP POP JUMP JUMPDEST PUSH1 0x0 PUSH2 0x2578 DUP3 PUSH2 0x2465 JUMP JUMPDEST SWAP2 POP PUSH32 0xFFFFFFFFFFFFFFFFFFFFFFFFFFFFFFFFFFFFFFFFFFFFFFFFFFFFFFFFFFFFFFFF DUP3 EQ ISZERO PUSH2 0x25AB JUMPI PUSH2 0x25AA PUSH2 0x25E7 JUMP JUMPDEST JUMPDEST PUSH1 0x1 DUP3 ADD SWAP1 POP SWAP2 SWAP1 POP JUMP JUMPDEST PUSH1 0x0 PUSH2 0x25C1 DUP3 PUSH2 0x2465 JUMP JUMPDEST SWAP2 POP PUSH2 0x25CC DUP4 PUSH2 0x2465 JUMP JUMPDEST SWAP3 POP DUP3 PUSH2 0x25DC JUMPI PUSH2 0x25DB PUSH2 0x2616 JUMP JUMPDEST JUMPDEST DUP3 DUP3 MOD SWAP1 POP SWAP3 SWAP2 POP POP JUMP JUMPDEST PUSH32 0x4E487B7100000000000000000000000000000000000000000000000000000000 PUSH1 0x0 MSTORE PUSH1 0x11 PUSH1 0x4 MSTORE PUSH1 0x24 PUSH1 0x0 REVERT JUMPDEST PUSH32 0x4E487B7100000000000000000000000000000000000000000000000000000000 PUSH1 0x0 MSTORE PUSH1 0x12 PUSH1 0x4 MSTORE PUSH1 0x24 PUSH1 0x0 REVERT JUMPDEST PUSH32 0x4E487B7100000000000000000000000000000000000000000000000000000000 PUSH1 0x0 MSTORE PUSH1 0x21 PUSH1 0x4 MSTORE PUSH1 0x24 PUSH1 0x0 REVERT JUMPDEST PUSH32 0x4E487B7100000000000000000000000000000000000000000000000000000000 PUSH1 0x0 MSTORE PUSH1 0x32 PUSH1 0x4 MSTORE PUSH1 0x24 PUSH1 0x0 REVERT JUMPDEST PUSH32 0x4E487B7100000000000000000000000000000000000000000000000000000000 PUSH1 0x0 MSTORE PUSH1 0x41 PUSH1 0x4 MSTORE PUSH1 0x24 PUSH1 0x0 REVERT JUMPDEST PUSH1 0x0 DUP1 REVERT JUMPDEST PUSH1 0x0 DUP1 REVERT JUMPDEST PUSH1 0x0 DUP1 REVERT JUMPDEST PUSH1 0x0 DUP1 REVERT JUMPDEST PUSH1 0x0 DUP1 REVERT JUMPDEST PUSH1 0x0 DUP1 REVERT JUMPDEST PUSH1 0x0 PUSH1 0x1F NOT PUSH1 0x1F DUP4 ADD AND SWAP1 POP SWAP2 SWAP1 POP JUMP JUMPDEST POP JUMP JUMPDEST PUSH1 0x2 DUP2 LT PUSH2 0x2715 JUMPI PUSH2 0x2714 PUSH2 0x2645 JUMP JUMPDEST JUMPDEST POP JUMP JUMPDEST PUSH2 0x2721 DUP2 PUSH2 0x2465 JUMP JUMPDEST DUP2 EQ PUSH2 0x272C JUMPI PUSH1 0x0 DUP1 REVERT JUMPDEST POP JUMP INVALID LOG2 PUSH5 0x6970667358 0x22 SLT KECCAK256 SGT 0x5C 0xE4 PUSH17 0xE75B2929928580787784BBBA4701807C91 0xC2 SLT SWAP9 DUP6 0xF 0x22 0x5D 0xB8 0x22 SWAP7 0xBF PUSH5 0x736F6C6343 STOP ADDMOD SMOD STOP CALLER "
        },
        "gasEstimates": {
          "creation": {
            "codeDepositCost": "2017000",
            "executionCost": "infinite",
            "totalCost": "infinite"
          },
          "external": {
            "NUM_SAVED_WINNER_ROUNDS()": "379",
            "NUM_TICKETS()": "446",
            "NUM_WINNERS()": "380",
            "NUM_WORDS()": "402",
            "REQUEST_CONFIRMATIONS()": "381",
            "WINNER1_QUOTE()": "381",
            "WINNER2_QUOTE()": "425",
            "WINNER3_QUOTE()": "382",
            "checkUpkeep(bytes)": "infinite",
            "enterRaffle(uint256)": "infinite",
            "getBets()": "infinite",
            "getRandomTickets(uint256[3])": "infinite",
            "i_callbackGasLimit()": "2587",
            "i_entranceFee()": "infinite",
            "i_gasLane()": "2540",
            "i_interval()": "infinite",
            "i_subscriptionId()": "2583",
            "i_vrfCoordinator()": "infinite",
            "numPlayers()": "2513",
            "performUpkeep(bytes)": "infinite",
            "rawFulfillRandomWords(uint256,uint256[])": "infinite",
            "s_bets(uint256)": "infinite",
            "s_lastTimeStamp()": "2497",
            "s_prizePool()": "2518",
            "s_raffleState()": "2627",
            "s_raffle_round()": "2517",
            "s_recentWinners(uint256)": "infinite",
            "s_recentWinnersIdx()": "2562"
          },
          "internal": {
            "addBet(address payable,uint256)": "infinite",
            "findWinners(uint256[3] memory)": "infinite",
            "fulfillRandomWords(uint256,uint256[] memory)": "infinite",
            "removeBets()": "infinite",
            "storeGameResult(address[3] memory,uint256,uint256)": "infinite"
          }
        },
        "methodIdentifiers": {
          "NUM_SAVED_WINNER_ROUNDS()": "d4882fed",
          "NUM_TICKETS()": "b9c92140",
          "NUM_WINNERS()": "cad0338c",
          "NUM_WORDS()": "72cf6e34",
          "REQUEST_CONFIRMATIONS()": "67f082b0",
          "WINNER1_QUOTE()": "92c65528",
          "WINNER2_QUOTE()": "6b19d9ed",
          "WINNER3_QUOTE()": "0dc98972",
          "checkUpkeep(bytes)": "6e04ff0d",
          "enterRaffle(uint256)": "2e519f90",
          "getBets()": "a6afd5fd",
          "getRandomTickets(uint256[3])": "a6915997",
          "i_callbackGasLimit()": "d757d027",
          "i_entranceFee()": "7ea3e6c1",
          "i_gasLane()": "8e879c8a",
          "i_interval()": "6919207d",
          "i_subscriptionId()": "470cdf97",
          "i_vrfCoordinator()": "aebc4550",
          "numPlayers()": "97b2f556",
          "performUpkeep(bytes)": "4585e33b",
          "rawFulfillRandomWords(uint256,uint256[])": "1fe543e3",
          "s_bets(uint256)": "e5edd008",
          "s_lastTimeStamp()": "34854043",
          "s_prizePool()": "d47e690a",
          "s_raffleState()": "cc45483f",
          "s_raffle_round()": "e26befe6",
          "s_recentWinners(uint256)": "adbd1dd7",
          "s_recentWinnersIdx()": "247bfabd"
        }
      },
      "storageLayout": {
        "storage": [
          {
            "astId": 198,
            "contract": "contracts/Raffle.sol:Raffle",
            "label": "s_bets",
            "offset": 0,
            "slot": "0",
            "type": "t_array(t_struct(playerTicket)194_storage)dyn_storage"
          },
          {
            "astId": 201,
            "contract": "contracts/Raffle.sol:Raffle",
            "label": "s_raffleState",
            "offset": 0,
            "slot": "1",
            "type": "t_enum(RaffleState)165"
          },
          {
            "astId": 209,
            "contract": "contracts/Raffle.sol:Raffle",
            "label": "s_players",
            "offset": 0,
            "slot": "2",
            "type": "t_mapping(t_address,t_uint256)"
          },
          {
            "astId": 211,
            "contract": "contracts/Raffle.sol:Raffle",
            "label": "s_lastTimeStamp",
            "offset": 0,
            "slot": "3",
            "type": "t_uint256"
          },
          {
            "astId": 216,
            "contract": "contracts/Raffle.sol:Raffle",
            "label": "i_gasLane",
            "offset": 0,
            "slot": "4",
            "type": "t_bytes32"
          },
          {
            "astId": 218,
            "contract": "contracts/Raffle.sol:Raffle",
            "label": "i_subscriptionId",
            "offset": 0,
            "slot": "5",
            "type": "t_uint64"
          },
          {
            "astId": 220,
            "contract": "contracts/Raffle.sol:Raffle",
            "label": "i_callbackGasLimit",
            "offset": 8,
            "slot": "5",
            "type": "t_uint32"
          },
          {
            "astId": 222,
            "contract": "contracts/Raffle.sol:Raffle",
            "label": "s_prizePool",
            "offset": 0,
            "slot": "6",
            "type": "t_uint256"
          },
          {
            "astId": 238,
            "contract": "contracts/Raffle.sol:Raffle",
            "label": "s_recentWinners",
            "offset": 0,
            "slot": "7",
            "type": "t_array(t_struct(recentWinner)233_storage)10_storage"
          },
          {
            "astId": 240,
            "contract": "contracts/Raffle.sol:Raffle",
            "label": "s_recentWinnersIdx",
            "offset": 0,
            "slot": "57",
            "type": "t_uint8"
          },
          {
            "astId": 243,
            "contract": "contracts/Raffle.sol:Raffle",
            "label": "s_raffle_round",
            "offset": 0,
            "slot": "58",
            "type": "t_uint256"
          },
          {
            "astId": 245,
            "contract": "contracts/Raffle.sol:Raffle",
            "label": "totTickets",
            "offset": 0,
            "slot": "59",
            "type": "t_uint256"
          }
        ],
        "types": {
          "t_address": {
            "encoding": "inplace",
            "label": "address",
            "numberOfBytes": "20"
          },
          "t_address_payable": {
            "encoding": "inplace",
            "label": "address payable",
            "numberOfBytes": "20"
          },
          "t_array(t_struct(playerTicket)194_storage)dyn_storage": {
            "base": "t_struct(playerTicket)194_storage",
            "encoding": "dynamic_array",
            "label": "struct Raffle.playerTicket[]",
            "numberOfBytes": "32"
          },
          "t_array(t_struct(recentWinner)233_storage)10_storage": {
            "base": "t_struct(recentWinner)233_storage",
            "encoding": "inplace",
            "label": "struct Raffle.recentWinner[10]",
            "numberOfBytes": "1600"
          },
          "t_bytes32": {
            "encoding": "inplace",
            "label": "bytes32",
            "numberOfBytes": "32"
          },
          "t_enum(RaffleState)165": {
            "encoding": "inplace",
            "label": "enum Raffle.RaffleState",
            "numberOfBytes": "1"
          },
          "t_mapping(t_address,t_uint256)": {
            "encoding": "mapping",
            "key": "t_address",
            "label": "mapping(address => uint256)",
            "numberOfBytes": "32",
            "value": "t_uint256"
          },
          "t_struct(playerTicket)194_storage": {
            "encoding": "inplace",
            "label": "struct Raffle.playerTicket",
            "members": [
              {
                "astId": 191,
                "contract": "contracts/Raffle.sol:Raffle",
                "label": "player",
                "offset": 0,
                "slot": "0",
                "type": "t_address_payable"
              },
              {
                "astId": 193,
                "contract": "contracts/Raffle.sol:Raffle",
                "label": "tickets",
                "offset": 0,
                "slot": "1",
                "type": "t_uint256"
              }
            ],
            "numberOfBytes": "64"
          },
          "t_struct(recentWinner)233_storage": {
            "encoding": "inplace",
            "label": "struct Raffle.recentWinner",
            "members": [
              {
                "astId": 224,
                "contract": "contracts/Raffle.sol:Raffle",
                "label": "player1",
                "offset": 0,
                "slot": "0",
                "type": "t_address"
              },
              {
                "astId": 226,
                "contract": "contracts/Raffle.sol:Raffle",
                "label": "player2",
                "offset": 0,
                "slot": "1",
                "type": "t_address"
              },
              {
                "astId": 228,
                "contract": "contracts/Raffle.sol:Raffle",
                "label": "player3",
                "offset": 0,
                "slot": "2",
                "type": "t_address"
              },
              {
                "astId": 230,
                "contract": "contracts/Raffle.sol:Raffle",
                "label": "prizePool",
                "offset": 0,
                "slot": "3",
                "type": "t_uint256"
              },
              {
                "astId": 232,
                "contract": "contracts/Raffle.sol:Raffle",
                "label": "raffleTime",
                "offset": 0,
                "slot": "4",
                "type": "t_uint256"
              }
            ],
            "numberOfBytes": "160"
          },
          "t_uint256": {
            "encoding": "inplace",
            "label": "uint256",
            "numberOfBytes": "32"
          },
          "t_uint32": {
            "encoding": "inplace",
            "label": "uint32",
            "numberOfBytes": "4"
          },
          "t_uint64": {
            "encoding": "inplace",
            "label": "uint64",
            "numberOfBytes": "8"
          },
          "t_uint8": {
            "encoding": "inplace",
            "label": "uint8",
            "numberOfBytes": "1"
          }
        }
      },
      "userdoc": {
        "kind": "user",
        "methods": {},
        "version": 1
      }
    }
  }
}