{
  "contracts/Raffle.sol": {
    "Raffle": {
      "abi": [
        {
          "inputs": [
            {
              "internalType": "uint256",
              "name": "entranceFee",
              "type": "uint256"
            },
            {
              "internalType": "uint256",
              "name": "interval",
              "type": "uint256"
            },
            {
              "internalType": "address",
              "name": "vrfCoordinatorV2",
              "type": "address"
            },
            {
              "internalType": "bytes32",
              "name": "gasLane",
              "type": "bytes32"
            },
            {
              "internalType": "uint64",
              "name": "subscriptionId",
              "type": "uint64"
            },
            {
              "internalType": "uint32",
              "name": "callbackGasLimit",
              "type": "uint32"
            }
          ],
          "stateMutability": "nonpayable",
          "type": "constructor"
        },
        {
          "inputs": [
            {
              "internalType": "address",
              "name": "have",
              "type": "address"
            },
            {
              "internalType": "address",
              "name": "want",
              "type": "address"
            }
          ],
          "name": "OnlyCoordinatorCanFulfill",
          "type": "error"
        },
        {
          "inputs": [],
          "name": "Raffle__RaffleNotOpen",
          "type": "error"
        },
        {
          "inputs": [],
          "name": "Raffle__SendMoreToEnterRaffle",
          "type": "error"
        },
        {
          "inputs": [],
          "name": "Raffle__TransferFailed",
          "type": "error"
        },
        {
          "inputs": [],
          "name": "Raffle__UpkeepNotNeeded",
          "type": "error"
        },
        {
          "anonymous": false,
          "inputs": [
            {
              "indexed": true,
              "internalType": "address",
              "name": "player",
              "type": "address"
            },
            {
              "indexed": true,
              "internalType": "uint256",
              "name": "tickets",
              "type": "uint256"
            }
          ],
          "name": "RaffleEnter",
          "type": "event"
        },
        {
          "anonymous": false,
          "inputs": [
            {
              "indexed": true,
              "internalType": "uint256",
              "name": "requestId",
              "type": "uint256"
            }
          ],
          "name": "RequestedRaffleWinner",
          "type": "event"
        },
        {
          "anonymous": false,
          "inputs": [
            {
              "components": [
                {
                  "internalType": "address",
                  "name": "player1",
                  "type": "address"
                },
                {
                  "internalType": "address",
                  "name": "player2",
                  "type": "address"
                },
                {
                  "internalType": "address",
                  "name": "player3",
                  "type": "address"
                },
                {
                  "internalType": "uint256",
                  "name": "prizePool",
                  "type": "uint256"
                },
                {
                  "internalType": "uint256",
                  "name": "raffleTime",
                  "type": "uint256"
                }
              ],
              "indexed": true,
              "internalType": "struct Raffle.recentWinner",
              "name": "s_recentWinner",
              "type": "tuple"
            }
          ],
          "name": "WinnerPicked",
          "type": "event"
        },
        {
          "inputs": [],
          "name": "NUM_SAVED_WINNER_ROUNDS",
          "outputs": [
            {
              "internalType": "uint8",
              "name": "",
              "type": "uint8"
            }
          ],
          "stateMutability": "view",
          "type": "function"
        },
        {
          "inputs": [],
          "name": "NUM_WINNERS",
          "outputs": [
            {
              "internalType": "uint8",
              "name": "",
              "type": "uint8"
            }
          ],
          "stateMutability": "view",
          "type": "function"
        },
        {
          "inputs": [],
          "name": "NUM_WIN_TICKETS",
          "outputs": [
            {
              "internalType": "uint8",
              "name": "",
              "type": "uint8"
            }
          ],
          "stateMutability": "view",
          "type": "function"
        },
        {
          "inputs": [],
          "name": "NUM_WORDS",
          "outputs": [
            {
              "internalType": "uint16",
              "name": "",
              "type": "uint16"
            }
          ],
          "stateMutability": "view",
          "type": "function"
        },
        {
          "inputs": [],
          "name": "REQUEST_CONFIRMATIONS",
          "outputs": [
            {
              "internalType": "uint16",
              "name": "",
              "type": "uint16"
            }
          ],
          "stateMutability": "view",
          "type": "function"
        },
        {
          "inputs": [],
          "name": "WINNER1_QUOTE",
          "outputs": [
            {
              "internalType": "uint8",
              "name": "",
              "type": "uint8"
            }
          ],
          "stateMutability": "view",
          "type": "function"
        },
        {
          "inputs": [],
          "name": "WINNER2_QUOTE",
          "outputs": [
            {
              "internalType": "uint8",
              "name": "",
              "type": "uint8"
            }
          ],
          "stateMutability": "view",
          "type": "function"
        },
        {
          "inputs": [],
          "name": "WINNER3_QUOTE",
          "outputs": [
            {
              "internalType": "uint8",
              "name": "",
              "type": "uint8"
            }
          ],
          "stateMutability": "view",
          "type": "function"
        },
        {
          "inputs": [
            {
              "internalType": "bytes",
              "name": "",
              "type": "bytes"
            }
          ],
          "name": "checkUpkeep",
          "outputs": [
            {
              "internalType": "bool",
              "name": "upkeepNeeded",
              "type": "bool"
            },
            {
              "internalType": "bytes",
              "name": "",
              "type": "bytes"
            }
          ],
          "stateMutability": "view",
          "type": "function"
        },
        {
          "inputs": [
            {
              "internalType": "uint256",
              "name": "tickets",
              "type": "uint256"
            }
          ],
          "name": "enterRaffle",
          "outputs": [],
          "stateMutability": "payable",
          "type": "function"
        },
        {
          "inputs": [],
          "name": "getBets",
          "outputs": [
            {
              "components": [
                {
                  "internalType": "address payable",
                  "name": "player",
                  "type": "address"
                },
                {
                  "internalType": "uint256",
                  "name": "tickets",
                  "type": "uint256"
                }
              ],
              "internalType": "struct Raffle.playerTicket[]",
              "name": "",
              "type": "tuple[]"
            }
          ],
          "stateMutability": "view",
          "type": "function"
        },
        {
          "inputs": [],
          "name": "getRecentWinners",
          "outputs": [
            {
              "components": [
                {
                  "internalType": "address",
                  "name": "player1",
                  "type": "address"
                },
                {
                  "internalType": "address",
                  "name": "player2",
                  "type": "address"
                },
                {
                  "internalType": "address",
                  "name": "player3",
                  "type": "address"
                },
                {
                  "internalType": "uint256",
                  "name": "prizePool",
                  "type": "uint256"
                },
                {
                  "internalType": "uint256",
                  "name": "raffleTime",
                  "type": "uint256"
                }
              ],
              "internalType": "struct Raffle.recentWinner[10]",
              "name": "",
              "type": "tuple[10]"
            }
          ],
          "stateMutability": "view",
          "type": "function"
        },
        {
          "inputs": [],
          "name": "i_callbackGasLimit",
          "outputs": [
            {
              "internalType": "uint32",
              "name": "",
              "type": "uint32"
            }
          ],
          "stateMutability": "view",
          "type": "function"
        },
        {
          "inputs": [],
          "name": "i_entranceFee",
          "outputs": [
            {
              "internalType": "uint256",
              "name": "",
              "type": "uint256"
            }
          ],
          "stateMutability": "view",
          "type": "function"
        },
        {
          "inputs": [],
          "name": "i_gasLane",
          "outputs": [
            {
              "internalType": "bytes32",
              "name": "",
              "type": "bytes32"
            }
          ],
          "stateMutability": "view",
          "type": "function"
        },
        {
          "inputs": [],
          "name": "i_interval",
          "outputs": [
            {
              "internalType": "uint256",
              "name": "",
              "type": "uint256"
            }
          ],
          "stateMutability": "view",
          "type": "function"
        },
        {
          "inputs": [],
          "name": "i_subscriptionId",
          "outputs": [
            {
              "internalType": "uint64",
              "name": "",
              "type": "uint64"
            }
          ],
          "stateMutability": "view",
          "type": "function"
        },
        {
          "inputs": [],
          "name": "i_vrfCoordinator",
          "outputs": [
            {
              "internalType": "contract VRFCoordinatorV2Interface",
              "name": "",
              "type": "address"
            }
          ],
          "stateMutability": "view",
          "type": "function"
        },
        {
          "inputs": [],
          "name": "numPlayers",
          "outputs": [
            {
              "internalType": "uint256",
              "name": "totPlayers",
              "type": "uint256"
            }
          ],
          "stateMutability": "view",
          "type": "function"
        },
        {
          "inputs": [
            {
              "internalType": "bytes",
              "name": "",
              "type": "bytes"
            }
          ],
          "name": "performUpkeep",
          "outputs": [],
          "stateMutability": "nonpayable",
          "type": "function"
        },
        {
          "inputs": [
            {
              "internalType": "uint256",
              "name": "requestId",
              "type": "uint256"
            },
            {
              "internalType": "uint256[]",
              "name": "randomWords",
              "type": "uint256[]"
            }
          ],
          "name": "rawFulfillRandomWords",
          "outputs": [],
          "stateMutability": "nonpayable",
          "type": "function"
        },
        {
          "inputs": [
            {
              "internalType": "uint256",
              "name": "",
              "type": "uint256"
            }
          ],
          "name": "s_bets",
          "outputs": [
            {
              "internalType": "address payable",
              "name": "player",
              "type": "address"
            },
            {
              "internalType": "uint256",
              "name": "tickets",
              "type": "uint256"
            }
          ],
          "stateMutability": "view",
          "type": "function"
        },
        {
          "inputs": [],
          "name": "s_lastTimeStamp",
          "outputs": [
            {
              "internalType": "uint256",
              "name": "",
              "type": "uint256"
            }
          ],
          "stateMutability": "view",
          "type": "function"
        },
        {
          "inputs": [],
          "name": "s_prizePool",
          "outputs": [
            {
              "internalType": "uint256",
              "name": "",
              "type": "uint256"
            }
          ],
          "stateMutability": "view",
          "type": "function"
        },
        {
          "inputs": [],
          "name": "s_raffleState",
          "outputs": [
            {
              "internalType": "enum Raffle.RaffleState",
              "name": "",
              "type": "uint8"
            }
          ],
          "stateMutability": "view",
          "type": "function"
        },
        {
          "inputs": [],
          "name": "s_raffle_round",
          "outputs": [
            {
              "internalType": "uint256",
              "name": "",
              "type": "uint256"
            }
          ],
          "stateMutability": "view",
          "type": "function"
        },
        {
          "inputs": [
            {
              "internalType": "uint256",
              "name": "",
              "type": "uint256"
            }
          ],
          "name": "s_recentWinners",
          "outputs": [
            {
              "internalType": "address",
              "name": "player1",
              "type": "address"
            },
            {
              "internalType": "address",
              "name": "player2",
              "type": "address"
            },
            {
              "internalType": "address",
              "name": "player3",
              "type": "address"
            },
            {
              "internalType": "uint256",
              "name": "prizePool",
              "type": "uint256"
            },
            {
              "internalType": "uint256",
              "name": "raffleTime",
              "type": "uint256"
            }
          ],
          "stateMutability": "view",
          "type": "function"
        },
        {
          "inputs": [],
          "name": "s_recentWinnersIdx",
          "outputs": [
            {
              "internalType": "uint8",
              "name": "",
              "type": "uint8"
            }
          ],
          "stateMutability": "view",
          "type": "function"
        },
        {
          "inputs": [],
          "name": "totTickets",
          "outputs": [
            {
              "internalType": "uint256",
              "name": "",
              "type": "uint256"
            }
          ],
          "stateMutability": "view",
          "type": "function"
        },
        {
          "inputs": [
            {
              "internalType": "uint256",
              "name": "seed",
              "type": "uint256"
            },
            {
              "internalType": "uint8",
              "name": "numWinTickets",
              "type": "uint8"
            },
            {
              "internalType": "uint256",
              "name": "_totTickets",
              "type": "uint256"
            }
          ],
          "name": "uniqueTickets",
          "outputs": [
            {
              "internalType": "uint256[3]",
              "name": "randTickets",
              "type": "uint256[3]"
            }
          ],
          "stateMutability": "pure",
          "type": "function"
        }
      ],
      "devdoc": {
        "kind": "dev",
        "methods": {},
        "version": 1
      },
      "evm": {
        "bytecode": {
          "linkReferences": {},
          "object": "6101006040526001603a553480156200001757600080fd5b5060405162002eb638038062002eb683398181016040528101906200003d919062000194565b838073ffffffffffffffffffffffffffffffffffffffff1660808173ffffffffffffffffffffffffffffffffffffffff1660601b81525050508560a081815250508460c08181525050426003819055508373ffffffffffffffffffffffffffffffffffffffff1660e08173ffffffffffffffffffffffffffffffffffffffff1660601b815250508260048190555081600560006101000a81548167ffffffffffffffff021916908367ffffffffffffffff16021790555080600560086101000a81548163ffffffff021916908363ffffffff16021790555050505050505062000323565b6000815190506200013281620002a1565b92915050565b6000815190506200014981620002bb565b92915050565b6000815190506200016081620002d5565b92915050565b6000815190506200017781620002ef565b92915050565b6000815190506200018e8162000309565b92915050565b60008060008060008060c08789031215620001b457620001b36200029c565b5b6000620001c489828a016200014f565b9650506020620001d789828a016200014f565b9550506040620001ea89828a0162000121565b9450506060620001fd89828a0162000138565b93505060806200021089828a016200017d565b92505060a06200022389828a0162000166565b9150509295509295509295565b60006200023d826200024e565b9050919050565b6000819050919050565b600073ffffffffffffffffffffffffffffffffffffffff82169050919050565b6000819050919050565b600063ffffffff82169050919050565b600067ffffffffffffffff82169050919050565b600080fd5b620002ac8162000230565b8114620002b857600080fd5b50565b620002c68162000244565b8114620002d257600080fd5b50565b620002e0816200026e565b8114620002ec57600080fd5b50565b620002fa8162000278565b81146200030657600080fd5b50565b620003148162000288565b81146200032057600080fd5b50565b60805160601c60a05160c05160e05160601c612b376200037f600039600081816109b30152610d97015260008181610aeb0152610b550152600081816107f20152610c0101526000818161071e01526107720152612b376000f3fe6080604052600436106101cd5760003560e01c806392c65528116100f7578063d47e690a11610095578063e26befe611610064578063e26befe614610658578063e5edd00814610683578063f077b974146106c1578063f125a55d146106ec576101cd565b8063d47e690a1461059a578063d4882fed146105c5578063d757d027146105f0578063ddcb646d1461061b576101cd565b8063adbd1dd7116100d1578063adbd1dd7146104d8578063aebc455014610519578063cad0338c14610544578063cc45483f1461056f576101cd565b806392c655281461045757806397b2f55614610482578063a6afd5fd146104ad576101cd565b806351a0fe4a1161016f5780636e04ff0d1161013e5780636e04ff0d1461039857806372cf6e34146103d65780637ea3e6c1146104015780638e879c8a1461042c576101cd565b806351a0fe4a146102ec57806367f082b0146103175780636919207d146103425780636b19d9ed1461036d576101cd565b80632e519f90116101ab5780632e519f9014610251578063348540431461026d5780634585e33b14610298578063470cdf97146102c1576101cd565b80630dc98972146101d25780631fe543e3146101fd578063247bfabd14610226575b600080fd5b3480156101de57600080fd5b506101e7610717565b6040516101f491906124d5565b60405180910390f35b34801561020957600080fd5b50610224600480360381019061021f9190611db6565b61071c565b005b34801561023257600080fd5b5061023b6107dc565b60405161024891906124d5565b60405180910390f35b61026b60048036038101906102669190611d5c565b6107ef565b005b34801561027957600080fd5b5061028261092b565b60405161028f919061245b565b60405180910390f35b3480156102a457600080fd5b506102bf60048036038101906102ba9190611cc6565b610931565b005b3480156102cd57600080fd5b506102d6610ac5565b6040516102e391906124ba565b60405180910390f35b3480156102f857600080fd5b50610301610adf565b60405161030e91906124d5565b60405180910390f35b34801561032357600080fd5b5061032c610ae4565b6040516103399190612440565b60405180910390f35b34801561034e57600080fd5b50610357610ae9565b604051610364919061245b565b60405180910390f35b34801561037957600080fd5b50610382610b0d565b60405161038f91906124d5565b60405180910390f35b3480156103a457600080fd5b506103bf60048036038101906103ba9190611d13565b610b12565b6040516103cd92919061236c565b60405180910390f35b3480156103e257600080fd5b506103eb610bfa565b6040516103f89190612440565b60405180910390f35b34801561040d57600080fd5b50610416610bff565b604051610423919061245b565b60405180910390f35b34801561043857600080fd5b50610441610c23565b60405161044e919061239c565b60405180910390f35b34801561046357600080fd5b5061046c610c29565b60405161047991906124d5565b60405180910390f35b34801561048e57600080fd5b50610497610c2e565b6040516104a4919061245b565b60405180910390f35b3480156104b957600080fd5b506104c2610c3a565b6040516104cf9190612313565b60405180910390f35b3480156104e457600080fd5b506104ff60048036038101906104fa9190611d5c565b610cf9565b6040516105109594939291906122c0565b60405180910390f35b34801561052557600080fd5b5061052e610d95565b60405161053b919061240a565b60405180910390f35b34801561055057600080fd5b50610559610db9565b60405161056691906124d5565b60405180910390f35b34801561057b57600080fd5b50610584610dbe565b6040516105919190612425565b60405180910390f35b3480156105a657600080fd5b506105af610dd1565b6040516105bc919061245b565b60405180910390f35b3480156105d157600080fd5b506105da610dd7565b6040516105e791906124d5565b60405180910390f35b3480156105fc57600080fd5b50610605610ddc565b604051610612919061249f565b60405180910390f35b34801561062757600080fd5b50610642600480360381019061063d9190611e12565b610df2565b60405161064f9190612351565b60405180910390f35b34801561066457600080fd5b5061066d610f3b565b60405161067a919061245b565b60405180910390f35b34801561068f57600080fd5b506106aa60048036038101906106a59190611d5c565b610f41565b6040516106b892919061226e565b60405180910390f35b3480156106cd57600080fd5b506106d6610f95565b6040516106e39190612335565b60405180910390f35b3480156106f857600080fd5b506107016110fd565b60405161070e919061245b565b60405180910390f35b600581565b7f000000000000000000000000000000000000000000000000000000000000000073ffffffffffffffffffffffffffffffffffffffff163373ffffffffffffffffffffffffffffffffffffffff16146107ce57337f00000000000000000000000000000000000000000000000000000000000000006040517f1cf993f40000000000000000000000000000000000000000000000000000000081526004016107c5929190612297565b60405180910390fd5b6107d88282611103565b5050565b603960009054906101000a900460ff1681565b807f000000000000000000000000000000000000000000000000000000000000000061081b91906126b9565b341015610854576040517f3038c00a00000000000000000000000000000000000000000000000000000000815260040160405180910390fd5b6000600181111561086857610867612a00565b5b600160009054906101000a900460ff16600181111561088a57610889612a00565b5b146108c1576040517fd24a271400000000000000000000000000000000000000000000000000000000815260040160405180910390fd5b6108cb338261142d565b34600660008282546108dd919061262c565b92505081905550803373ffffffffffffffffffffffffffffffffffffffff167fed20d2ab01271e5ab09835d58aec6ad1931db157b05b700c95c1e625b81c860060405160405180910390a350565b60035481565b600061094b60405180602001604052806000815250610b12565b50905080610985576040517f8e4bc81700000000000000000000000000000000000000000000000000000000815260040160405180910390fd5b60018060006101000a81548160ff021916908360018111156109aa576109a9612a00565b5b021790555060007f000000000000000000000000000000000000000000000000000000000000000073ffffffffffffffffffffffffffffffffffffffff16635d3b1d30600454600560009054906101000a900467ffffffffffffffff166003600560089054906101000a900463ffffffff1660016040518663ffffffff1660e01b8152600401610a3e9594939291906123b7565b602060405180830381600087803b158015610a5857600080fd5b505af1158015610a6c573d6000803e3d6000fd5b505050506040513d601f19601f82011682018060405250810190610a909190611d89565b9050807fcd6e45c8998311cab7e9d4385596cac867e20a0587194b954fa3a731c93ce78b60405160405180910390a250505050565b600560009054906101000a900467ffffffffffffffff1681565b600381565b600381565b7f000000000000000000000000000000000000000000000000000000000000000081565b600f81565b600060606000600160009054906101000a900460ff166001811115610b3a57610b39612a00565b5b60006001811115610b4e57610b4d612a00565b5b14905060007f000000000000000000000000000000000000000000000000000000000000000060035442610b829190612713565b11905060008047119050600080600080549050119050828015610ba25750835b8015610bab5750815b8015610bb45750805b9550856040518060400160405280600381526020017f30783000000000000000000000000000000000000000000000000000000000008152509550955050505050915091565b600181565b7f000000000000000000000000000000000000000000000000000000000000000081565b60045481565b605081565b60008080549050905090565b60606000805480602002602001604051908101604052809291908181526020016000905b82821015610cf057838290600052602060002090600202016040518060400160405290816000820160009054906101000a900473ffffffffffffffffffffffffffffffffffffffff1673ffffffffffffffffffffffffffffffffffffffff1673ffffffffffffffffffffffffffffffffffffffff16815260200160018201548152505081526020019060010190610c5e565b50505050905090565b600781600a8110610d0957600080fd5b600502016000915090508060000160009054906101000a900473ffffffffffffffffffffffffffffffffffffffff16908060010160009054906101000a900473ffffffffffffffffffffffffffffffffffffffff16908060020160009054906101000a900473ffffffffffffffffffffffffffffffffffffffff16908060030154908060040154905085565b7f000000000000000000000000000000000000000000000000000000000000000081565b600381565b600160009054906101000a900460ff1681565b60065481565b600a81565b600560089054906101000a900463ffffffff1681565b610dfa611a10565b600080600060018588610e0d9190612971565b610e17919061262c565b60ff1684600060038110610e2e57610e2d612a2f565b5b6020020181815250506000600190505b8660ff168160ff161015610f3057600183610e59919061262c565b92506001868985604051602001610e71929190612476565b6040516020818303038152906040528051906020012060001c610e949190612971565b610e9e919061262c565b93506001915060005b600360ff168160ff161015610ef457858160ff1660038110610ecc57610ecb612a2f565b5b6020020151851415610ee15760009250610ef4565b8080610eec90612947565b915050610ea7565b508115610f2b5783858260ff1660038110610f1257610f11612a2f565b5b602002018181525050600181610f289190612682565b90505b610e3e565b505050509392505050565b603a5481565b60008181548110610f5157600080fd5b90600052602060002090600202016000915090508060000160009054906101000a900473ffffffffffffffffffffffffffffffffffffffff16908060010154905082565b610f9d611a32565b6007600a80602002604051908101604052809291906000905b828210156110f4578382600502016040518060a00160405290816000820160009054906101000a900473ffffffffffffffffffffffffffffffffffffffff1673ffffffffffffffffffffffffffffffffffffffff1673ffffffffffffffffffffffffffffffffffffffff1681526020016001820160009054906101000a900473ffffffffffffffffffffffffffffffffffffffff1673ffffffffffffffffffffffffffffffffffffffff1673ffffffffffffffffffffffffffffffffffffffff1681526020016002820160009054906101000a900473ffffffffffffffffffffffffffffffffffffffff1673ffffffffffffffffffffffffffffffffffffffff1673ffffffffffffffffffffffffffffffffffffffff1681526020016003820154815260200160048201548152505081526020019060010190610fb6565b50505050905090565b603b5481565b600061112e8260008151811061111c5761111b612a2f565b5b60200260200101516003603b54610df2565b9050600061113b826115f4565b905060006040518060600160405280605060ff1660ff168152602001600560ff1660ff168152602001600f60ff1660ff16815250905060005b600360ff168110156112cc57600073ffffffffffffffffffffffffffffffffffffffff168382600381106111ab576111aa612a2f565b5b602002015173ffffffffffffffffffffffffffffffffffffffff1614156111d1576112cc565b60008382600381106111e6576111e5612a2f565b5b6020020151905060008173ffffffffffffffffffffffffffffffffffffffff1684846003811061121957611218612a2f565b5b602002015160ff1660065461122e91906126b9565b60405161123a9061223e565b60006040518083038185875af1925050503d8060008114611277576040519150601f19603f3d011682016040523d82523d6000602084013e61127c565b606091505b50509050806112b7576040517fa1d04b3900000000000000000000000000000000000000000000000000000000815260040160405180910390fd5b505080806112c4906128fe565b915050611174565b50426003819055506112e3826006546003546117c7565b6001603a60008282546112f6919061262c565b9250508190555060006006819055506000600160006101000a81548160ff0219169083600181111561132b5761132a612a00565b5b02179055506040518060a001604052808360006003811061134f5761134e612a2f565b5b602002015173ffffffffffffffffffffffffffffffffffffffff1681526020018360016003811061138357611382612a2f565b5b602002015173ffffffffffffffffffffffffffffffffffffffff168152602001836002600381106113b7576113b6612a2f565b5b602002015173ffffffffffffffffffffffffffffffffffffffff16815260200160065481526020016003548152506040516113f29190612253565b60405180910390207f603db4286c2c3e388925eccb2679b9983458118c213ac5f0f227c1562b1c105b60405160405180910390a25050505050565b60005b60008054905081101561150b578273ffffffffffffffffffffffffffffffffffffffff166000828154811061146857611467612a2f565b5b906000526020600020906002020160000160009054906101000a900473ffffffffffffffffffffffffffffffffffffffff1673ffffffffffffffffffffffffffffffffffffffff1614156114f85781600082815481106114cb576114ca612a2f565b5b906000526020600020906002020160010160008282546114eb919061262c565b92505081905550506115f0565b8080611503906128fe565b915050611430565b50611514611a60565b82816000019073ffffffffffffffffffffffffffffffffffffffff16908173ffffffffffffffffffffffffffffffffffffffff168152505081816020018181525050600081908060018154018082558091505060019003906000526020600020906002020160009091909190915060008201518160000160006101000a81548173ffffffffffffffffffffffffffffffffffffffff021916908373ffffffffffffffffffffffffffffffffffffffff16021790555060208201518160010155505081603b60008282546115e7919061262c565b92505081905550505b5050565b6115fc611a90565b60006001905060008080600090505b6000805490508110156117be5760005b600360ff1681101561176c578487826003811061163b5761163a612a2f565b5b60200201511015801561169457506000828154811061165d5761165c612a2f565b5b9060005260206000209060020201600101548561167a919061262c565b87826003811061168d5761168c612a2f565b5b6020020151105b1561175957600082815481106116ad576116ac612a2f565b5b906000526020600020906002020160000160009054906101000a900473ffffffffffffffffffffffffffffffffffffffff168682600381106116f2576116f1612a2f565b5b602002019073ffffffffffffffffffffffffffffffffffffffff16908173ffffffffffffffffffffffffffffffffffffffff16815250508380611734906128fe565b945050600160036117459190612747565b60ff16841115611758576001925061176c565b5b8080611764906128fe565b91505061161b565b508115611778576117be565b6000818154811061178c5761178b612a2f565b5b906000526020600020906002020160010154846117a9919061262c565b935080806117b6906128fe565b91505061160b565b50505050919050565b6000603960009054906101000a900460ff1660ff1614611802576001603960009054906101000a900460ff166117fd9190612747565b61182a565b6001600a6118109190612747565b603960006101000a81548160ff021916908360ff16021790555b603960006101000a81548160ff021916908360ff1602179055506040518060a001604052808460006003811061186357611862612a2f565b5b602002015173ffffffffffffffffffffffffffffffffffffffff1681526020018460016003811061189757611896612a2f565b5b602002015173ffffffffffffffffffffffffffffffffffffffff168152602001846002600381106118cb576118ca612a2f565b5b602002015173ffffffffffffffffffffffffffffffffffffffff168152602001838152602001828152506007603960009054906101000a900460ff1660ff16600a811061191b5761191a612a2f565b5b6005020160008201518160000160006101000a81548173ffffffffffffffffffffffffffffffffffffffff021916908373ffffffffffffffffffffffffffffffffffffffff16021790555060208201518160010160006101000a81548173ffffffffffffffffffffffffffffffffffffffff021916908373ffffffffffffffffffffffffffffffffffffffff16021790555060408201518160020160006101000a81548173ffffffffffffffffffffffffffffffffffffffff021916908373ffffffffffffffffffffffffffffffffffffffff1602179055506060820151816003015560808201518160040155905050505050565b6040518060600160405280600390602082028036833780820191505090505090565b604051806101400160405280600a905b611a4a611ab2565b815260200190600190039081611a425790505090565b6040518060400160405280600073ffffffffffffffffffffffffffffffffffffffff168152602001600081525090565b6040518060600160405280600390602082028036833780820191505090505090565b6040518060a00160405280600073ffffffffffffffffffffffffffffffffffffffff168152602001600073ffffffffffffffffffffffffffffffffffffffff168152602001600073ffffffffffffffffffffffffffffffffffffffff16815260200160008152602001600081525090565b6000611b36611b3184612515565b6124f0565b90508083825260208201905082856020860282011115611b5957611b58612a97565b5b60005b85811015611b895781611b6f8882611c87565b845260208401935060208301925050600181019050611b5c565b5050509392505050565b6000611ba6611ba184612541565b6124f0565b905082815260208101848484011115611bc257611bc1612a9c565b5b611bcd84828561288b565b509392505050565b600082601f830112611bea57611be9612a92565b5b8135611bfa848260208601611b23565b91505092915050565b60008083601f840112611c1957611c18612a92565b5b8235905067ffffffffffffffff811115611c3657611c35612a8d565b5b602083019150836001820283011115611c5257611c51612a97565b5b9250929050565b600082601f830112611c6e57611c6d612a92565b5b8135611c7e848260208601611b93565b91505092915050565b600081359050611c9681612ad3565b92915050565b600081519050611cab81612ad3565b92915050565b600081359050611cc081612aea565b92915050565b60008060208385031215611cdd57611cdc612aa6565b5b600083013567ffffffffffffffff811115611cfb57611cfa612aa1565b5b611d0785828601611c03565b92509250509250929050565b600060208284031215611d2957611d28612aa6565b5b600082013567ffffffffffffffff811115611d4757611d46612aa1565b5b611d5384828501611c59565b91505092915050565b600060208284031215611d7257611d71612aa6565b5b6000611d8084828501611c87565b91505092915050565b600060208284031215611d9f57611d9e612aa6565b5b6000611dad84828501611c9c565b91505092915050565b60008060408385031215611dcd57611dcc612aa6565b5b6000611ddb85828601611c87565b925050602083013567ffffffffffffffff811115611dfc57611dfb612aa1565b5b611e0885828601611bd5565b9150509250929050565b600080600060608486031215611e2b57611e2a612aa6565b5b6000611e3986828701611c87565b9350506020611e4a86828701611cb1565b9250506040611e5b86828701611c87565b9150509250925092565b6000611e718383611f19565b60208301905092915050565b6000611e8983836120cc565b60408301905092915050565b6000611ea183836120fb565b60a08301905092915050565b6000611eb983836121e4565b60208301905092915050565b6000611ed18383612202565b60208301905092915050565b611ee68161278d565b82525050565b611ef58161278d565b82525050565b611f048161277b565b82525050565b611f138161277b565b82525050565b611f228161277b565b82525050565b6000611f3382612596565b611f3d81856125e9565b9350611f4883612572565b8060005b83811015611f79578151611f608882611e7d565b9750611f6b836125c2565b925050600181019050611f4c565b5085935050505092915050565b611f8f816125a1565b611f9981846125fa565b9250611fa482612582565b8060005b83811015611fd5578151611fbc8782611e95565b9650611fc7836125cf565b925050600181019050611fa8565b505050505050565b611fe6816125ac565b611ff08184612605565b9250611ffb8261258c565b8060005b8381101561202c5781516120138782611ead565b965061201e836125dc565b925050600181019050611fff565b505050505050565b61203d8161279f565b82525050565b61204c816127ab565b82525050565b600061205d826125b7565b6120678185612610565b935061207781856020860161289a565b61208081612aab565b840191505092915050565b61209481612831565b82525050565b6120a381612843565b82525050565b60006120b6600083612621565b91506120c182612abc565b600082019050919050565b6040820160008201516120e26000850182611edd565b5060208201516120f560208501826121e4565b50505050565b60a0820160008201516121116000850182611efb565b5060208201516121246020850182611efb565b5060408201516121376040850182611efb565b50606082015161214a60608501826121e4565b50608082015161215d60808501826121e4565b50505050565b6000820160008201516121768482611e65565b93505060208201516121888482611e65565b935050604082015161219a8482611e65565b93505060608201516121ac8482611ec5565b93505060808201516121be8482611ec5565b935050505050565b6121cf816127c8565b82525050565b6121de81612879565b82525050565b6121ed816127f6565b82525050565b6121fc816127f6565b82525050565b61220b816127f6565b82525050565b61221a81612800565b82525050565b61222981612810565b82525050565b61223881612824565b82525050565b6000612249826120a9565b9150819050919050565b600061225f8284612163565b60a08201915081905092915050565b60006040820190506122836000830185611eec565b61229060208301846121f3565b9392505050565b60006040820190506122ac6000830185611f0a565b6122b96020830184611f0a565b9392505050565b600060a0820190506122d56000830188611f0a565b6122e26020830187611f0a565b6122ef6040830186611f0a565b6122fc60608301856121f3565b61230960808301846121f3565b9695505050505050565b6000602082019050818103600083015261232d8184611f28565b905092915050565b60006106408201905061234b6000830184611f86565b92915050565b60006060820190506123666000830184611fdd565b92915050565b60006040820190506123816000830185612034565b81810360208301526123938184612052565b90509392505050565b60006020820190506123b16000830184612043565b92915050565b600060a0820190506123cc6000830188612043565b6123d96020830187612220565b6123e660408301866121c6565b6123f36060830185612211565b61240060808301846121d5565b9695505050505050565b600060208201905061241f600083018461208b565b92915050565b600060208201905061243a600083018461209a565b92915050565b600060208201905061245560008301846121c6565b92915050565b600060208201905061247060008301846121f3565b92915050565b600060408201905061248b60008301856121f3565b61249860208301846121f3565b9392505050565b60006020820190506124b46000830184612211565b92915050565b60006020820190506124cf6000830184612220565b92915050565b60006020820190506124ea600083018461222f565b92915050565b60006124fa61250b565b905061250682826128cd565b919050565b6000604051905090565b600067ffffffffffffffff8211156125305761252f612a5e565b5b602082029050602081019050919050565b600067ffffffffffffffff82111561255c5761255b612a5e565b5b61256582612aab565b9050602081019050919050565b6000819050602082019050919050565b6000819050919050565b6000819050919050565b600081519050919050565b6000600a9050919050565b600060039050919050565b600081519050919050565b6000602082019050919050565b6000602082019050919050565b6000602082019050919050565b600082825260208201905092915050565b600081905092915050565b600081905092915050565b600082825260208201905092915050565b600081905092915050565b6000612637826127f6565b9150612642836127f6565b9250827fffffffffffffffffffffffffffffffffffffffffffffffffffffffffffffffff03821115612677576126766129a2565b5b828201905092915050565b600061268d82612824565b915061269883612824565b92508260ff038211156126ae576126ad6129a2565b5b828201905092915050565b60006126c4826127f6565b91506126cf836127f6565b9250817fffffffffffffffffffffffffffffffffffffffffffffffffffffffffffffffff0483118215151615612708576127076129a2565b5b828202905092915050565b600061271e826127f6565b9150612729836127f6565b92508282101561273c5761273b6129a2565b5b828203905092915050565b600061275282612824565b915061275d83612824565b9250828210156127705761276f6129a2565b5b828203905092915050565b6000612786826127d6565b9050919050565b6000612798826127d6565b9050919050565b60008115159050919050565b6000819050919050565b60008190506127c382612abf565b919050565b600061ffff82169050919050565b600073ffffffffffffffffffffffffffffffffffffffff82169050919050565b6000819050919050565b600063ffffffff82169050919050565b600067ffffffffffffffff82169050919050565b600060ff82169050919050565b600061283c82612855565b9050919050565b600061284e826127b5565b9050919050565b600061286082612867565b9050919050565b6000612872826127d6565b9050919050565b6000612884826127c8565b9050919050565b82818337600083830152505050565b60005b838110156128b857808201518184015260208101905061289d565b838111156128c7576000848401525b50505050565b6128d682612aab565b810181811067ffffffffffffffff821117156128f5576128f4612a5e565b5b80604052505050565b6000612909826127f6565b91507fffffffffffffffffffffffffffffffffffffffffffffffffffffffffffffffff82141561293c5761293b6129a2565b5b600182019050919050565b600061295282612824565b915060ff821415612966576129656129a2565b5b600182019050919050565b600061297c826127f6565b9150612987836127f6565b925082612997576129966129d1565b5b828206905092915050565b7f4e487b7100000000000000000000000000000000000000000000000000000000600052601160045260246000fd5b7f4e487b7100000000000000000000000000000000000000000000000000000000600052601260045260246000fd5b7f4e487b7100000000000000000000000000000000000000000000000000000000600052602160045260246000fd5b7f4e487b7100000000000000000000000000000000000000000000000000000000600052603260045260246000fd5b7f4e487b7100000000000000000000000000000000000000000000000000000000600052604160045260246000fd5b600080fd5b600080fd5b600080fd5b600080fd5b600080fd5b600080fd5b6000601f19601f8301169050919050565b50565b60028110612ad057612acf612a00565b5b50565b612adc816127f6565b8114612ae757600080fd5b50565b612af381612824565b8114612afe57600080fd5b5056fea2646970667358221220991f72bab432e5c94e91745b63d9eae33f1128702305767251933643729cbb7264736f6c63430008070033",
          "opcodes": "PUSH2 0x100 PUSH1 0x40 MSTORE PUSH1 0x1 PUSH1 0x3A SSTORE CALLVALUE DUP1 ISZERO PUSH3 0x17 JUMPI PUSH1 0x0 DUP1 REVERT JUMPDEST POP PUSH1 0x40 MLOAD PUSH3 0x2EB6 CODESIZE SUB DUP1 PUSH3 0x2EB6 DUP4 CODECOPY DUP2 DUP2 ADD PUSH1 0x40 MSTORE DUP2 ADD SWAP1 PUSH3 0x3D SWAP2 SWAP1 PUSH3 0x194 JUMP JUMPDEST DUP4 DUP1 PUSH20 0xFFFFFFFFFFFFFFFFFFFFFFFFFFFFFFFFFFFFFFFF AND PUSH1 0x80 DUP2 PUSH20 0xFFFFFFFFFFFFFFFFFFFFFFFFFFFFFFFFFFFFFFFF AND PUSH1 0x60 SHL DUP2 MSTORE POP POP POP DUP6 PUSH1 0xA0 DUP2 DUP2 MSTORE POP POP DUP5 PUSH1 0xC0 DUP2 DUP2 MSTORE POP POP TIMESTAMP PUSH1 0x3 DUP2 SWAP1 SSTORE POP DUP4 PUSH20 0xFFFFFFFFFFFFFFFFFFFFFFFFFFFFFFFFFFFFFFFF AND PUSH1 0xE0 DUP2 PUSH20 0xFFFFFFFFFFFFFFFFFFFFFFFFFFFFFFFFFFFFFFFF AND PUSH1 0x60 SHL DUP2 MSTORE POP POP DUP3 PUSH1 0x4 DUP2 SWAP1 SSTORE POP DUP2 PUSH1 0x5 PUSH1 0x0 PUSH2 0x100 EXP DUP2 SLOAD DUP2 PUSH8 0xFFFFFFFFFFFFFFFF MUL NOT AND SWAP1 DUP4 PUSH8 0xFFFFFFFFFFFFFFFF AND MUL OR SWAP1 SSTORE POP DUP1 PUSH1 0x5 PUSH1 0x8 PUSH2 0x100 EXP DUP2 SLOAD DUP2 PUSH4 0xFFFFFFFF MUL NOT AND SWAP1 DUP4 PUSH4 0xFFFFFFFF AND MUL OR SWAP1 SSTORE POP POP POP POP POP POP POP PUSH3 0x323 JUMP JUMPDEST PUSH1 0x0 DUP2 MLOAD SWAP1 POP PUSH3 0x132 DUP2 PUSH3 0x2A1 JUMP JUMPDEST SWAP3 SWAP2 POP POP JUMP JUMPDEST PUSH1 0x0 DUP2 MLOAD SWAP1 POP PUSH3 0x149 DUP2 PUSH3 0x2BB JUMP JUMPDEST SWAP3 SWAP2 POP POP JUMP JUMPDEST PUSH1 0x0 DUP2 MLOAD SWAP1 POP PUSH3 0x160 DUP2 PUSH3 0x2D5 JUMP JUMPDEST SWAP3 SWAP2 POP POP JUMP JUMPDEST PUSH1 0x0 DUP2 MLOAD SWAP1 POP PUSH3 0x177 DUP2 PUSH3 0x2EF JUMP JUMPDEST SWAP3 SWAP2 POP POP JUMP JUMPDEST PUSH1 0x0 DUP2 MLOAD SWAP1 POP PUSH3 0x18E DUP2 PUSH3 0x309 JUMP JUMPDEST SWAP3 SWAP2 POP POP JUMP JUMPDEST PUSH1 0x0 DUP1 PUSH1 0x0 DUP1 PUSH1 0x0 DUP1 PUSH1 0xC0 DUP8 DUP10 SUB SLT ISZERO PUSH3 0x1B4 JUMPI PUSH3 0x1B3 PUSH3 0x29C JUMP JUMPDEST JUMPDEST PUSH1 0x0 PUSH3 0x1C4 DUP10 DUP3 DUP11 ADD PUSH3 0x14F JUMP JUMPDEST SWAP7 POP POP PUSH1 0x20 PUSH3 0x1D7 DUP10 DUP3 DUP11 ADD PUSH3 0x14F JUMP JUMPDEST SWAP6 POP POP PUSH1 0x40 PUSH3 0x1EA DUP10 DUP3 DUP11 ADD PUSH3 0x121 JUMP JUMPDEST SWAP5 POP POP PUSH1 0x60 PUSH3 0x1FD DUP10 DUP3 DUP11 ADD PUSH3 0x138 JUMP JUMPDEST SWAP4 POP POP PUSH1 0x80 PUSH3 0x210 DUP10 DUP3 DUP11 ADD PUSH3 0x17D JUMP JUMPDEST SWAP3 POP POP PUSH1 0xA0 PUSH3 0x223 DUP10 DUP3 DUP11 ADD PUSH3 0x166 JUMP JUMPDEST SWAP2 POP POP SWAP3 SWAP6 POP SWAP3 SWAP6 POP SWAP3 SWAP6 JUMP JUMPDEST PUSH1 0x0 PUSH3 0x23D DUP3 PUSH3 0x24E JUMP JUMPDEST SWAP1 POP SWAP2 SWAP1 POP JUMP JUMPDEST PUSH1 0x0 DUP2 SWAP1 POP SWAP2 SWAP1 POP JUMP JUMPDEST PUSH1 0x0 PUSH20 0xFFFFFFFFFFFFFFFFFFFFFFFFFFFFFFFFFFFFFFFF DUP3 AND SWAP1 POP SWAP2 SWAP1 POP JUMP JUMPDEST PUSH1 0x0 DUP2 SWAP1 POP SWAP2 SWAP1 POP JUMP JUMPDEST PUSH1 0x0 PUSH4 0xFFFFFFFF DUP3 AND SWAP1 POP SWAP2 SWAP1 POP JUMP JUMPDEST PUSH1 0x0 PUSH8 0xFFFFFFFFFFFFFFFF DUP3 AND SWAP1 POP SWAP2 SWAP1 POP JUMP JUMPDEST PUSH1 0x0 DUP1 REVERT JUMPDEST PUSH3 0x2AC DUP2 PUSH3 0x230 JUMP JUMPDEST DUP2 EQ PUSH3 0x2B8 JUMPI PUSH1 0x0 DUP1 REVERT JUMPDEST POP JUMP JUMPDEST PUSH3 0x2C6 DUP2 PUSH3 0x244 JUMP JUMPDEST DUP2 EQ PUSH3 0x2D2 JUMPI PUSH1 0x0 DUP1 REVERT JUMPDEST POP JUMP JUMPDEST PUSH3 0x2E0 DUP2 PUSH3 0x26E JUMP JUMPDEST DUP2 EQ PUSH3 0x2EC JUMPI PUSH1 0x0 DUP1 REVERT JUMPDEST POP JUMP JUMPDEST PUSH3 0x2FA DUP2 PUSH3 0x278 JUMP JUMPDEST DUP2 EQ PUSH3 0x306 JUMPI PUSH1 0x0 DUP1 REVERT JUMPDEST POP JUMP JUMPDEST PUSH3 0x314 DUP2 PUSH3 0x288 JUMP JUMPDEST DUP2 EQ PUSH3 0x320 JUMPI PUSH1 0x0 DUP1 REVERT JUMPDEST POP JUMP JUMPDEST PUSH1 0x80 MLOAD PUSH1 0x60 SHR PUSH1 0xA0 MLOAD PUSH1 0xC0 MLOAD PUSH1 0xE0 MLOAD PUSH1 0x60 SHR PUSH2 0x2B37 PUSH3 0x37F PUSH1 0x0 CODECOPY PUSH1 0x0 DUP2 DUP2 PUSH2 0x9B3 ADD MSTORE PUSH2 0xD97 ADD MSTORE PUSH1 0x0 DUP2 DUP2 PUSH2 0xAEB ADD MSTORE PUSH2 0xB55 ADD MSTORE PUSH1 0x0 DUP2 DUP2 PUSH2 0x7F2 ADD MSTORE PUSH2 0xC01 ADD MSTORE PUSH1 0x0 DUP2 DUP2 PUSH2 0x71E ADD MSTORE PUSH2 0x772 ADD MSTORE PUSH2 0x2B37 PUSH1 0x0 RETURN INVALID PUSH1 0x80 PUSH1 0x40 MSTORE PUSH1 0x4 CALLDATASIZE LT PUSH2 0x1CD JUMPI PUSH1 0x0 CALLDATALOAD PUSH1 0xE0 SHR DUP1 PUSH4 0x92C65528 GT PUSH2 0xF7 JUMPI DUP1 PUSH4 0xD47E690A GT PUSH2 0x95 JUMPI DUP1 PUSH4 0xE26BEFE6 GT PUSH2 0x64 JUMPI DUP1 PUSH4 0xE26BEFE6 EQ PUSH2 0x658 JUMPI DUP1 PUSH4 0xE5EDD008 EQ PUSH2 0x683 JUMPI DUP1 PUSH4 0xF077B974 EQ PUSH2 0x6C1 JUMPI DUP1 PUSH4 0xF125A55D EQ PUSH2 0x6EC JUMPI PUSH2 0x1CD JUMP JUMPDEST DUP1 PUSH4 0xD47E690A EQ PUSH2 0x59A JUMPI DUP1 PUSH4 0xD4882FED EQ PUSH2 0x5C5 JUMPI DUP1 PUSH4 0xD757D027 EQ PUSH2 0x5F0 JUMPI DUP1 PUSH4 0xDDCB646D EQ PUSH2 0x61B JUMPI PUSH2 0x1CD JUMP JUMPDEST DUP1 PUSH4 0xADBD1DD7 GT PUSH2 0xD1 JUMPI DUP1 PUSH4 0xADBD1DD7 EQ PUSH2 0x4D8 JUMPI DUP1 PUSH4 0xAEBC4550 EQ PUSH2 0x519 JUMPI DUP1 PUSH4 0xCAD0338C EQ PUSH2 0x544 JUMPI DUP1 PUSH4 0xCC45483F EQ PUSH2 0x56F JUMPI PUSH2 0x1CD JUMP JUMPDEST DUP1 PUSH4 0x92C65528 EQ PUSH2 0x457 JUMPI DUP1 PUSH4 0x97B2F556 EQ PUSH2 0x482 JUMPI DUP1 PUSH4 0xA6AFD5FD EQ PUSH2 0x4AD JUMPI PUSH2 0x1CD JUMP JUMPDEST DUP1 PUSH4 0x51A0FE4A GT PUSH2 0x16F JUMPI DUP1 PUSH4 0x6E04FF0D GT PUSH2 0x13E JUMPI DUP1 PUSH4 0x6E04FF0D EQ PUSH2 0x398 JUMPI DUP1 PUSH4 0x72CF6E34 EQ PUSH2 0x3D6 JUMPI DUP1 PUSH4 0x7EA3E6C1 EQ PUSH2 0x401 JUMPI DUP1 PUSH4 0x8E879C8A EQ PUSH2 0x42C JUMPI PUSH2 0x1CD JUMP JUMPDEST DUP1 PUSH4 0x51A0FE4A EQ PUSH2 0x2EC JUMPI DUP1 PUSH4 0x67F082B0 EQ PUSH2 0x317 JUMPI DUP1 PUSH4 0x6919207D EQ PUSH2 0x342 JUMPI DUP1 PUSH4 0x6B19D9ED EQ PUSH2 0x36D JUMPI PUSH2 0x1CD JUMP JUMPDEST DUP1 PUSH4 0x2E519F90 GT PUSH2 0x1AB JUMPI DUP1 PUSH4 0x2E519F90 EQ PUSH2 0x251 JUMPI DUP1 PUSH4 0x34854043 EQ PUSH2 0x26D JUMPI DUP1 PUSH4 0x4585E33B EQ PUSH2 0x298 JUMPI DUP1 PUSH4 0x470CDF97 EQ PUSH2 0x2C1 JUMPI PUSH2 0x1CD JUMP JUMPDEST DUP1 PUSH4 0xDC98972 EQ PUSH2 0x1D2 JUMPI DUP1 PUSH4 0x1FE543E3 EQ PUSH2 0x1FD JUMPI DUP1 PUSH4 0x247BFABD EQ PUSH2 0x226 JUMPI JUMPDEST PUSH1 0x0 DUP1 REVERT JUMPDEST CALLVALUE DUP1 ISZERO PUSH2 0x1DE JUMPI PUSH1 0x0 DUP1 REVERT JUMPDEST POP PUSH2 0x1E7 PUSH2 0x717 JUMP JUMPDEST PUSH1 0x40 MLOAD PUSH2 0x1F4 SWAP2 SWAP1 PUSH2 0x24D5 JUMP JUMPDEST PUSH1 0x40 MLOAD DUP1 SWAP2 SUB SWAP1 RETURN JUMPDEST CALLVALUE DUP1 ISZERO PUSH2 0x209 JUMPI PUSH1 0x0 DUP1 REVERT JUMPDEST POP PUSH2 0x224 PUSH1 0x4 DUP1 CALLDATASIZE SUB DUP2 ADD SWAP1 PUSH2 0x21F SWAP2 SWAP1 PUSH2 0x1DB6 JUMP JUMPDEST PUSH2 0x71C JUMP JUMPDEST STOP JUMPDEST CALLVALUE DUP1 ISZERO PUSH2 0x232 JUMPI PUSH1 0x0 DUP1 REVERT JUMPDEST POP PUSH2 0x23B PUSH2 0x7DC JUMP JUMPDEST PUSH1 0x40 MLOAD PUSH2 0x248 SWAP2 SWAP1 PUSH2 0x24D5 JUMP JUMPDEST PUSH1 0x40 MLOAD DUP1 SWAP2 SUB SWAP1 RETURN JUMPDEST PUSH2 0x26B PUSH1 0x4 DUP1 CALLDATASIZE SUB DUP2 ADD SWAP1 PUSH2 0x266 SWAP2 SWAP1 PUSH2 0x1D5C JUMP JUMPDEST PUSH2 0x7EF JUMP JUMPDEST STOP JUMPDEST CALLVALUE DUP1 ISZERO PUSH2 0x279 JUMPI PUSH1 0x0 DUP1 REVERT JUMPDEST POP PUSH2 0x282 PUSH2 0x92B JUMP JUMPDEST PUSH1 0x40 MLOAD PUSH2 0x28F SWAP2 SWAP1 PUSH2 0x245B JUMP JUMPDEST PUSH1 0x40 MLOAD DUP1 SWAP2 SUB SWAP1 RETURN JUMPDEST CALLVALUE DUP1 ISZERO PUSH2 0x2A4 JUMPI PUSH1 0x0 DUP1 REVERT JUMPDEST POP PUSH2 0x2BF PUSH1 0x4 DUP1 CALLDATASIZE SUB DUP2 ADD SWAP1 PUSH2 0x2BA SWAP2 SWAP1 PUSH2 0x1CC6 JUMP JUMPDEST PUSH2 0x931 JUMP JUMPDEST STOP JUMPDEST CALLVALUE DUP1 ISZERO PUSH2 0x2CD JUMPI PUSH1 0x0 DUP1 REVERT JUMPDEST POP PUSH2 0x2D6 PUSH2 0xAC5 JUMP JUMPDEST PUSH1 0x40 MLOAD PUSH2 0x2E3 SWAP2 SWAP1 PUSH2 0x24BA JUMP JUMPDEST PUSH1 0x40 MLOAD DUP1 SWAP2 SUB SWAP1 RETURN JUMPDEST CALLVALUE DUP1 ISZERO PUSH2 0x2F8 JUMPI PUSH1 0x0 DUP1 REVERT JUMPDEST POP PUSH2 0x301 PUSH2 0xADF JUMP JUMPDEST PUSH1 0x40 MLOAD PUSH2 0x30E SWAP2 SWAP1 PUSH2 0x24D5 JUMP JUMPDEST PUSH1 0x40 MLOAD DUP1 SWAP2 SUB SWAP1 RETURN JUMPDEST CALLVALUE DUP1 ISZERO PUSH2 0x323 JUMPI PUSH1 0x0 DUP1 REVERT JUMPDEST POP PUSH2 0x32C PUSH2 0xAE4 JUMP JUMPDEST PUSH1 0x40 MLOAD PUSH2 0x339 SWAP2 SWAP1 PUSH2 0x2440 JUMP JUMPDEST PUSH1 0x40 MLOAD DUP1 SWAP2 SUB SWAP1 RETURN JUMPDEST CALLVALUE DUP1 ISZERO PUSH2 0x34E JUMPI PUSH1 0x0 DUP1 REVERT JUMPDEST POP PUSH2 0x357 PUSH2 0xAE9 JUMP JUMPDEST PUSH1 0x40 MLOAD PUSH2 0x364 SWAP2 SWAP1 PUSH2 0x245B JUMP JUMPDEST PUSH1 0x40 MLOAD DUP1 SWAP2 SUB SWAP1 RETURN JUMPDEST CALLVALUE DUP1 ISZERO PUSH2 0x379 JUMPI PUSH1 0x0 DUP1 REVERT JUMPDEST POP PUSH2 0x382 PUSH2 0xB0D JUMP JUMPDEST PUSH1 0x40 MLOAD PUSH2 0x38F SWAP2 SWAP1 PUSH2 0x24D5 JUMP JUMPDEST PUSH1 0x40 MLOAD DUP1 SWAP2 SUB SWAP1 RETURN JUMPDEST CALLVALUE DUP1 ISZERO PUSH2 0x3A4 JUMPI PUSH1 0x0 DUP1 REVERT JUMPDEST POP PUSH2 0x3BF PUSH1 0x4 DUP1 CALLDATASIZE SUB DUP2 ADD SWAP1 PUSH2 0x3BA SWAP2 SWAP1 PUSH2 0x1D13 JUMP JUMPDEST PUSH2 0xB12 JUMP JUMPDEST PUSH1 0x40 MLOAD PUSH2 0x3CD SWAP3 SWAP2 SWAP1 PUSH2 0x236C JUMP JUMPDEST PUSH1 0x40 MLOAD DUP1 SWAP2 SUB SWAP1 RETURN JUMPDEST CALLVALUE DUP1 ISZERO PUSH2 0x3E2 JUMPI PUSH1 0x0 DUP1 REVERT JUMPDEST POP PUSH2 0x3EB PUSH2 0xBFA JUMP JUMPDEST PUSH1 0x40 MLOAD PUSH2 0x3F8 SWAP2 SWAP1 PUSH2 0x2440 JUMP JUMPDEST PUSH1 0x40 MLOAD DUP1 SWAP2 SUB SWAP1 RETURN JUMPDEST CALLVALUE DUP1 ISZERO PUSH2 0x40D JUMPI PUSH1 0x0 DUP1 REVERT JUMPDEST POP PUSH2 0x416 PUSH2 0xBFF JUMP JUMPDEST PUSH1 0x40 MLOAD PUSH2 0x423 SWAP2 SWAP1 PUSH2 0x245B JUMP JUMPDEST PUSH1 0x40 MLOAD DUP1 SWAP2 SUB SWAP1 RETURN JUMPDEST CALLVALUE DUP1 ISZERO PUSH2 0x438 JUMPI PUSH1 0x0 DUP1 REVERT JUMPDEST POP PUSH2 0x441 PUSH2 0xC23 JUMP JUMPDEST PUSH1 0x40 MLOAD PUSH2 0x44E SWAP2 SWAP1 PUSH2 0x239C JUMP JUMPDEST PUSH1 0x40 MLOAD DUP1 SWAP2 SUB SWAP1 RETURN JUMPDEST CALLVALUE DUP1 ISZERO PUSH2 0x463 JUMPI PUSH1 0x0 DUP1 REVERT JUMPDEST POP PUSH2 0x46C PUSH2 0xC29 JUMP JUMPDEST PUSH1 0x40 MLOAD PUSH2 0x479 SWAP2 SWAP1 PUSH2 0x24D5 JUMP JUMPDEST PUSH1 0x40 MLOAD DUP1 SWAP2 SUB SWAP1 RETURN JUMPDEST CALLVALUE DUP1 ISZERO PUSH2 0x48E JUMPI PUSH1 0x0 DUP1 REVERT JUMPDEST POP PUSH2 0x497 PUSH2 0xC2E JUMP JUMPDEST PUSH1 0x40 MLOAD PUSH2 0x4A4 SWAP2 SWAP1 PUSH2 0x245B JUMP JUMPDEST PUSH1 0x40 MLOAD DUP1 SWAP2 SUB SWAP1 RETURN JUMPDEST CALLVALUE DUP1 ISZERO PUSH2 0x4B9 JUMPI PUSH1 0x0 DUP1 REVERT JUMPDEST POP PUSH2 0x4C2 PUSH2 0xC3A JUMP JUMPDEST PUSH1 0x40 MLOAD PUSH2 0x4CF SWAP2 SWAP1 PUSH2 0x2313 JUMP JUMPDEST PUSH1 0x40 MLOAD DUP1 SWAP2 SUB SWAP1 RETURN JUMPDEST CALLVALUE DUP1 ISZERO PUSH2 0x4E4 JUMPI PUSH1 0x0 DUP1 REVERT JUMPDEST POP PUSH2 0x4FF PUSH1 0x4 DUP1 CALLDATASIZE SUB DUP2 ADD SWAP1 PUSH2 0x4FA SWAP2 SWAP1 PUSH2 0x1D5C JUMP JUMPDEST PUSH2 0xCF9 JUMP JUMPDEST PUSH1 0x40 MLOAD PUSH2 0x510 SWAP6 SWAP5 SWAP4 SWAP3 SWAP2 SWAP1 PUSH2 0x22C0 JUMP JUMPDEST PUSH1 0x40 MLOAD DUP1 SWAP2 SUB SWAP1 RETURN JUMPDEST CALLVALUE DUP1 ISZERO PUSH2 0x525 JUMPI PUSH1 0x0 DUP1 REVERT JUMPDEST POP PUSH2 0x52E PUSH2 0xD95 JUMP JUMPDEST PUSH1 0x40 MLOAD PUSH2 0x53B SWAP2 SWAP1 PUSH2 0x240A JUMP JUMPDEST PUSH1 0x40 MLOAD DUP1 SWAP2 SUB SWAP1 RETURN JUMPDEST CALLVALUE DUP1 ISZERO PUSH2 0x550 JUMPI PUSH1 0x0 DUP1 REVERT JUMPDEST POP PUSH2 0x559 PUSH2 0xDB9 JUMP JUMPDEST PUSH1 0x40 MLOAD PUSH2 0x566 SWAP2 SWAP1 PUSH2 0x24D5 JUMP JUMPDEST PUSH1 0x40 MLOAD DUP1 SWAP2 SUB SWAP1 RETURN JUMPDEST CALLVALUE DUP1 ISZERO PUSH2 0x57B JUMPI PUSH1 0x0 DUP1 REVERT JUMPDEST POP PUSH2 0x584 PUSH2 0xDBE JUMP JUMPDEST PUSH1 0x40 MLOAD PUSH2 0x591 SWAP2 SWAP1 PUSH2 0x2425 JUMP JUMPDEST PUSH1 0x40 MLOAD DUP1 SWAP2 SUB SWAP1 RETURN JUMPDEST CALLVALUE DUP1 ISZERO PUSH2 0x5A6 JUMPI PUSH1 0x0 DUP1 REVERT JUMPDEST POP PUSH2 0x5AF PUSH2 0xDD1 JUMP JUMPDEST PUSH1 0x40 MLOAD PUSH2 0x5BC SWAP2 SWAP1 PUSH2 0x245B JUMP JUMPDEST PUSH1 0x40 MLOAD DUP1 SWAP2 SUB SWAP1 RETURN JUMPDEST CALLVALUE DUP1 ISZERO PUSH2 0x5D1 JUMPI PUSH1 0x0 DUP1 REVERT JUMPDEST POP PUSH2 0x5DA PUSH2 0xDD7 JUMP JUMPDEST PUSH1 0x40 MLOAD PUSH2 0x5E7 SWAP2 SWAP1 PUSH2 0x24D5 JUMP JUMPDEST PUSH1 0x40 MLOAD DUP1 SWAP2 SUB SWAP1 RETURN JUMPDEST CALLVALUE DUP1 ISZERO PUSH2 0x5FC JUMPI PUSH1 0x0 DUP1 REVERT JUMPDEST POP PUSH2 0x605 PUSH2 0xDDC JUMP JUMPDEST PUSH1 0x40 MLOAD PUSH2 0x612 SWAP2 SWAP1 PUSH2 0x249F JUMP JUMPDEST PUSH1 0x40 MLOAD DUP1 SWAP2 SUB SWAP1 RETURN JUMPDEST CALLVALUE DUP1 ISZERO PUSH2 0x627 JUMPI PUSH1 0x0 DUP1 REVERT JUMPDEST POP PUSH2 0x642 PUSH1 0x4 DUP1 CALLDATASIZE SUB DUP2 ADD SWAP1 PUSH2 0x63D SWAP2 SWAP1 PUSH2 0x1E12 JUMP JUMPDEST PUSH2 0xDF2 JUMP JUMPDEST PUSH1 0x40 MLOAD PUSH2 0x64F SWAP2 SWAP1 PUSH2 0x2351 JUMP JUMPDEST PUSH1 0x40 MLOAD DUP1 SWAP2 SUB SWAP1 RETURN JUMPDEST CALLVALUE DUP1 ISZERO PUSH2 0x664 JUMPI PUSH1 0x0 DUP1 REVERT JUMPDEST POP PUSH2 0x66D PUSH2 0xF3B JUMP JUMPDEST PUSH1 0x40 MLOAD PUSH2 0x67A SWAP2 SWAP1 PUSH2 0x245B JUMP JUMPDEST PUSH1 0x40 MLOAD DUP1 SWAP2 SUB SWAP1 RETURN JUMPDEST CALLVALUE DUP1 ISZERO PUSH2 0x68F JUMPI PUSH1 0x0 DUP1 REVERT JUMPDEST POP PUSH2 0x6AA PUSH1 0x4 DUP1 CALLDATASIZE SUB DUP2 ADD SWAP1 PUSH2 0x6A5 SWAP2 SWAP1 PUSH2 0x1D5C JUMP JUMPDEST PUSH2 0xF41 JUMP JUMPDEST PUSH1 0x40 MLOAD PUSH2 0x6B8 SWAP3 SWAP2 SWAP1 PUSH2 0x226E JUMP JUMPDEST PUSH1 0x40 MLOAD DUP1 SWAP2 SUB SWAP1 RETURN JUMPDEST CALLVALUE DUP1 ISZERO PUSH2 0x6CD JUMPI PUSH1 0x0 DUP1 REVERT JUMPDEST POP PUSH2 0x6D6 PUSH2 0xF95 JUMP JUMPDEST PUSH1 0x40 MLOAD PUSH2 0x6E3 SWAP2 SWAP1 PUSH2 0x2335 JUMP JUMPDEST PUSH1 0x40 MLOAD DUP1 SWAP2 SUB SWAP1 RETURN JUMPDEST CALLVALUE DUP1 ISZERO PUSH2 0x6F8 JUMPI PUSH1 0x0 DUP1 REVERT JUMPDEST POP PUSH2 0x701 PUSH2 0x10FD JUMP JUMPDEST PUSH1 0x40 MLOAD PUSH2 0x70E SWAP2 SWAP1 PUSH2 0x245B JUMP JUMPDEST PUSH1 0x40 MLOAD DUP1 SWAP2 SUB SWAP1 RETURN JUMPDEST PUSH1 0x5 DUP2 JUMP JUMPDEST PUSH32 0x0 PUSH20 0xFFFFFFFFFFFFFFFFFFFFFFFFFFFFFFFFFFFFFFFF AND CALLER PUSH20 0xFFFFFFFFFFFFFFFFFFFFFFFFFFFFFFFFFFFFFFFF AND EQ PUSH2 0x7CE JUMPI CALLER PUSH32 0x0 PUSH1 0x40 MLOAD PUSH32 0x1CF993F400000000000000000000000000000000000000000000000000000000 DUP2 MSTORE PUSH1 0x4 ADD PUSH2 0x7C5 SWAP3 SWAP2 SWAP1 PUSH2 0x2297 JUMP JUMPDEST PUSH1 0x40 MLOAD DUP1 SWAP2 SUB SWAP1 REVERT JUMPDEST PUSH2 0x7D8 DUP3 DUP3 PUSH2 0x1103 JUMP JUMPDEST POP POP JUMP JUMPDEST PUSH1 0x39 PUSH1 0x0 SWAP1 SLOAD SWAP1 PUSH2 0x100 EXP SWAP1 DIV PUSH1 0xFF AND DUP2 JUMP JUMPDEST DUP1 PUSH32 0x0 PUSH2 0x81B SWAP2 SWAP1 PUSH2 0x26B9 JUMP JUMPDEST CALLVALUE LT ISZERO PUSH2 0x854 JUMPI PUSH1 0x40 MLOAD PUSH32 0x3038C00A00000000000000000000000000000000000000000000000000000000 DUP2 MSTORE PUSH1 0x4 ADD PUSH1 0x40 MLOAD DUP1 SWAP2 SUB SWAP1 REVERT JUMPDEST PUSH1 0x0 PUSH1 0x1 DUP2 GT ISZERO PUSH2 0x868 JUMPI PUSH2 0x867 PUSH2 0x2A00 JUMP JUMPDEST JUMPDEST PUSH1 0x1 PUSH1 0x0 SWAP1 SLOAD SWAP1 PUSH2 0x100 EXP SWAP1 DIV PUSH1 0xFF AND PUSH1 0x1 DUP2 GT ISZERO PUSH2 0x88A JUMPI PUSH2 0x889 PUSH2 0x2A00 JUMP JUMPDEST JUMPDEST EQ PUSH2 0x8C1 JUMPI PUSH1 0x40 MLOAD PUSH32 0xD24A271400000000000000000000000000000000000000000000000000000000 DUP2 MSTORE PUSH1 0x4 ADD PUSH1 0x40 MLOAD DUP1 SWAP2 SUB SWAP1 REVERT JUMPDEST PUSH2 0x8CB CALLER DUP3 PUSH2 0x142D JUMP JUMPDEST CALLVALUE PUSH1 0x6 PUSH1 0x0 DUP3 DUP3 SLOAD PUSH2 0x8DD SWAP2 SWAP1 PUSH2 0x262C JUMP JUMPDEST SWAP3 POP POP DUP2 SWAP1 SSTORE POP DUP1 CALLER PUSH20 0xFFFFFFFFFFFFFFFFFFFFFFFFFFFFFFFFFFFFFFFF AND PUSH32 0xED20D2AB01271E5AB09835D58AEC6AD1931DB157B05B700C95C1E625B81C8600 PUSH1 0x40 MLOAD PUSH1 0x40 MLOAD DUP1 SWAP2 SUB SWAP1 LOG3 POP JUMP JUMPDEST PUSH1 0x3 SLOAD DUP2 JUMP JUMPDEST PUSH1 0x0 PUSH2 0x94B PUSH1 0x40 MLOAD DUP1 PUSH1 0x20 ADD PUSH1 0x40 MSTORE DUP1 PUSH1 0x0 DUP2 MSTORE POP PUSH2 0xB12 JUMP JUMPDEST POP SWAP1 POP DUP1 PUSH2 0x985 JUMPI PUSH1 0x40 MLOAD PUSH32 0x8E4BC81700000000000000000000000000000000000000000000000000000000 DUP2 MSTORE PUSH1 0x4 ADD PUSH1 0x40 MLOAD DUP1 SWAP2 SUB SWAP1 REVERT JUMPDEST PUSH1 0x1 DUP1 PUSH1 0x0 PUSH2 0x100 EXP DUP2 SLOAD DUP2 PUSH1 0xFF MUL NOT AND SWAP1 DUP4 PUSH1 0x1 DUP2 GT ISZERO PUSH2 0x9AA JUMPI PUSH2 0x9A9 PUSH2 0x2A00 JUMP JUMPDEST JUMPDEST MUL OR SWAP1 SSTORE POP PUSH1 0x0 PUSH32 0x0 PUSH20 0xFFFFFFFFFFFFFFFFFFFFFFFFFFFFFFFFFFFFFFFF AND PUSH4 0x5D3B1D30 PUSH1 0x4 SLOAD PUSH1 0x5 PUSH1 0x0 SWAP1 SLOAD SWAP1 PUSH2 0x100 EXP SWAP1 DIV PUSH8 0xFFFFFFFFFFFFFFFF AND PUSH1 0x3 PUSH1 0x5 PUSH1 0x8 SWAP1 SLOAD SWAP1 PUSH2 0x100 EXP SWAP1 DIV PUSH4 0xFFFFFFFF AND PUSH1 0x1 PUSH1 0x40 MLOAD DUP7 PUSH4 0xFFFFFFFF AND PUSH1 0xE0 SHL DUP2 MSTORE PUSH1 0x4 ADD PUSH2 0xA3E SWAP6 SWAP5 SWAP4 SWAP3 SWAP2 SWAP1 PUSH2 0x23B7 JUMP JUMPDEST PUSH1 0x20 PUSH1 0x40 MLOAD DUP1 DUP4 SUB DUP2 PUSH1 0x0 DUP8 DUP1 EXTCODESIZE ISZERO DUP1 ISZERO PUSH2 0xA58 JUMPI PUSH1 0x0 DUP1 REVERT JUMPDEST POP GAS CALL ISZERO DUP1 ISZERO PUSH2 0xA6C JUMPI RETURNDATASIZE PUSH1 0x0 DUP1 RETURNDATACOPY RETURNDATASIZE PUSH1 0x0 REVERT JUMPDEST POP POP POP POP PUSH1 0x40 MLOAD RETURNDATASIZE PUSH1 0x1F NOT PUSH1 0x1F DUP3 ADD AND DUP3 ADD DUP1 PUSH1 0x40 MSTORE POP DUP2 ADD SWAP1 PUSH2 0xA90 SWAP2 SWAP1 PUSH2 0x1D89 JUMP JUMPDEST SWAP1 POP DUP1 PUSH32 0xCD6E45C8998311CAB7E9D4385596CAC867E20A0587194B954FA3A731C93CE78B PUSH1 0x40 MLOAD PUSH1 0x40 MLOAD DUP1 SWAP2 SUB SWAP1 LOG2 POP POP POP POP JUMP JUMPDEST PUSH1 0x5 PUSH1 0x0 SWAP1 SLOAD SWAP1 PUSH2 0x100 EXP SWAP1 DIV PUSH8 0xFFFFFFFFFFFFFFFF AND DUP2 JUMP JUMPDEST PUSH1 0x3 DUP2 JUMP JUMPDEST PUSH1 0x3 DUP2 JUMP JUMPDEST PUSH32 0x0 DUP2 JUMP JUMPDEST PUSH1 0xF DUP2 JUMP JUMPDEST PUSH1 0x0 PUSH1 0x60 PUSH1 0x0 PUSH1 0x1 PUSH1 0x0 SWAP1 SLOAD SWAP1 PUSH2 0x100 EXP SWAP1 DIV PUSH1 0xFF AND PUSH1 0x1 DUP2 GT ISZERO PUSH2 0xB3A JUMPI PUSH2 0xB39 PUSH2 0x2A00 JUMP JUMPDEST JUMPDEST PUSH1 0x0 PUSH1 0x1 DUP2 GT ISZERO PUSH2 0xB4E JUMPI PUSH2 0xB4D PUSH2 0x2A00 JUMP JUMPDEST JUMPDEST EQ SWAP1 POP PUSH1 0x0 PUSH32 0x0 PUSH1 0x3 SLOAD TIMESTAMP PUSH2 0xB82 SWAP2 SWAP1 PUSH2 0x2713 JUMP JUMPDEST GT SWAP1 POP PUSH1 0x0 DUP1 SELFBALANCE GT SWAP1 POP PUSH1 0x0 DUP1 PUSH1 0x0 DUP1 SLOAD SWAP1 POP GT SWAP1 POP DUP3 DUP1 ISZERO PUSH2 0xBA2 JUMPI POP DUP4 JUMPDEST DUP1 ISZERO PUSH2 0xBAB JUMPI POP DUP2 JUMPDEST DUP1 ISZERO PUSH2 0xBB4 JUMPI POP DUP1 JUMPDEST SWAP6 POP DUP6 PUSH1 0x40 MLOAD DUP1 PUSH1 0x40 ADD PUSH1 0x40 MSTORE DUP1 PUSH1 0x3 DUP2 MSTORE PUSH1 0x20 ADD PUSH32 0x3078300000000000000000000000000000000000000000000000000000000000 DUP2 MSTORE POP SWAP6 POP SWAP6 POP POP POP POP POP SWAP2 POP SWAP2 JUMP JUMPDEST PUSH1 0x1 DUP2 JUMP JUMPDEST PUSH32 0x0 DUP2 JUMP JUMPDEST PUSH1 0x4 SLOAD DUP2 JUMP JUMPDEST PUSH1 0x50 DUP2 JUMP JUMPDEST PUSH1 0x0 DUP1 DUP1 SLOAD SWAP1 POP SWAP1 POP SWAP1 JUMP JUMPDEST PUSH1 0x60 PUSH1 0x0 DUP1 SLOAD DUP1 PUSH1 0x20 MUL PUSH1 0x20 ADD PUSH1 0x40 MLOAD SWAP1 DUP2 ADD PUSH1 0x40 MSTORE DUP1 SWAP3 SWAP2 SWAP1 DUP2 DUP2 MSTORE PUSH1 0x20 ADD PUSH1 0x0 SWAP1 JUMPDEST DUP3 DUP3 LT ISZERO PUSH2 0xCF0 JUMPI DUP4 DUP3 SWAP1 PUSH1 0x0 MSTORE PUSH1 0x20 PUSH1 0x0 KECCAK256 SWAP1 PUSH1 0x2 MUL ADD PUSH1 0x40 MLOAD DUP1 PUSH1 0x40 ADD PUSH1 0x40 MSTORE SWAP1 DUP2 PUSH1 0x0 DUP3 ADD PUSH1 0x0 SWAP1 SLOAD SWAP1 PUSH2 0x100 EXP SWAP1 DIV PUSH20 0xFFFFFFFFFFFFFFFFFFFFFFFFFFFFFFFFFFFFFFFF AND PUSH20 0xFFFFFFFFFFFFFFFFFFFFFFFFFFFFFFFFFFFFFFFF AND PUSH20 0xFFFFFFFFFFFFFFFFFFFFFFFFFFFFFFFFFFFFFFFF AND DUP2 MSTORE PUSH1 0x20 ADD PUSH1 0x1 DUP3 ADD SLOAD DUP2 MSTORE POP POP DUP2 MSTORE PUSH1 0x20 ADD SWAP1 PUSH1 0x1 ADD SWAP1 PUSH2 0xC5E JUMP JUMPDEST POP POP POP POP SWAP1 POP SWAP1 JUMP JUMPDEST PUSH1 0x7 DUP2 PUSH1 0xA DUP2 LT PUSH2 0xD09 JUMPI PUSH1 0x0 DUP1 REVERT JUMPDEST PUSH1 0x5 MUL ADD PUSH1 0x0 SWAP2 POP SWAP1 POP DUP1 PUSH1 0x0 ADD PUSH1 0x0 SWAP1 SLOAD SWAP1 PUSH2 0x100 EXP SWAP1 DIV PUSH20 0xFFFFFFFFFFFFFFFFFFFFFFFFFFFFFFFFFFFFFFFF AND SWAP1 DUP1 PUSH1 0x1 ADD PUSH1 0x0 SWAP1 SLOAD SWAP1 PUSH2 0x100 EXP SWAP1 DIV PUSH20 0xFFFFFFFFFFFFFFFFFFFFFFFFFFFFFFFFFFFFFFFF AND SWAP1 DUP1 PUSH1 0x2 ADD PUSH1 0x0 SWAP1 SLOAD SWAP1 PUSH2 0x100 EXP SWAP1 DIV PUSH20 0xFFFFFFFFFFFFFFFFFFFFFFFFFFFFFFFFFFFFFFFF AND SWAP1 DUP1 PUSH1 0x3 ADD SLOAD SWAP1 DUP1 PUSH1 0x4 ADD SLOAD SWAP1 POP DUP6 JUMP JUMPDEST PUSH32 0x0 DUP2 JUMP JUMPDEST PUSH1 0x3 DUP2 JUMP JUMPDEST PUSH1 0x1 PUSH1 0x0 SWAP1 SLOAD SWAP1 PUSH2 0x100 EXP SWAP1 DIV PUSH1 0xFF AND DUP2 JUMP JUMPDEST PUSH1 0x6 SLOAD DUP2 JUMP JUMPDEST PUSH1 0xA DUP2 JUMP JUMPDEST PUSH1 0x5 PUSH1 0x8 SWAP1 SLOAD SWAP1 PUSH2 0x100 EXP SWAP1 DIV PUSH4 0xFFFFFFFF AND DUP2 JUMP JUMPDEST PUSH2 0xDFA PUSH2 0x1A10 JUMP JUMPDEST PUSH1 0x0 DUP1 PUSH1 0x0 PUSH1 0x1 DUP6 DUP9 PUSH2 0xE0D SWAP2 SWAP1 PUSH2 0x2971 JUMP JUMPDEST PUSH2 0xE17 SWAP2 SWAP1 PUSH2 0x262C JUMP JUMPDEST PUSH1 0xFF AND DUP5 PUSH1 0x0 PUSH1 0x3 DUP2 LT PUSH2 0xE2E JUMPI PUSH2 0xE2D PUSH2 0x2A2F JUMP JUMPDEST JUMPDEST PUSH1 0x20 MUL ADD DUP2 DUP2 MSTORE POP POP PUSH1 0x0 PUSH1 0x1 SWAP1 POP JUMPDEST DUP7 PUSH1 0xFF AND DUP2 PUSH1 0xFF AND LT ISZERO PUSH2 0xF30 JUMPI PUSH1 0x1 DUP4 PUSH2 0xE59 SWAP2 SWAP1 PUSH2 0x262C JUMP JUMPDEST SWAP3 POP PUSH1 0x1 DUP7 DUP10 DUP6 PUSH1 0x40 MLOAD PUSH1 0x20 ADD PUSH2 0xE71 SWAP3 SWAP2 SWAP1 PUSH2 0x2476 JUMP JUMPDEST PUSH1 0x40 MLOAD PUSH1 0x20 DUP2 DUP4 SUB SUB DUP2 MSTORE SWAP1 PUSH1 0x40 MSTORE DUP1 MLOAD SWAP1 PUSH1 0x20 ADD KECCAK256 PUSH1 0x0 SHR PUSH2 0xE94 SWAP2 SWAP1 PUSH2 0x2971 JUMP JUMPDEST PUSH2 0xE9E SWAP2 SWAP1 PUSH2 0x262C JUMP JUMPDEST SWAP4 POP PUSH1 0x1 SWAP2 POP PUSH1 0x0 JUMPDEST PUSH1 0x3 PUSH1 0xFF AND DUP2 PUSH1 0xFF AND LT ISZERO PUSH2 0xEF4 JUMPI DUP6 DUP2 PUSH1 0xFF AND PUSH1 0x3 DUP2 LT PUSH2 0xECC JUMPI PUSH2 0xECB PUSH2 0x2A2F JUMP JUMPDEST JUMPDEST PUSH1 0x20 MUL ADD MLOAD DUP6 EQ ISZERO PUSH2 0xEE1 JUMPI PUSH1 0x0 SWAP3 POP PUSH2 0xEF4 JUMP JUMPDEST DUP1 DUP1 PUSH2 0xEEC SWAP1 PUSH2 0x2947 JUMP JUMPDEST SWAP2 POP POP PUSH2 0xEA7 JUMP JUMPDEST POP DUP2 ISZERO PUSH2 0xF2B JUMPI DUP4 DUP6 DUP3 PUSH1 0xFF AND PUSH1 0x3 DUP2 LT PUSH2 0xF12 JUMPI PUSH2 0xF11 PUSH2 0x2A2F JUMP JUMPDEST JUMPDEST PUSH1 0x20 MUL ADD DUP2 DUP2 MSTORE POP POP PUSH1 0x1 DUP2 PUSH2 0xF28 SWAP2 SWAP1 PUSH2 0x2682 JUMP JUMPDEST SWAP1 POP JUMPDEST PUSH2 0xE3E JUMP JUMPDEST POP POP POP POP SWAP4 SWAP3 POP POP POP JUMP JUMPDEST PUSH1 0x3A SLOAD DUP2 JUMP JUMPDEST PUSH1 0x0 DUP2 DUP2 SLOAD DUP2 LT PUSH2 0xF51 JUMPI PUSH1 0x0 DUP1 REVERT JUMPDEST SWAP1 PUSH1 0x0 MSTORE PUSH1 0x20 PUSH1 0x0 KECCAK256 SWAP1 PUSH1 0x2 MUL ADD PUSH1 0x0 SWAP2 POP SWAP1 POP DUP1 PUSH1 0x0 ADD PUSH1 0x0 SWAP1 SLOAD SWAP1 PUSH2 0x100 EXP SWAP1 DIV PUSH20 0xFFFFFFFFFFFFFFFFFFFFFFFFFFFFFFFFFFFFFFFF AND SWAP1 DUP1 PUSH1 0x1 ADD SLOAD SWAP1 POP DUP3 JUMP JUMPDEST PUSH2 0xF9D PUSH2 0x1A32 JUMP JUMPDEST PUSH1 0x7 PUSH1 0xA DUP1 PUSH1 0x20 MUL PUSH1 0x40 MLOAD SWAP1 DUP2 ADD PUSH1 0x40 MSTORE DUP1 SWAP3 SWAP2 SWAP1 PUSH1 0x0 SWAP1 JUMPDEST DUP3 DUP3 LT ISZERO PUSH2 0x10F4 JUMPI DUP4 DUP3 PUSH1 0x5 MUL ADD PUSH1 0x40 MLOAD DUP1 PUSH1 0xA0 ADD PUSH1 0x40 MSTORE SWAP1 DUP2 PUSH1 0x0 DUP3 ADD PUSH1 0x0 SWAP1 SLOAD SWAP1 PUSH2 0x100 EXP SWAP1 DIV PUSH20 0xFFFFFFFFFFFFFFFFFFFFFFFFFFFFFFFFFFFFFFFF AND PUSH20 0xFFFFFFFFFFFFFFFFFFFFFFFFFFFFFFFFFFFFFFFF AND PUSH20 0xFFFFFFFFFFFFFFFFFFFFFFFFFFFFFFFFFFFFFFFF AND DUP2 MSTORE PUSH1 0x20 ADD PUSH1 0x1 DUP3 ADD PUSH1 0x0 SWAP1 SLOAD SWAP1 PUSH2 0x100 EXP SWAP1 DIV PUSH20 0xFFFFFFFFFFFFFFFFFFFFFFFFFFFFFFFFFFFFFFFF AND PUSH20 0xFFFFFFFFFFFFFFFFFFFFFFFFFFFFFFFFFFFFFFFF AND PUSH20 0xFFFFFFFFFFFFFFFFFFFFFFFFFFFFFFFFFFFFFFFF AND DUP2 MSTORE PUSH1 0x20 ADD PUSH1 0x2 DUP3 ADD PUSH1 0x0 SWAP1 SLOAD SWAP1 PUSH2 0x100 EXP SWAP1 DIV PUSH20 0xFFFFFFFFFFFFFFFFFFFFFFFFFFFFFFFFFFFFFFFF AND PUSH20 0xFFFFFFFFFFFFFFFFFFFFFFFFFFFFFFFFFFFFFFFF AND PUSH20 0xFFFFFFFFFFFFFFFFFFFFFFFFFFFFFFFFFFFFFFFF AND DUP2 MSTORE PUSH1 0x20 ADD PUSH1 0x3 DUP3 ADD SLOAD DUP2 MSTORE PUSH1 0x20 ADD PUSH1 0x4 DUP3 ADD SLOAD DUP2 MSTORE POP POP DUP2 MSTORE PUSH1 0x20 ADD SWAP1 PUSH1 0x1 ADD SWAP1 PUSH2 0xFB6 JUMP JUMPDEST POP POP POP POP SWAP1 POP SWAP1 JUMP JUMPDEST PUSH1 0x3B SLOAD DUP2 JUMP JUMPDEST PUSH1 0x0 PUSH2 0x112E DUP3 PUSH1 0x0 DUP2 MLOAD DUP2 LT PUSH2 0x111C JUMPI PUSH2 0x111B PUSH2 0x2A2F JUMP JUMPDEST JUMPDEST PUSH1 0x20 MUL PUSH1 0x20 ADD ADD MLOAD PUSH1 0x3 PUSH1 0x3B SLOAD PUSH2 0xDF2 JUMP JUMPDEST SWAP1 POP PUSH1 0x0 PUSH2 0x113B DUP3 PUSH2 0x15F4 JUMP JUMPDEST SWAP1 POP PUSH1 0x0 PUSH1 0x40 MLOAD DUP1 PUSH1 0x60 ADD PUSH1 0x40 MSTORE DUP1 PUSH1 0x50 PUSH1 0xFF AND PUSH1 0xFF AND DUP2 MSTORE PUSH1 0x20 ADD PUSH1 0x5 PUSH1 0xFF AND PUSH1 0xFF AND DUP2 MSTORE PUSH1 0x20 ADD PUSH1 0xF PUSH1 0xFF AND PUSH1 0xFF AND DUP2 MSTORE POP SWAP1 POP PUSH1 0x0 JUMPDEST PUSH1 0x3 PUSH1 0xFF AND DUP2 LT ISZERO PUSH2 0x12CC JUMPI PUSH1 0x0 PUSH20 0xFFFFFFFFFFFFFFFFFFFFFFFFFFFFFFFFFFFFFFFF AND DUP4 DUP3 PUSH1 0x3 DUP2 LT PUSH2 0x11AB JUMPI PUSH2 0x11AA PUSH2 0x2A2F JUMP JUMPDEST JUMPDEST PUSH1 0x20 MUL ADD MLOAD PUSH20 0xFFFFFFFFFFFFFFFFFFFFFFFFFFFFFFFFFFFFFFFF AND EQ ISZERO PUSH2 0x11D1 JUMPI PUSH2 0x12CC JUMP JUMPDEST PUSH1 0x0 DUP4 DUP3 PUSH1 0x3 DUP2 LT PUSH2 0x11E6 JUMPI PUSH2 0x11E5 PUSH2 0x2A2F JUMP JUMPDEST JUMPDEST PUSH1 0x20 MUL ADD MLOAD SWAP1 POP PUSH1 0x0 DUP2 PUSH20 0xFFFFFFFFFFFFFFFFFFFFFFFFFFFFFFFFFFFFFFFF AND DUP5 DUP5 PUSH1 0x3 DUP2 LT PUSH2 0x1219 JUMPI PUSH2 0x1218 PUSH2 0x2A2F JUMP JUMPDEST JUMPDEST PUSH1 0x20 MUL ADD MLOAD PUSH1 0xFF AND PUSH1 0x6 SLOAD PUSH2 0x122E SWAP2 SWAP1 PUSH2 0x26B9 JUMP JUMPDEST PUSH1 0x40 MLOAD PUSH2 0x123A SWAP1 PUSH2 0x223E JUMP JUMPDEST PUSH1 0x0 PUSH1 0x40 MLOAD DUP1 DUP4 SUB DUP2 DUP6 DUP8 GAS CALL SWAP3 POP POP POP RETURNDATASIZE DUP1 PUSH1 0x0 DUP2 EQ PUSH2 0x1277 JUMPI PUSH1 0x40 MLOAD SWAP2 POP PUSH1 0x1F NOT PUSH1 0x3F RETURNDATASIZE ADD AND DUP3 ADD PUSH1 0x40 MSTORE RETURNDATASIZE DUP3 MSTORE RETURNDATASIZE PUSH1 0x0 PUSH1 0x20 DUP5 ADD RETURNDATACOPY PUSH2 0x127C JUMP JUMPDEST PUSH1 0x60 SWAP2 POP JUMPDEST POP POP SWAP1 POP DUP1 PUSH2 0x12B7 JUMPI PUSH1 0x40 MLOAD PUSH32 0xA1D04B3900000000000000000000000000000000000000000000000000000000 DUP2 MSTORE PUSH1 0x4 ADD PUSH1 0x40 MLOAD DUP1 SWAP2 SUB SWAP1 REVERT JUMPDEST POP POP DUP1 DUP1 PUSH2 0x12C4 SWAP1 PUSH2 0x28FE JUMP JUMPDEST SWAP2 POP POP PUSH2 0x1174 JUMP JUMPDEST POP TIMESTAMP PUSH1 0x3 DUP2 SWAP1 SSTORE POP PUSH2 0x12E3 DUP3 PUSH1 0x6 SLOAD PUSH1 0x3 SLOAD PUSH2 0x17C7 JUMP JUMPDEST PUSH1 0x1 PUSH1 0x3A PUSH1 0x0 DUP3 DUP3 SLOAD PUSH2 0x12F6 SWAP2 SWAP1 PUSH2 0x262C JUMP JUMPDEST SWAP3 POP POP DUP2 SWAP1 SSTORE POP PUSH1 0x0 PUSH1 0x6 DUP2 SWAP1 SSTORE POP PUSH1 0x0 PUSH1 0x1 PUSH1 0x0 PUSH2 0x100 EXP DUP2 SLOAD DUP2 PUSH1 0xFF MUL NOT AND SWAP1 DUP4 PUSH1 0x1 DUP2 GT ISZERO PUSH2 0x132B JUMPI PUSH2 0x132A PUSH2 0x2A00 JUMP JUMPDEST JUMPDEST MUL OR SWAP1 SSTORE POP PUSH1 0x40 MLOAD DUP1 PUSH1 0xA0 ADD PUSH1 0x40 MSTORE DUP1 DUP4 PUSH1 0x0 PUSH1 0x3 DUP2 LT PUSH2 0x134F JUMPI PUSH2 0x134E PUSH2 0x2A2F JUMP JUMPDEST JUMPDEST PUSH1 0x20 MUL ADD MLOAD PUSH20 0xFFFFFFFFFFFFFFFFFFFFFFFFFFFFFFFFFFFFFFFF AND DUP2 MSTORE PUSH1 0x20 ADD DUP4 PUSH1 0x1 PUSH1 0x3 DUP2 LT PUSH2 0x1383 JUMPI PUSH2 0x1382 PUSH2 0x2A2F JUMP JUMPDEST JUMPDEST PUSH1 0x20 MUL ADD MLOAD PUSH20 0xFFFFFFFFFFFFFFFFFFFFFFFFFFFFFFFFFFFFFFFF AND DUP2 MSTORE PUSH1 0x20 ADD DUP4 PUSH1 0x2 PUSH1 0x3 DUP2 LT PUSH2 0x13B7 JUMPI PUSH2 0x13B6 PUSH2 0x2A2F JUMP JUMPDEST JUMPDEST PUSH1 0x20 MUL ADD MLOAD PUSH20 0xFFFFFFFFFFFFFFFFFFFFFFFFFFFFFFFFFFFFFFFF AND DUP2 MSTORE PUSH1 0x20 ADD PUSH1 0x6 SLOAD DUP2 MSTORE PUSH1 0x20 ADD PUSH1 0x3 SLOAD DUP2 MSTORE POP PUSH1 0x40 MLOAD PUSH2 0x13F2 SWAP2 SWAP1 PUSH2 0x2253 JUMP JUMPDEST PUSH1 0x40 MLOAD DUP1 SWAP2 SUB SWAP1 KECCAK256 PUSH32 0x603DB4286C2C3E388925ECCB2679B9983458118C213AC5F0F227C1562B1C105B PUSH1 0x40 MLOAD PUSH1 0x40 MLOAD DUP1 SWAP2 SUB SWAP1 LOG2 POP POP POP POP POP JUMP JUMPDEST PUSH1 0x0 JUMPDEST PUSH1 0x0 DUP1 SLOAD SWAP1 POP DUP2 LT ISZERO PUSH2 0x150B JUMPI DUP3 PUSH20 0xFFFFFFFFFFFFFFFFFFFFFFFFFFFFFFFFFFFFFFFF AND PUSH1 0x0 DUP3 DUP2 SLOAD DUP2 LT PUSH2 0x1468 JUMPI PUSH2 0x1467 PUSH2 0x2A2F JUMP JUMPDEST JUMPDEST SWAP1 PUSH1 0x0 MSTORE PUSH1 0x20 PUSH1 0x0 KECCAK256 SWAP1 PUSH1 0x2 MUL ADD PUSH1 0x0 ADD PUSH1 0x0 SWAP1 SLOAD SWAP1 PUSH2 0x100 EXP SWAP1 DIV PUSH20 0xFFFFFFFFFFFFFFFFFFFFFFFFFFFFFFFFFFFFFFFF AND PUSH20 0xFFFFFFFFFFFFFFFFFFFFFFFFFFFFFFFFFFFFFFFF AND EQ ISZERO PUSH2 0x14F8 JUMPI DUP2 PUSH1 0x0 DUP3 DUP2 SLOAD DUP2 LT PUSH2 0x14CB JUMPI PUSH2 0x14CA PUSH2 0x2A2F JUMP JUMPDEST JUMPDEST SWAP1 PUSH1 0x0 MSTORE PUSH1 0x20 PUSH1 0x0 KECCAK256 SWAP1 PUSH1 0x2 MUL ADD PUSH1 0x1 ADD PUSH1 0x0 DUP3 DUP3 SLOAD PUSH2 0x14EB SWAP2 SWAP1 PUSH2 0x262C JUMP JUMPDEST SWAP3 POP POP DUP2 SWAP1 SSTORE POP POP PUSH2 0x15F0 JUMP JUMPDEST DUP1 DUP1 PUSH2 0x1503 SWAP1 PUSH2 0x28FE JUMP JUMPDEST SWAP2 POP POP PUSH2 0x1430 JUMP JUMPDEST POP PUSH2 0x1514 PUSH2 0x1A60 JUMP JUMPDEST DUP3 DUP2 PUSH1 0x0 ADD SWAP1 PUSH20 0xFFFFFFFFFFFFFFFFFFFFFFFFFFFFFFFFFFFFFFFF AND SWAP1 DUP2 PUSH20 0xFFFFFFFFFFFFFFFFFFFFFFFFFFFFFFFFFFFFFFFF AND DUP2 MSTORE POP POP DUP2 DUP2 PUSH1 0x20 ADD DUP2 DUP2 MSTORE POP POP PUSH1 0x0 DUP2 SWAP1 DUP1 PUSH1 0x1 DUP2 SLOAD ADD DUP1 DUP3 SSTORE DUP1 SWAP2 POP POP PUSH1 0x1 SWAP1 SUB SWAP1 PUSH1 0x0 MSTORE PUSH1 0x20 PUSH1 0x0 KECCAK256 SWAP1 PUSH1 0x2 MUL ADD PUSH1 0x0 SWAP1 SWAP2 SWAP1 SWAP2 SWAP1 SWAP2 POP PUSH1 0x0 DUP3 ADD MLOAD DUP2 PUSH1 0x0 ADD PUSH1 0x0 PUSH2 0x100 EXP DUP2 SLOAD DUP2 PUSH20 0xFFFFFFFFFFFFFFFFFFFFFFFFFFFFFFFFFFFFFFFF MUL NOT AND SWAP1 DUP4 PUSH20 0xFFFFFFFFFFFFFFFFFFFFFFFFFFFFFFFFFFFFFFFF AND MUL OR SWAP1 SSTORE POP PUSH1 0x20 DUP3 ADD MLOAD DUP2 PUSH1 0x1 ADD SSTORE POP POP DUP2 PUSH1 0x3B PUSH1 0x0 DUP3 DUP3 SLOAD PUSH2 0x15E7 SWAP2 SWAP1 PUSH2 0x262C JUMP JUMPDEST SWAP3 POP POP DUP2 SWAP1 SSTORE POP POP JUMPDEST POP POP JUMP JUMPDEST PUSH2 0x15FC PUSH2 0x1A90 JUMP JUMPDEST PUSH1 0x0 PUSH1 0x1 SWAP1 POP PUSH1 0x0 DUP1 DUP1 PUSH1 0x0 SWAP1 POP JUMPDEST PUSH1 0x0 DUP1 SLOAD SWAP1 POP DUP2 LT ISZERO PUSH2 0x17BE JUMPI PUSH1 0x0 JUMPDEST PUSH1 0x3 PUSH1 0xFF AND DUP2 LT ISZERO PUSH2 0x176C JUMPI DUP5 DUP8 DUP3 PUSH1 0x3 DUP2 LT PUSH2 0x163B JUMPI PUSH2 0x163A PUSH2 0x2A2F JUMP JUMPDEST JUMPDEST PUSH1 0x20 MUL ADD MLOAD LT ISZERO DUP1 ISZERO PUSH2 0x1694 JUMPI POP PUSH1 0x0 DUP3 DUP2 SLOAD DUP2 LT PUSH2 0x165D JUMPI PUSH2 0x165C PUSH2 0x2A2F JUMP JUMPDEST JUMPDEST SWAP1 PUSH1 0x0 MSTORE PUSH1 0x20 PUSH1 0x0 KECCAK256 SWAP1 PUSH1 0x2 MUL ADD PUSH1 0x1 ADD SLOAD DUP6 PUSH2 0x167A SWAP2 SWAP1 PUSH2 0x262C JUMP JUMPDEST DUP8 DUP3 PUSH1 0x3 DUP2 LT PUSH2 0x168D JUMPI PUSH2 0x168C PUSH2 0x2A2F JUMP JUMPDEST JUMPDEST PUSH1 0x20 MUL ADD MLOAD LT JUMPDEST ISZERO PUSH2 0x1759 JUMPI PUSH1 0x0 DUP3 DUP2 SLOAD DUP2 LT PUSH2 0x16AD JUMPI PUSH2 0x16AC PUSH2 0x2A2F JUMP JUMPDEST JUMPDEST SWAP1 PUSH1 0x0 MSTORE PUSH1 0x20 PUSH1 0x0 KECCAK256 SWAP1 PUSH1 0x2 MUL ADD PUSH1 0x0 ADD PUSH1 0x0 SWAP1 SLOAD SWAP1 PUSH2 0x100 EXP SWAP1 DIV PUSH20 0xFFFFFFFFFFFFFFFFFFFFFFFFFFFFFFFFFFFFFFFF AND DUP7 DUP3 PUSH1 0x3 DUP2 LT PUSH2 0x16F2 JUMPI PUSH2 0x16F1 PUSH2 0x2A2F JUMP JUMPDEST JUMPDEST PUSH1 0x20 MUL ADD SWAP1 PUSH20 0xFFFFFFFFFFFFFFFFFFFFFFFFFFFFFFFFFFFFFFFF AND SWAP1 DUP2 PUSH20 0xFFFFFFFFFFFFFFFFFFFFFFFFFFFFFFFFFFFFFFFF AND DUP2 MSTORE POP POP DUP4 DUP1 PUSH2 0x1734 SWAP1 PUSH2 0x28FE JUMP JUMPDEST SWAP5 POP POP PUSH1 0x1 PUSH1 0x3 PUSH2 0x1745 SWAP2 SWAP1 PUSH2 0x2747 JUMP JUMPDEST PUSH1 0xFF AND DUP5 GT ISZERO PUSH2 0x1758 JUMPI PUSH1 0x1 SWAP3 POP PUSH2 0x176C JUMP JUMPDEST JUMPDEST DUP1 DUP1 PUSH2 0x1764 SWAP1 PUSH2 0x28FE JUMP JUMPDEST SWAP2 POP POP PUSH2 0x161B JUMP JUMPDEST POP DUP2 ISZERO PUSH2 0x1778 JUMPI PUSH2 0x17BE JUMP JUMPDEST PUSH1 0x0 DUP2 DUP2 SLOAD DUP2 LT PUSH2 0x178C JUMPI PUSH2 0x178B PUSH2 0x2A2F JUMP JUMPDEST JUMPDEST SWAP1 PUSH1 0x0 MSTORE PUSH1 0x20 PUSH1 0x0 KECCAK256 SWAP1 PUSH1 0x2 MUL ADD PUSH1 0x1 ADD SLOAD DUP5 PUSH2 0x17A9 SWAP2 SWAP1 PUSH2 0x262C JUMP JUMPDEST SWAP4 POP DUP1 DUP1 PUSH2 0x17B6 SWAP1 PUSH2 0x28FE JUMP JUMPDEST SWAP2 POP POP PUSH2 0x160B JUMP JUMPDEST POP POP POP POP SWAP2 SWAP1 POP JUMP JUMPDEST PUSH1 0x0 PUSH1 0x39 PUSH1 0x0 SWAP1 SLOAD SWAP1 PUSH2 0x100 EXP SWAP1 DIV PUSH1 0xFF AND PUSH1 0xFF AND EQ PUSH2 0x1802 JUMPI PUSH1 0x1 PUSH1 0x39 PUSH1 0x0 SWAP1 SLOAD SWAP1 PUSH2 0x100 EXP SWAP1 DIV PUSH1 0xFF AND PUSH2 0x17FD SWAP2 SWAP1 PUSH2 0x2747 JUMP JUMPDEST PUSH2 0x182A JUMP JUMPDEST PUSH1 0x1 PUSH1 0xA PUSH2 0x1810 SWAP2 SWAP1 PUSH2 0x2747 JUMP JUMPDEST PUSH1 0x39 PUSH1 0x0 PUSH2 0x100 EXP DUP2 SLOAD DUP2 PUSH1 0xFF MUL NOT AND SWAP1 DUP4 PUSH1 0xFF AND MUL OR SWAP1 SSTORE JUMPDEST PUSH1 0x39 PUSH1 0x0 PUSH2 0x100 EXP DUP2 SLOAD DUP2 PUSH1 0xFF MUL NOT AND SWAP1 DUP4 PUSH1 0xFF AND MUL OR SWAP1 SSTORE POP PUSH1 0x40 MLOAD DUP1 PUSH1 0xA0 ADD PUSH1 0x40 MSTORE DUP1 DUP5 PUSH1 0x0 PUSH1 0x3 DUP2 LT PUSH2 0x1863 JUMPI PUSH2 0x1862 PUSH2 0x2A2F JUMP JUMPDEST JUMPDEST PUSH1 0x20 MUL ADD MLOAD PUSH20 0xFFFFFFFFFFFFFFFFFFFFFFFFFFFFFFFFFFFFFFFF AND DUP2 MSTORE PUSH1 0x20 ADD DUP5 PUSH1 0x1 PUSH1 0x3 DUP2 LT PUSH2 0x1897 JUMPI PUSH2 0x1896 PUSH2 0x2A2F JUMP JUMPDEST JUMPDEST PUSH1 0x20 MUL ADD MLOAD PUSH20 0xFFFFFFFFFFFFFFFFFFFFFFFFFFFFFFFFFFFFFFFF AND DUP2 MSTORE PUSH1 0x20 ADD DUP5 PUSH1 0x2 PUSH1 0x3 DUP2 LT PUSH2 0x18CB JUMPI PUSH2 0x18CA PUSH2 0x2A2F JUMP JUMPDEST JUMPDEST PUSH1 0x20 MUL ADD MLOAD PUSH20 0xFFFFFFFFFFFFFFFFFFFFFFFFFFFFFFFFFFFFFFFF AND DUP2 MSTORE PUSH1 0x20 ADD DUP4 DUP2 MSTORE PUSH1 0x20 ADD DUP3 DUP2 MSTORE POP PUSH1 0x7 PUSH1 0x39 PUSH1 0x0 SWAP1 SLOAD SWAP1 PUSH2 0x100 EXP SWAP1 DIV PUSH1 0xFF AND PUSH1 0xFF AND PUSH1 0xA DUP2 LT PUSH2 0x191B JUMPI PUSH2 0x191A PUSH2 0x2A2F JUMP JUMPDEST JUMPDEST PUSH1 0x5 MUL ADD PUSH1 0x0 DUP3 ADD MLOAD DUP2 PUSH1 0x0 ADD PUSH1 0x0 PUSH2 0x100 EXP DUP2 SLOAD DUP2 PUSH20 0xFFFFFFFFFFFFFFFFFFFFFFFFFFFFFFFFFFFFFFFF MUL NOT AND SWAP1 DUP4 PUSH20 0xFFFFFFFFFFFFFFFFFFFFFFFFFFFFFFFFFFFFFFFF AND MUL OR SWAP1 SSTORE POP PUSH1 0x20 DUP3 ADD MLOAD DUP2 PUSH1 0x1 ADD PUSH1 0x0 PUSH2 0x100 EXP DUP2 SLOAD DUP2 PUSH20 0xFFFFFFFFFFFFFFFFFFFFFFFFFFFFFFFFFFFFFFFF MUL NOT AND SWAP1 DUP4 PUSH20 0xFFFFFFFFFFFFFFFFFFFFFFFFFFFFFFFFFFFFFFFF AND MUL OR SWAP1 SSTORE POP PUSH1 0x40 DUP3 ADD MLOAD DUP2 PUSH1 0x2 ADD PUSH1 0x0 PUSH2 0x100 EXP DUP2 SLOAD DUP2 PUSH20 0xFFFFFFFFFFFFFFFFFFFFFFFFFFFFFFFFFFFFFFFF MUL NOT AND SWAP1 DUP4 PUSH20 0xFFFFFFFFFFFFFFFFFFFFFFFFFFFFFFFFFFFFFFFF AND MUL OR SWAP1 SSTORE POP PUSH1 0x60 DUP3 ADD MLOAD DUP2 PUSH1 0x3 ADD SSTORE PUSH1 0x80 DUP3 ADD MLOAD DUP2 PUSH1 0x4 ADD SSTORE SWAP1 POP POP POP POP POP JUMP JUMPDEST PUSH1 0x40 MLOAD DUP1 PUSH1 0x60 ADD PUSH1 0x40 MSTORE DUP1 PUSH1 0x3 SWAP1 PUSH1 0x20 DUP3 MUL DUP1 CALLDATASIZE DUP4 CALLDATACOPY DUP1 DUP3 ADD SWAP2 POP POP SWAP1 POP POP SWAP1 JUMP JUMPDEST PUSH1 0x40 MLOAD DUP1 PUSH2 0x140 ADD PUSH1 0x40 MSTORE DUP1 PUSH1 0xA SWAP1 JUMPDEST PUSH2 0x1A4A PUSH2 0x1AB2 JUMP JUMPDEST DUP2 MSTORE PUSH1 0x20 ADD SWAP1 PUSH1 0x1 SWAP1 SUB SWAP1 DUP2 PUSH2 0x1A42 JUMPI SWAP1 POP POP SWAP1 JUMP JUMPDEST PUSH1 0x40 MLOAD DUP1 PUSH1 0x40 ADD PUSH1 0x40 MSTORE DUP1 PUSH1 0x0 PUSH20 0xFFFFFFFFFFFFFFFFFFFFFFFFFFFFFFFFFFFFFFFF AND DUP2 MSTORE PUSH1 0x20 ADD PUSH1 0x0 DUP2 MSTORE POP SWAP1 JUMP JUMPDEST PUSH1 0x40 MLOAD DUP1 PUSH1 0x60 ADD PUSH1 0x40 MSTORE DUP1 PUSH1 0x3 SWAP1 PUSH1 0x20 DUP3 MUL DUP1 CALLDATASIZE DUP4 CALLDATACOPY DUP1 DUP3 ADD SWAP2 POP POP SWAP1 POP POP SWAP1 JUMP JUMPDEST PUSH1 0x40 MLOAD DUP1 PUSH1 0xA0 ADD PUSH1 0x40 MSTORE DUP1 PUSH1 0x0 PUSH20 0xFFFFFFFFFFFFFFFFFFFFFFFFFFFFFFFFFFFFFFFF AND DUP2 MSTORE PUSH1 0x20 ADD PUSH1 0x0 PUSH20 0xFFFFFFFFFFFFFFFFFFFFFFFFFFFFFFFFFFFFFFFF AND DUP2 MSTORE PUSH1 0x20 ADD PUSH1 0x0 PUSH20 0xFFFFFFFFFFFFFFFFFFFFFFFFFFFFFFFFFFFFFFFF AND DUP2 MSTORE PUSH1 0x20 ADD PUSH1 0x0 DUP2 MSTORE PUSH1 0x20 ADD PUSH1 0x0 DUP2 MSTORE POP SWAP1 JUMP JUMPDEST PUSH1 0x0 PUSH2 0x1B36 PUSH2 0x1B31 DUP5 PUSH2 0x2515 JUMP JUMPDEST PUSH2 0x24F0 JUMP JUMPDEST SWAP1 POP DUP1 DUP4 DUP3 MSTORE PUSH1 0x20 DUP3 ADD SWAP1 POP DUP3 DUP6 PUSH1 0x20 DUP7 MUL DUP3 ADD GT ISZERO PUSH2 0x1B59 JUMPI PUSH2 0x1B58 PUSH2 0x2A97 JUMP JUMPDEST JUMPDEST PUSH1 0x0 JUMPDEST DUP6 DUP2 LT ISZERO PUSH2 0x1B89 JUMPI DUP2 PUSH2 0x1B6F DUP9 DUP3 PUSH2 0x1C87 JUMP JUMPDEST DUP5 MSTORE PUSH1 0x20 DUP5 ADD SWAP4 POP PUSH1 0x20 DUP4 ADD SWAP3 POP POP PUSH1 0x1 DUP2 ADD SWAP1 POP PUSH2 0x1B5C JUMP JUMPDEST POP POP POP SWAP4 SWAP3 POP POP POP JUMP JUMPDEST PUSH1 0x0 PUSH2 0x1BA6 PUSH2 0x1BA1 DUP5 PUSH2 0x2541 JUMP JUMPDEST PUSH2 0x24F0 JUMP JUMPDEST SWAP1 POP DUP3 DUP2 MSTORE PUSH1 0x20 DUP2 ADD DUP5 DUP5 DUP5 ADD GT ISZERO PUSH2 0x1BC2 JUMPI PUSH2 0x1BC1 PUSH2 0x2A9C JUMP JUMPDEST JUMPDEST PUSH2 0x1BCD DUP5 DUP3 DUP6 PUSH2 0x288B JUMP JUMPDEST POP SWAP4 SWAP3 POP POP POP JUMP JUMPDEST PUSH1 0x0 DUP3 PUSH1 0x1F DUP4 ADD SLT PUSH2 0x1BEA JUMPI PUSH2 0x1BE9 PUSH2 0x2A92 JUMP JUMPDEST JUMPDEST DUP2 CALLDATALOAD PUSH2 0x1BFA DUP5 DUP3 PUSH1 0x20 DUP7 ADD PUSH2 0x1B23 JUMP JUMPDEST SWAP2 POP POP SWAP3 SWAP2 POP POP JUMP JUMPDEST PUSH1 0x0 DUP1 DUP4 PUSH1 0x1F DUP5 ADD SLT PUSH2 0x1C19 JUMPI PUSH2 0x1C18 PUSH2 0x2A92 JUMP JUMPDEST JUMPDEST DUP3 CALLDATALOAD SWAP1 POP PUSH8 0xFFFFFFFFFFFFFFFF DUP2 GT ISZERO PUSH2 0x1C36 JUMPI PUSH2 0x1C35 PUSH2 0x2A8D JUMP JUMPDEST JUMPDEST PUSH1 0x20 DUP4 ADD SWAP2 POP DUP4 PUSH1 0x1 DUP3 MUL DUP4 ADD GT ISZERO PUSH2 0x1C52 JUMPI PUSH2 0x1C51 PUSH2 0x2A97 JUMP JUMPDEST JUMPDEST SWAP3 POP SWAP3 SWAP1 POP JUMP JUMPDEST PUSH1 0x0 DUP3 PUSH1 0x1F DUP4 ADD SLT PUSH2 0x1C6E JUMPI PUSH2 0x1C6D PUSH2 0x2A92 JUMP JUMPDEST JUMPDEST DUP2 CALLDATALOAD PUSH2 0x1C7E DUP5 DUP3 PUSH1 0x20 DUP7 ADD PUSH2 0x1B93 JUMP JUMPDEST SWAP2 POP POP SWAP3 SWAP2 POP POP JUMP JUMPDEST PUSH1 0x0 DUP2 CALLDATALOAD SWAP1 POP PUSH2 0x1C96 DUP2 PUSH2 0x2AD3 JUMP JUMPDEST SWAP3 SWAP2 POP POP JUMP JUMPDEST PUSH1 0x0 DUP2 MLOAD SWAP1 POP PUSH2 0x1CAB DUP2 PUSH2 0x2AD3 JUMP JUMPDEST SWAP3 SWAP2 POP POP JUMP JUMPDEST PUSH1 0x0 DUP2 CALLDATALOAD SWAP1 POP PUSH2 0x1CC0 DUP2 PUSH2 0x2AEA JUMP JUMPDEST SWAP3 SWAP2 POP POP JUMP JUMPDEST PUSH1 0x0 DUP1 PUSH1 0x20 DUP4 DUP6 SUB SLT ISZERO PUSH2 0x1CDD JUMPI PUSH2 0x1CDC PUSH2 0x2AA6 JUMP JUMPDEST JUMPDEST PUSH1 0x0 DUP4 ADD CALLDATALOAD PUSH8 0xFFFFFFFFFFFFFFFF DUP2 GT ISZERO PUSH2 0x1CFB JUMPI PUSH2 0x1CFA PUSH2 0x2AA1 JUMP JUMPDEST JUMPDEST PUSH2 0x1D07 DUP6 DUP3 DUP7 ADD PUSH2 0x1C03 JUMP JUMPDEST SWAP3 POP SWAP3 POP POP SWAP3 POP SWAP3 SWAP1 POP JUMP JUMPDEST PUSH1 0x0 PUSH1 0x20 DUP3 DUP5 SUB SLT ISZERO PUSH2 0x1D29 JUMPI PUSH2 0x1D28 PUSH2 0x2AA6 JUMP JUMPDEST JUMPDEST PUSH1 0x0 DUP3 ADD CALLDATALOAD PUSH8 0xFFFFFFFFFFFFFFFF DUP2 GT ISZERO PUSH2 0x1D47 JUMPI PUSH2 0x1D46 PUSH2 0x2AA1 JUMP JUMPDEST JUMPDEST PUSH2 0x1D53 DUP5 DUP3 DUP6 ADD PUSH2 0x1C59 JUMP JUMPDEST SWAP2 POP POP SWAP3 SWAP2 POP POP JUMP JUMPDEST PUSH1 0x0 PUSH1 0x20 DUP3 DUP5 SUB SLT ISZERO PUSH2 0x1D72 JUMPI PUSH2 0x1D71 PUSH2 0x2AA6 JUMP JUMPDEST JUMPDEST PUSH1 0x0 PUSH2 0x1D80 DUP5 DUP3 DUP6 ADD PUSH2 0x1C87 JUMP JUMPDEST SWAP2 POP POP SWAP3 SWAP2 POP POP JUMP JUMPDEST PUSH1 0x0 PUSH1 0x20 DUP3 DUP5 SUB SLT ISZERO PUSH2 0x1D9F JUMPI PUSH2 0x1D9E PUSH2 0x2AA6 JUMP JUMPDEST JUMPDEST PUSH1 0x0 PUSH2 0x1DAD DUP5 DUP3 DUP6 ADD PUSH2 0x1C9C JUMP JUMPDEST SWAP2 POP POP SWAP3 SWAP2 POP POP JUMP JUMPDEST PUSH1 0x0 DUP1 PUSH1 0x40 DUP4 DUP6 SUB SLT ISZERO PUSH2 0x1DCD JUMPI PUSH2 0x1DCC PUSH2 0x2AA6 JUMP JUMPDEST JUMPDEST PUSH1 0x0 PUSH2 0x1DDB DUP6 DUP3 DUP7 ADD PUSH2 0x1C87 JUMP JUMPDEST SWAP3 POP POP PUSH1 0x20 DUP4 ADD CALLDATALOAD PUSH8 0xFFFFFFFFFFFFFFFF DUP2 GT ISZERO PUSH2 0x1DFC JUMPI PUSH2 0x1DFB PUSH2 0x2AA1 JUMP JUMPDEST JUMPDEST PUSH2 0x1E08 DUP6 DUP3 DUP7 ADD PUSH2 0x1BD5 JUMP JUMPDEST SWAP2 POP POP SWAP3 POP SWAP3 SWAP1 POP JUMP JUMPDEST PUSH1 0x0 DUP1 PUSH1 0x0 PUSH1 0x60 DUP5 DUP7 SUB SLT ISZERO PUSH2 0x1E2B JUMPI PUSH2 0x1E2A PUSH2 0x2AA6 JUMP JUMPDEST JUMPDEST PUSH1 0x0 PUSH2 0x1E39 DUP7 DUP3 DUP8 ADD PUSH2 0x1C87 JUMP JUMPDEST SWAP4 POP POP PUSH1 0x20 PUSH2 0x1E4A DUP7 DUP3 DUP8 ADD PUSH2 0x1CB1 JUMP JUMPDEST SWAP3 POP POP PUSH1 0x40 PUSH2 0x1E5B DUP7 DUP3 DUP8 ADD PUSH2 0x1C87 JUMP JUMPDEST SWAP2 POP POP SWAP3 POP SWAP3 POP SWAP3 JUMP JUMPDEST PUSH1 0x0 PUSH2 0x1E71 DUP4 DUP4 PUSH2 0x1F19 JUMP JUMPDEST PUSH1 0x20 DUP4 ADD SWAP1 POP SWAP3 SWAP2 POP POP JUMP JUMPDEST PUSH1 0x0 PUSH2 0x1E89 DUP4 DUP4 PUSH2 0x20CC JUMP JUMPDEST PUSH1 0x40 DUP4 ADD SWAP1 POP SWAP3 SWAP2 POP POP JUMP JUMPDEST PUSH1 0x0 PUSH2 0x1EA1 DUP4 DUP4 PUSH2 0x20FB JUMP JUMPDEST PUSH1 0xA0 DUP4 ADD SWAP1 POP SWAP3 SWAP2 POP POP JUMP JUMPDEST PUSH1 0x0 PUSH2 0x1EB9 DUP4 DUP4 PUSH2 0x21E4 JUMP JUMPDEST PUSH1 0x20 DUP4 ADD SWAP1 POP SWAP3 SWAP2 POP POP JUMP JUMPDEST PUSH1 0x0 PUSH2 0x1ED1 DUP4 DUP4 PUSH2 0x2202 JUMP JUMPDEST PUSH1 0x20 DUP4 ADD SWAP1 POP SWAP3 SWAP2 POP POP JUMP JUMPDEST PUSH2 0x1EE6 DUP2 PUSH2 0x278D JUMP JUMPDEST DUP3 MSTORE POP POP JUMP JUMPDEST PUSH2 0x1EF5 DUP2 PUSH2 0x278D JUMP JUMPDEST DUP3 MSTORE POP POP JUMP JUMPDEST PUSH2 0x1F04 DUP2 PUSH2 0x277B JUMP JUMPDEST DUP3 MSTORE POP POP JUMP JUMPDEST PUSH2 0x1F13 DUP2 PUSH2 0x277B JUMP JUMPDEST DUP3 MSTORE POP POP JUMP JUMPDEST PUSH2 0x1F22 DUP2 PUSH2 0x277B JUMP JUMPDEST DUP3 MSTORE POP POP JUMP JUMPDEST PUSH1 0x0 PUSH2 0x1F33 DUP3 PUSH2 0x2596 JUMP JUMPDEST PUSH2 0x1F3D DUP2 DUP6 PUSH2 0x25E9 JUMP JUMPDEST SWAP4 POP PUSH2 0x1F48 DUP4 PUSH2 0x2572 JUMP JUMPDEST DUP1 PUSH1 0x0 JUMPDEST DUP4 DUP2 LT ISZERO PUSH2 0x1F79 JUMPI DUP2 MLOAD PUSH2 0x1F60 DUP9 DUP3 PUSH2 0x1E7D JUMP JUMPDEST SWAP8 POP PUSH2 0x1F6B DUP4 PUSH2 0x25C2 JUMP JUMPDEST SWAP3 POP POP PUSH1 0x1 DUP2 ADD SWAP1 POP PUSH2 0x1F4C JUMP JUMPDEST POP DUP6 SWAP4 POP POP POP POP SWAP3 SWAP2 POP POP JUMP JUMPDEST PUSH2 0x1F8F DUP2 PUSH2 0x25A1 JUMP JUMPDEST PUSH2 0x1F99 DUP2 DUP5 PUSH2 0x25FA JUMP JUMPDEST SWAP3 POP PUSH2 0x1FA4 DUP3 PUSH2 0x2582 JUMP JUMPDEST DUP1 PUSH1 0x0 JUMPDEST DUP4 DUP2 LT ISZERO PUSH2 0x1FD5 JUMPI DUP2 MLOAD PUSH2 0x1FBC DUP8 DUP3 PUSH2 0x1E95 JUMP JUMPDEST SWAP7 POP PUSH2 0x1FC7 DUP4 PUSH2 0x25CF JUMP JUMPDEST SWAP3 POP POP PUSH1 0x1 DUP2 ADD SWAP1 POP PUSH2 0x1FA8 JUMP JUMPDEST POP POP POP POP POP POP JUMP JUMPDEST PUSH2 0x1FE6 DUP2 PUSH2 0x25AC JUMP JUMPDEST PUSH2 0x1FF0 DUP2 DUP5 PUSH2 0x2605 JUMP JUMPDEST SWAP3 POP PUSH2 0x1FFB DUP3 PUSH2 0x258C JUMP JUMPDEST DUP1 PUSH1 0x0 JUMPDEST DUP4 DUP2 LT ISZERO PUSH2 0x202C JUMPI DUP2 MLOAD PUSH2 0x2013 DUP8 DUP3 PUSH2 0x1EAD JUMP JUMPDEST SWAP7 POP PUSH2 0x201E DUP4 PUSH2 0x25DC JUMP JUMPDEST SWAP3 POP POP PUSH1 0x1 DUP2 ADD SWAP1 POP PUSH2 0x1FFF JUMP JUMPDEST POP POP POP POP POP POP JUMP JUMPDEST PUSH2 0x203D DUP2 PUSH2 0x279F JUMP JUMPDEST DUP3 MSTORE POP POP JUMP JUMPDEST PUSH2 0x204C DUP2 PUSH2 0x27AB JUMP JUMPDEST DUP3 MSTORE POP POP JUMP JUMPDEST PUSH1 0x0 PUSH2 0x205D DUP3 PUSH2 0x25B7 JUMP JUMPDEST PUSH2 0x2067 DUP2 DUP6 PUSH2 0x2610 JUMP JUMPDEST SWAP4 POP PUSH2 0x2077 DUP2 DUP6 PUSH1 0x20 DUP7 ADD PUSH2 0x289A JUMP JUMPDEST PUSH2 0x2080 DUP2 PUSH2 0x2AAB JUMP JUMPDEST DUP5 ADD SWAP2 POP POP SWAP3 SWAP2 POP POP JUMP JUMPDEST PUSH2 0x2094 DUP2 PUSH2 0x2831 JUMP JUMPDEST DUP3 MSTORE POP POP JUMP JUMPDEST PUSH2 0x20A3 DUP2 PUSH2 0x2843 JUMP JUMPDEST DUP3 MSTORE POP POP JUMP JUMPDEST PUSH1 0x0 PUSH2 0x20B6 PUSH1 0x0 DUP4 PUSH2 0x2621 JUMP JUMPDEST SWAP2 POP PUSH2 0x20C1 DUP3 PUSH2 0x2ABC JUMP JUMPDEST PUSH1 0x0 DUP3 ADD SWAP1 POP SWAP2 SWAP1 POP JUMP JUMPDEST PUSH1 0x40 DUP3 ADD PUSH1 0x0 DUP3 ADD MLOAD PUSH2 0x20E2 PUSH1 0x0 DUP6 ADD DUP3 PUSH2 0x1EDD JUMP JUMPDEST POP PUSH1 0x20 DUP3 ADD MLOAD PUSH2 0x20F5 PUSH1 0x20 DUP6 ADD DUP3 PUSH2 0x21E4 JUMP JUMPDEST POP POP POP POP JUMP JUMPDEST PUSH1 0xA0 DUP3 ADD PUSH1 0x0 DUP3 ADD MLOAD PUSH2 0x2111 PUSH1 0x0 DUP6 ADD DUP3 PUSH2 0x1EFB JUMP JUMPDEST POP PUSH1 0x20 DUP3 ADD MLOAD PUSH2 0x2124 PUSH1 0x20 DUP6 ADD DUP3 PUSH2 0x1EFB JUMP JUMPDEST POP PUSH1 0x40 DUP3 ADD MLOAD PUSH2 0x2137 PUSH1 0x40 DUP6 ADD DUP3 PUSH2 0x1EFB JUMP JUMPDEST POP PUSH1 0x60 DUP3 ADD MLOAD PUSH2 0x214A PUSH1 0x60 DUP6 ADD DUP3 PUSH2 0x21E4 JUMP JUMPDEST POP PUSH1 0x80 DUP3 ADD MLOAD PUSH2 0x215D PUSH1 0x80 DUP6 ADD DUP3 PUSH2 0x21E4 JUMP JUMPDEST POP POP POP POP JUMP JUMPDEST PUSH1 0x0 DUP3 ADD PUSH1 0x0 DUP3 ADD MLOAD PUSH2 0x2176 DUP5 DUP3 PUSH2 0x1E65 JUMP JUMPDEST SWAP4 POP POP PUSH1 0x20 DUP3 ADD MLOAD PUSH2 0x2188 DUP5 DUP3 PUSH2 0x1E65 JUMP JUMPDEST SWAP4 POP POP PUSH1 0x40 DUP3 ADD MLOAD PUSH2 0x219A DUP5 DUP3 PUSH2 0x1E65 JUMP JUMPDEST SWAP4 POP POP PUSH1 0x60 DUP3 ADD MLOAD PUSH2 0x21AC DUP5 DUP3 PUSH2 0x1EC5 JUMP JUMPDEST SWAP4 POP POP PUSH1 0x80 DUP3 ADD MLOAD PUSH2 0x21BE DUP5 DUP3 PUSH2 0x1EC5 JUMP JUMPDEST SWAP4 POP POP POP POP POP JUMP JUMPDEST PUSH2 0x21CF DUP2 PUSH2 0x27C8 JUMP JUMPDEST DUP3 MSTORE POP POP JUMP JUMPDEST PUSH2 0x21DE DUP2 PUSH2 0x2879 JUMP JUMPDEST DUP3 MSTORE POP POP JUMP JUMPDEST PUSH2 0x21ED DUP2 PUSH2 0x27F6 JUMP JUMPDEST DUP3 MSTORE POP POP JUMP JUMPDEST PUSH2 0x21FC DUP2 PUSH2 0x27F6 JUMP JUMPDEST DUP3 MSTORE POP POP JUMP JUMPDEST PUSH2 0x220B DUP2 PUSH2 0x27F6 JUMP JUMPDEST DUP3 MSTORE POP POP JUMP JUMPDEST PUSH2 0x221A DUP2 PUSH2 0x2800 JUMP JUMPDEST DUP3 MSTORE POP POP JUMP JUMPDEST PUSH2 0x2229 DUP2 PUSH2 0x2810 JUMP JUMPDEST DUP3 MSTORE POP POP JUMP JUMPDEST PUSH2 0x2238 DUP2 PUSH2 0x2824 JUMP JUMPDEST DUP3 MSTORE POP POP JUMP JUMPDEST PUSH1 0x0 PUSH2 0x2249 DUP3 PUSH2 0x20A9 JUMP JUMPDEST SWAP2 POP DUP2 SWAP1 POP SWAP2 SWAP1 POP JUMP JUMPDEST PUSH1 0x0 PUSH2 0x225F DUP3 DUP5 PUSH2 0x2163 JUMP JUMPDEST PUSH1 0xA0 DUP3 ADD SWAP2 POP DUP2 SWAP1 POP SWAP3 SWAP2 POP POP JUMP JUMPDEST PUSH1 0x0 PUSH1 0x40 DUP3 ADD SWAP1 POP PUSH2 0x2283 PUSH1 0x0 DUP4 ADD DUP6 PUSH2 0x1EEC JUMP JUMPDEST PUSH2 0x2290 PUSH1 0x20 DUP4 ADD DUP5 PUSH2 0x21F3 JUMP JUMPDEST SWAP4 SWAP3 POP POP POP JUMP JUMPDEST PUSH1 0x0 PUSH1 0x40 DUP3 ADD SWAP1 POP PUSH2 0x22AC PUSH1 0x0 DUP4 ADD DUP6 PUSH2 0x1F0A JUMP JUMPDEST PUSH2 0x22B9 PUSH1 0x20 DUP4 ADD DUP5 PUSH2 0x1F0A JUMP JUMPDEST SWAP4 SWAP3 POP POP POP JUMP JUMPDEST PUSH1 0x0 PUSH1 0xA0 DUP3 ADD SWAP1 POP PUSH2 0x22D5 PUSH1 0x0 DUP4 ADD DUP9 PUSH2 0x1F0A JUMP JUMPDEST PUSH2 0x22E2 PUSH1 0x20 DUP4 ADD DUP8 PUSH2 0x1F0A JUMP JUMPDEST PUSH2 0x22EF PUSH1 0x40 DUP4 ADD DUP7 PUSH2 0x1F0A JUMP JUMPDEST PUSH2 0x22FC PUSH1 0x60 DUP4 ADD DUP6 PUSH2 0x21F3 JUMP JUMPDEST PUSH2 0x2309 PUSH1 0x80 DUP4 ADD DUP5 PUSH2 0x21F3 JUMP JUMPDEST SWAP7 SWAP6 POP POP POP POP POP POP JUMP JUMPDEST PUSH1 0x0 PUSH1 0x20 DUP3 ADD SWAP1 POP DUP2 DUP2 SUB PUSH1 0x0 DUP4 ADD MSTORE PUSH2 0x232D DUP2 DUP5 PUSH2 0x1F28 JUMP JUMPDEST SWAP1 POP SWAP3 SWAP2 POP POP JUMP JUMPDEST PUSH1 0x0 PUSH2 0x640 DUP3 ADD SWAP1 POP PUSH2 0x234B PUSH1 0x0 DUP4 ADD DUP5 PUSH2 0x1F86 JUMP JUMPDEST SWAP3 SWAP2 POP POP JUMP JUMPDEST PUSH1 0x0 PUSH1 0x60 DUP3 ADD SWAP1 POP PUSH2 0x2366 PUSH1 0x0 DUP4 ADD DUP5 PUSH2 0x1FDD JUMP JUMPDEST SWAP3 SWAP2 POP POP JUMP JUMPDEST PUSH1 0x0 PUSH1 0x40 DUP3 ADD SWAP1 POP PUSH2 0x2381 PUSH1 0x0 DUP4 ADD DUP6 PUSH2 0x2034 JUMP JUMPDEST DUP2 DUP2 SUB PUSH1 0x20 DUP4 ADD MSTORE PUSH2 0x2393 DUP2 DUP5 PUSH2 0x2052 JUMP JUMPDEST SWAP1 POP SWAP4 SWAP3 POP POP POP JUMP JUMPDEST PUSH1 0x0 PUSH1 0x20 DUP3 ADD SWAP1 POP PUSH2 0x23B1 PUSH1 0x0 DUP4 ADD DUP5 PUSH2 0x2043 JUMP JUMPDEST SWAP3 SWAP2 POP POP JUMP JUMPDEST PUSH1 0x0 PUSH1 0xA0 DUP3 ADD SWAP1 POP PUSH2 0x23CC PUSH1 0x0 DUP4 ADD DUP9 PUSH2 0x2043 JUMP JUMPDEST PUSH2 0x23D9 PUSH1 0x20 DUP4 ADD DUP8 PUSH2 0x2220 JUMP JUMPDEST PUSH2 0x23E6 PUSH1 0x40 DUP4 ADD DUP7 PUSH2 0x21C6 JUMP JUMPDEST PUSH2 0x23F3 PUSH1 0x60 DUP4 ADD DUP6 PUSH2 0x2211 JUMP JUMPDEST PUSH2 0x2400 PUSH1 0x80 DUP4 ADD DUP5 PUSH2 0x21D5 JUMP JUMPDEST SWAP7 SWAP6 POP POP POP POP POP POP JUMP JUMPDEST PUSH1 0x0 PUSH1 0x20 DUP3 ADD SWAP1 POP PUSH2 0x241F PUSH1 0x0 DUP4 ADD DUP5 PUSH2 0x208B JUMP JUMPDEST SWAP3 SWAP2 POP POP JUMP JUMPDEST PUSH1 0x0 PUSH1 0x20 DUP3 ADD SWAP1 POP PUSH2 0x243A PUSH1 0x0 DUP4 ADD DUP5 PUSH2 0x209A JUMP JUMPDEST SWAP3 SWAP2 POP POP JUMP JUMPDEST PUSH1 0x0 PUSH1 0x20 DUP3 ADD SWAP1 POP PUSH2 0x2455 PUSH1 0x0 DUP4 ADD DUP5 PUSH2 0x21C6 JUMP JUMPDEST SWAP3 SWAP2 POP POP JUMP JUMPDEST PUSH1 0x0 PUSH1 0x20 DUP3 ADD SWAP1 POP PUSH2 0x2470 PUSH1 0x0 DUP4 ADD DUP5 PUSH2 0x21F3 JUMP JUMPDEST SWAP3 SWAP2 POP POP JUMP JUMPDEST PUSH1 0x0 PUSH1 0x40 DUP3 ADD SWAP1 POP PUSH2 0x248B PUSH1 0x0 DUP4 ADD DUP6 PUSH2 0x21F3 JUMP JUMPDEST PUSH2 0x2498 PUSH1 0x20 DUP4 ADD DUP5 PUSH2 0x21F3 JUMP JUMPDEST SWAP4 SWAP3 POP POP POP JUMP JUMPDEST PUSH1 0x0 PUSH1 0x20 DUP3 ADD SWAP1 POP PUSH2 0x24B4 PUSH1 0x0 DUP4 ADD DUP5 PUSH2 0x2211 JUMP JUMPDEST SWAP3 SWAP2 POP POP JUMP JUMPDEST PUSH1 0x0 PUSH1 0x20 DUP3 ADD SWAP1 POP PUSH2 0x24CF PUSH1 0x0 DUP4 ADD DUP5 PUSH2 0x2220 JUMP JUMPDEST SWAP3 SWAP2 POP POP JUMP JUMPDEST PUSH1 0x0 PUSH1 0x20 DUP3 ADD SWAP1 POP PUSH2 0x24EA PUSH1 0x0 DUP4 ADD DUP5 PUSH2 0x222F JUMP JUMPDEST SWAP3 SWAP2 POP POP JUMP JUMPDEST PUSH1 0x0 PUSH2 0x24FA PUSH2 0x250B JUMP JUMPDEST SWAP1 POP PUSH2 0x2506 DUP3 DUP3 PUSH2 0x28CD JUMP JUMPDEST SWAP2 SWAP1 POP JUMP JUMPDEST PUSH1 0x0 PUSH1 0x40 MLOAD SWAP1 POP SWAP1 JUMP JUMPDEST PUSH1 0x0 PUSH8 0xFFFFFFFFFFFFFFFF DUP3 GT ISZERO PUSH2 0x2530 JUMPI PUSH2 0x252F PUSH2 0x2A5E JUMP JUMPDEST JUMPDEST PUSH1 0x20 DUP3 MUL SWAP1 POP PUSH1 0x20 DUP2 ADD SWAP1 POP SWAP2 SWAP1 POP JUMP JUMPDEST PUSH1 0x0 PUSH8 0xFFFFFFFFFFFFFFFF DUP3 GT ISZERO PUSH2 0x255C JUMPI PUSH2 0x255B PUSH2 0x2A5E JUMP JUMPDEST JUMPDEST PUSH2 0x2565 DUP3 PUSH2 0x2AAB JUMP JUMPDEST SWAP1 POP PUSH1 0x20 DUP2 ADD SWAP1 POP SWAP2 SWAP1 POP JUMP JUMPDEST PUSH1 0x0 DUP2 SWAP1 POP PUSH1 0x20 DUP3 ADD SWAP1 POP SWAP2 SWAP1 POP JUMP JUMPDEST PUSH1 0x0 DUP2 SWAP1 POP SWAP2 SWAP1 POP JUMP JUMPDEST PUSH1 0x0 DUP2 SWAP1 POP SWAP2 SWAP1 POP JUMP JUMPDEST PUSH1 0x0 DUP2 MLOAD SWAP1 POP SWAP2 SWAP1 POP JUMP JUMPDEST PUSH1 0x0 PUSH1 0xA SWAP1 POP SWAP2 SWAP1 POP JUMP JUMPDEST PUSH1 0x0 PUSH1 0x3 SWAP1 POP SWAP2 SWAP1 POP JUMP JUMPDEST PUSH1 0x0 DUP2 MLOAD SWAP1 POP SWAP2 SWAP1 POP JUMP JUMPDEST PUSH1 0x0 PUSH1 0x20 DUP3 ADD SWAP1 POP SWAP2 SWAP1 POP JUMP JUMPDEST PUSH1 0x0 PUSH1 0x20 DUP3 ADD SWAP1 POP SWAP2 SWAP1 POP JUMP JUMPDEST PUSH1 0x0 PUSH1 0x20 DUP3 ADD SWAP1 POP SWAP2 SWAP1 POP JUMP JUMPDEST PUSH1 0x0 DUP3 DUP3 MSTORE PUSH1 0x20 DUP3 ADD SWAP1 POP SWAP3 SWAP2 POP POP JUMP JUMPDEST PUSH1 0x0 DUP2 SWAP1 POP SWAP3 SWAP2 POP POP JUMP JUMPDEST PUSH1 0x0 DUP2 SWAP1 POP SWAP3 SWAP2 POP POP JUMP JUMPDEST PUSH1 0x0 DUP3 DUP3 MSTORE PUSH1 0x20 DUP3 ADD SWAP1 POP SWAP3 SWAP2 POP POP JUMP JUMPDEST PUSH1 0x0 DUP2 SWAP1 POP SWAP3 SWAP2 POP POP JUMP JUMPDEST PUSH1 0x0 PUSH2 0x2637 DUP3 PUSH2 0x27F6 JUMP JUMPDEST SWAP2 POP PUSH2 0x2642 DUP4 PUSH2 0x27F6 JUMP JUMPDEST SWAP3 POP DUP3 PUSH32 0xFFFFFFFFFFFFFFFFFFFFFFFFFFFFFFFFFFFFFFFFFFFFFFFFFFFFFFFFFFFFFFFF SUB DUP3 GT ISZERO PUSH2 0x2677 JUMPI PUSH2 0x2676 PUSH2 0x29A2 JUMP JUMPDEST JUMPDEST DUP3 DUP3 ADD SWAP1 POP SWAP3 SWAP2 POP POP JUMP JUMPDEST PUSH1 0x0 PUSH2 0x268D DUP3 PUSH2 0x2824 JUMP JUMPDEST SWAP2 POP PUSH2 0x2698 DUP4 PUSH2 0x2824 JUMP JUMPDEST SWAP3 POP DUP3 PUSH1 0xFF SUB DUP3 GT ISZERO PUSH2 0x26AE JUMPI PUSH2 0x26AD PUSH2 0x29A2 JUMP JUMPDEST JUMPDEST DUP3 DUP3 ADD SWAP1 POP SWAP3 SWAP2 POP POP JUMP JUMPDEST PUSH1 0x0 PUSH2 0x26C4 DUP3 PUSH2 0x27F6 JUMP JUMPDEST SWAP2 POP PUSH2 0x26CF DUP4 PUSH2 0x27F6 JUMP JUMPDEST SWAP3 POP DUP2 PUSH32 0xFFFFFFFFFFFFFFFFFFFFFFFFFFFFFFFFFFFFFFFFFFFFFFFFFFFFFFFFFFFFFFFF DIV DUP4 GT DUP3 ISZERO ISZERO AND ISZERO PUSH2 0x2708 JUMPI PUSH2 0x2707 PUSH2 0x29A2 JUMP JUMPDEST JUMPDEST DUP3 DUP3 MUL SWAP1 POP SWAP3 SWAP2 POP POP JUMP JUMPDEST PUSH1 0x0 PUSH2 0x271E DUP3 PUSH2 0x27F6 JUMP JUMPDEST SWAP2 POP PUSH2 0x2729 DUP4 PUSH2 0x27F6 JUMP JUMPDEST SWAP3 POP DUP3 DUP3 LT ISZERO PUSH2 0x273C JUMPI PUSH2 0x273B PUSH2 0x29A2 JUMP JUMPDEST JUMPDEST DUP3 DUP3 SUB SWAP1 POP SWAP3 SWAP2 POP POP JUMP JUMPDEST PUSH1 0x0 PUSH2 0x2752 DUP3 PUSH2 0x2824 JUMP JUMPDEST SWAP2 POP PUSH2 0x275D DUP4 PUSH2 0x2824 JUMP JUMPDEST SWAP3 POP DUP3 DUP3 LT ISZERO PUSH2 0x2770 JUMPI PUSH2 0x276F PUSH2 0x29A2 JUMP JUMPDEST JUMPDEST DUP3 DUP3 SUB SWAP1 POP SWAP3 SWAP2 POP POP JUMP JUMPDEST PUSH1 0x0 PUSH2 0x2786 DUP3 PUSH2 0x27D6 JUMP JUMPDEST SWAP1 POP SWAP2 SWAP1 POP JUMP JUMPDEST PUSH1 0x0 PUSH2 0x2798 DUP3 PUSH2 0x27D6 JUMP JUMPDEST SWAP1 POP SWAP2 SWAP1 POP JUMP JUMPDEST PUSH1 0x0 DUP2 ISZERO ISZERO SWAP1 POP SWAP2 SWAP1 POP JUMP JUMPDEST PUSH1 0x0 DUP2 SWAP1 POP SWAP2 SWAP1 POP JUMP JUMPDEST PUSH1 0x0 DUP2 SWAP1 POP PUSH2 0x27C3 DUP3 PUSH2 0x2ABF JUMP JUMPDEST SWAP2 SWAP1 POP JUMP JUMPDEST PUSH1 0x0 PUSH2 0xFFFF DUP3 AND SWAP1 POP SWAP2 SWAP1 POP JUMP JUMPDEST PUSH1 0x0 PUSH20 0xFFFFFFFFFFFFFFFFFFFFFFFFFFFFFFFFFFFFFFFF DUP3 AND SWAP1 POP SWAP2 SWAP1 POP JUMP JUMPDEST PUSH1 0x0 DUP2 SWAP1 POP SWAP2 SWAP1 POP JUMP JUMPDEST PUSH1 0x0 PUSH4 0xFFFFFFFF DUP3 AND SWAP1 POP SWAP2 SWAP1 POP JUMP JUMPDEST PUSH1 0x0 PUSH8 0xFFFFFFFFFFFFFFFF DUP3 AND SWAP1 POP SWAP2 SWAP1 POP JUMP JUMPDEST PUSH1 0x0 PUSH1 0xFF DUP3 AND SWAP1 POP SWAP2 SWAP1 POP JUMP JUMPDEST PUSH1 0x0 PUSH2 0x283C DUP3 PUSH2 0x2855 JUMP JUMPDEST SWAP1 POP SWAP2 SWAP1 POP JUMP JUMPDEST PUSH1 0x0 PUSH2 0x284E DUP3 PUSH2 0x27B5 JUMP JUMPDEST SWAP1 POP SWAP2 SWAP1 POP JUMP JUMPDEST PUSH1 0x0 PUSH2 0x2860 DUP3 PUSH2 0x2867 JUMP JUMPDEST SWAP1 POP SWAP2 SWAP1 POP JUMP JUMPDEST PUSH1 0x0 PUSH2 0x2872 DUP3 PUSH2 0x27D6 JUMP JUMPDEST SWAP1 POP SWAP2 SWAP1 POP JUMP JUMPDEST PUSH1 0x0 PUSH2 0x2884 DUP3 PUSH2 0x27C8 JUMP JUMPDEST SWAP1 POP SWAP2 SWAP1 POP JUMP JUMPDEST DUP3 DUP2 DUP4 CALLDATACOPY PUSH1 0x0 DUP4 DUP4 ADD MSTORE POP POP POP JUMP JUMPDEST PUSH1 0x0 JUMPDEST DUP4 DUP2 LT ISZERO PUSH2 0x28B8 JUMPI DUP1 DUP3 ADD MLOAD DUP2 DUP5 ADD MSTORE PUSH1 0x20 DUP2 ADD SWAP1 POP PUSH2 0x289D JUMP JUMPDEST DUP4 DUP2 GT ISZERO PUSH2 0x28C7 JUMPI PUSH1 0x0 DUP5 DUP5 ADD MSTORE JUMPDEST POP POP POP POP JUMP JUMPDEST PUSH2 0x28D6 DUP3 PUSH2 0x2AAB JUMP JUMPDEST DUP2 ADD DUP2 DUP2 LT PUSH8 0xFFFFFFFFFFFFFFFF DUP3 GT OR ISZERO PUSH2 0x28F5 JUMPI PUSH2 0x28F4 PUSH2 0x2A5E JUMP JUMPDEST JUMPDEST DUP1 PUSH1 0x40 MSTORE POP POP POP JUMP JUMPDEST PUSH1 0x0 PUSH2 0x2909 DUP3 PUSH2 0x27F6 JUMP JUMPDEST SWAP2 POP PUSH32 0xFFFFFFFFFFFFFFFFFFFFFFFFFFFFFFFFFFFFFFFFFFFFFFFFFFFFFFFFFFFFFFFF DUP3 EQ ISZERO PUSH2 0x293C JUMPI PUSH2 0x293B PUSH2 0x29A2 JUMP JUMPDEST JUMPDEST PUSH1 0x1 DUP3 ADD SWAP1 POP SWAP2 SWAP1 POP JUMP JUMPDEST PUSH1 0x0 PUSH2 0x2952 DUP3 PUSH2 0x2824 JUMP JUMPDEST SWAP2 POP PUSH1 0xFF DUP3 EQ ISZERO PUSH2 0x2966 JUMPI PUSH2 0x2965 PUSH2 0x29A2 JUMP JUMPDEST JUMPDEST PUSH1 0x1 DUP3 ADD SWAP1 POP SWAP2 SWAP1 POP JUMP JUMPDEST PUSH1 0x0 PUSH2 0x297C DUP3 PUSH2 0x27F6 JUMP JUMPDEST SWAP2 POP PUSH2 0x2987 DUP4 PUSH2 0x27F6 JUMP JUMPDEST SWAP3 POP DUP3 PUSH2 0x2997 JUMPI PUSH2 0x2996 PUSH2 0x29D1 JUMP JUMPDEST JUMPDEST DUP3 DUP3 MOD SWAP1 POP SWAP3 SWAP2 POP POP JUMP JUMPDEST PUSH32 0x4E487B7100000000000000000000000000000000000000000000000000000000 PUSH1 0x0 MSTORE PUSH1 0x11 PUSH1 0x4 MSTORE PUSH1 0x24 PUSH1 0x0 REVERT JUMPDEST PUSH32 0x4E487B7100000000000000000000000000000000000000000000000000000000 PUSH1 0x0 MSTORE PUSH1 0x12 PUSH1 0x4 MSTORE PUSH1 0x24 PUSH1 0x0 REVERT JUMPDEST PUSH32 0x4E487B7100000000000000000000000000000000000000000000000000000000 PUSH1 0x0 MSTORE PUSH1 0x21 PUSH1 0x4 MSTORE PUSH1 0x24 PUSH1 0x0 REVERT JUMPDEST PUSH32 0x4E487B7100000000000000000000000000000000000000000000000000000000 PUSH1 0x0 MSTORE PUSH1 0x32 PUSH1 0x4 MSTORE PUSH1 0x24 PUSH1 0x0 REVERT JUMPDEST PUSH32 0x4E487B7100000000000000000000000000000000000000000000000000000000 PUSH1 0x0 MSTORE PUSH1 0x41 PUSH1 0x4 MSTORE PUSH1 0x24 PUSH1 0x0 REVERT JUMPDEST PUSH1 0x0 DUP1 REVERT JUMPDEST PUSH1 0x0 DUP1 REVERT JUMPDEST PUSH1 0x0 DUP1 REVERT JUMPDEST PUSH1 0x0 DUP1 REVERT JUMPDEST PUSH1 0x0 DUP1 REVERT JUMPDEST PUSH1 0x0 DUP1 REVERT JUMPDEST PUSH1 0x0 PUSH1 0x1F NOT PUSH1 0x1F DUP4 ADD AND SWAP1 POP SWAP2 SWAP1 POP JUMP JUMPDEST POP JUMP JUMPDEST PUSH1 0x2 DUP2 LT PUSH2 0x2AD0 JUMPI PUSH2 0x2ACF PUSH2 0x2A00 JUMP JUMPDEST JUMPDEST POP JUMP JUMPDEST PUSH2 0x2ADC DUP2 PUSH2 0x27F6 JUMP JUMPDEST DUP2 EQ PUSH2 0x2AE7 JUMPI PUSH1 0x0 DUP1 REVERT JUMPDEST POP JUMP JUMPDEST PUSH2 0x2AF3 DUP2 PUSH2 0x2824 JUMP JUMPDEST DUP2 EQ PUSH2 0x2AFE JUMPI PUSH1 0x0 DUP1 REVERT JUMPDEST POP JUMP INVALID LOG2 PUSH5 0x6970667358 0x22 SLT KECCAK256 SWAP10 0x1F PUSH19 0xBAB432E5C94E91745B63D9EAE33F1128702305 PUSH23 0x7251933643729CBB7264736F6C63430008070033000000 "
        },
        "gasEstimates": {
          "creation": {
            "codeDepositCost": "2212600",
            "executionCost": "infinite",
            "totalCost": "infinite"
          },
          "external": {
            "NUM_SAVED_WINNER_ROUNDS()": "402",
            "NUM_WINNERS()": "424",
            "NUM_WIN_TICKETS()": "381",
            "NUM_WORDS()": "402",
            "REQUEST_CONFIRMATIONS()": "403",
            "WINNER1_QUOTE()": "381",
            "WINNER2_QUOTE()": "447",
            "WINNER3_QUOTE()": "382",
            "checkUpkeep(bytes)": "infinite",
            "enterRaffle(uint256)": "infinite",
            "getBets()": "infinite",
            "getRecentWinners()": "infinite",
            "i_callbackGasLimit()": "2610",
            "i_entranceFee()": "infinite",
            "i_gasLane()": "2540",
            "i_interval()": "infinite",
            "i_subscriptionId()": "2583",
            "i_vrfCoordinator()": "infinite",
            "numPlayers()": "2513",
            "performUpkeep(bytes)": "infinite",
            "rawFulfillRandomWords(uint256,uint256[])": "infinite",
            "s_bets(uint256)": "infinite",
            "s_lastTimeStamp()": "2497",
            "s_prizePool()": "2474",
            "s_raffleState()": "2671",
            "s_raffle_round()": "2473",
            "s_recentWinners(uint256)": "infinite",
            "s_recentWinnersIdx()": "2562",
            "totTickets()": "2539",
            "uniqueTickets(uint256,uint8,uint256)": "infinite"
          },
          "internal": {
            "addBet(address payable,uint256)": "infinite",
            "findWinners(uint256[3] memory)": "infinite",
            "fulfillRandomWords(uint256,uint256[] memory)": "infinite",
            "removeBets()": "infinite",
            "storeGameResult(address[3] memory,uint256,uint256)": "infinite"
          }
        },
        "methodIdentifiers": {
          "NUM_SAVED_WINNER_ROUNDS()": "d4882fed",
          "NUM_WINNERS()": "cad0338c",
          "NUM_WIN_TICKETS()": "51a0fe4a",
          "NUM_WORDS()": "72cf6e34",
          "REQUEST_CONFIRMATIONS()": "67f082b0",
          "WINNER1_QUOTE()": "92c65528",
          "WINNER2_QUOTE()": "6b19d9ed",
          "WINNER3_QUOTE()": "0dc98972",
          "checkUpkeep(bytes)": "6e04ff0d",
          "enterRaffle(uint256)": "2e519f90",
          "getBets()": "a6afd5fd",
          "getRecentWinners()": "f077b974",
          "i_callbackGasLimit()": "d757d027",
          "i_entranceFee()": "7ea3e6c1",
          "i_gasLane()": "8e879c8a",
          "i_interval()": "6919207d",
          "i_subscriptionId()": "470cdf97",
          "i_vrfCoordinator()": "aebc4550",
          "numPlayers()": "97b2f556",
          "performUpkeep(bytes)": "4585e33b",
          "rawFulfillRandomWords(uint256,uint256[])": "1fe543e3",
          "s_bets(uint256)": "e5edd008",
          "s_lastTimeStamp()": "34854043",
          "s_prizePool()": "d47e690a",
          "s_raffleState()": "cc45483f",
          "s_raffle_round()": "e26befe6",
          "s_recentWinners(uint256)": "adbd1dd7",
          "s_recentWinnersIdx()": "247bfabd",
          "totTickets()": "f125a55d",
          "uniqueTickets(uint256,uint8,uint256)": "ddcb646d"
        }
      },
      "storageLayout": {
        "storage": [
          {
            "astId": 220,
            "contract": "contracts/Raffle.sol:Raffle",
            "label": "s_bets",
            "offset": 0,
            "slot": "0",
            "type": "t_array(t_struct(playerTicket)216_storage)dyn_storage"
          },
          {
            "astId": 223,
            "contract": "contracts/Raffle.sol:Raffle",
            "label": "s_raffleState",
            "offset": 0,
            "slot": "1",
            "type": "t_enum(RaffleState)187"
          },
          {
            "astId": 231,
            "contract": "contracts/Raffle.sol:Raffle",
            "label": "s_players",
            "offset": 0,
            "slot": "2",
            "type": "t_mapping(t_address,t_uint256)"
          },
          {
            "astId": 233,
            "contract": "contracts/Raffle.sol:Raffle",
            "label": "s_lastTimeStamp",
            "offset": 0,
            "slot": "3",
            "type": "t_uint256"
          },
          {
            "astId": 238,
            "contract": "contracts/Raffle.sol:Raffle",
            "label": "i_gasLane",
            "offset": 0,
            "slot": "4",
            "type": "t_bytes32"
          },
          {
            "astId": 240,
            "contract": "contracts/Raffle.sol:Raffle",
            "label": "i_subscriptionId",
            "offset": 0,
            "slot": "5",
            "type": "t_uint64"
          },
          {
            "astId": 242,
            "contract": "contracts/Raffle.sol:Raffle",
            "label": "i_callbackGasLimit",
            "offset": 8,
            "slot": "5",
            "type": "t_uint32"
          },
          {
            "astId": 244,
            "contract": "contracts/Raffle.sol:Raffle",
            "label": "s_prizePool",
            "offset": 0,
            "slot": "6",
            "type": "t_uint256"
          },
          {
            "astId": 260,
            "contract": "contracts/Raffle.sol:Raffle",
            "label": "s_recentWinners",
            "offset": 0,
            "slot": "7",
            "type": "t_array(t_struct(recentWinner)255_storage)10_storage"
          },
          {
            "astId": 262,
            "contract": "contracts/Raffle.sol:Raffle",
            "label": "s_recentWinnersIdx",
            "offset": 0,
            "slot": "57",
            "type": "t_uint8"
          },
          {
            "astId": 265,
            "contract": "contracts/Raffle.sol:Raffle",
            "label": "s_raffle_round",
            "offset": 0,
            "slot": "58",
            "type": "t_uint256"
          },
          {
            "astId": 267,
            "contract": "contracts/Raffle.sol:Raffle",
            "label": "totTickets",
            "offset": 0,
            "slot": "59",
            "type": "t_uint256"
          }
        ],
        "types": {
          "t_address": {
            "encoding": "inplace",
            "label": "address",
            "numberOfBytes": "20"
          },
          "t_address_payable": {
            "encoding": "inplace",
            "label": "address payable",
            "numberOfBytes": "20"
          },
          "t_array(t_struct(playerTicket)216_storage)dyn_storage": {
            "base": "t_struct(playerTicket)216_storage",
            "encoding": "dynamic_array",
            "label": "struct Raffle.playerTicket[]",
            "numberOfBytes": "32"
          },
          "t_array(t_struct(recentWinner)255_storage)10_storage": {
            "base": "t_struct(recentWinner)255_storage",
            "encoding": "inplace",
            "label": "struct Raffle.recentWinner[10]",
            "numberOfBytes": "1600"
          },
          "t_bytes32": {
            "encoding": "inplace",
            "label": "bytes32",
            "numberOfBytes": "32"
          },
          "t_enum(RaffleState)187": {
            "encoding": "inplace",
            "label": "enum Raffle.RaffleState",
            "numberOfBytes": "1"
          },
          "t_mapping(t_address,t_uint256)": {
            "encoding": "mapping",
            "key": "t_address",
            "label": "mapping(address => uint256)",
            "numberOfBytes": "32",
            "value": "t_uint256"
          },
          "t_struct(playerTicket)216_storage": {
            "encoding": "inplace",
            "label": "struct Raffle.playerTicket",
            "members": [
              {
                "astId": 213,
                "contract": "contracts/Raffle.sol:Raffle",
                "label": "player",
                "offset": 0,
                "slot": "0",
                "type": "t_address_payable"
              },
              {
                "astId": 215,
                "contract": "contracts/Raffle.sol:Raffle",
                "label": "tickets",
                "offset": 0,
                "slot": "1",
                "type": "t_uint256"
              }
            ],
            "numberOfBytes": "64"
          },
          "t_struct(recentWinner)255_storage": {
            "encoding": "inplace",
            "label": "struct Raffle.recentWinner",
            "members": [
              {
                "astId": 246,
                "contract": "contracts/Raffle.sol:Raffle",
                "label": "player1",
                "offset": 0,
                "slot": "0",
                "type": "t_address"
              },
              {
                "astId": 248,
                "contract": "contracts/Raffle.sol:Raffle",
                "label": "player2",
                "offset": 0,
                "slot": "1",
                "type": "t_address"
              },
              {
                "astId": 250,
                "contract": "contracts/Raffle.sol:Raffle",
                "label": "player3",
                "offset": 0,
                "slot": "2",
                "type": "t_address"
              },
              {
                "astId": 252,
                "contract": "contracts/Raffle.sol:Raffle",
                "label": "prizePool",
                "offset": 0,
                "slot": "3",
                "type": "t_uint256"
              },
              {
                "astId": 254,
                "contract": "contracts/Raffle.sol:Raffle",
                "label": "raffleTime",
                "offset": 0,
                "slot": "4",
                "type": "t_uint256"
              }
            ],
            "numberOfBytes": "160"
          },
          "t_uint256": {
            "encoding": "inplace",
            "label": "uint256",
            "numberOfBytes": "32"
          },
          "t_uint32": {
            "encoding": "inplace",
            "label": "uint32",
            "numberOfBytes": "4"
          },
          "t_uint64": {
            "encoding": "inplace",
            "label": "uint64",
            "numberOfBytes": "8"
          },
          "t_uint8": {
            "encoding": "inplace",
            "label": "uint8",
            "numberOfBytes": "1"
          }
        }
      },
      "userdoc": {
        "kind": "user",
        "methods": {},
        "version": 1
      }
    }
  }
}