{
  "address": "0xfA77a882be1F96C2961E29a92824e98213E846b0",
  "abi": [
    {
      "inputs": [
        {
          "internalType": "uint256",
          "name": "entranceFee",
          "type": "uint256"
        },
        {
          "internalType": "uint256",
          "name": "interval",
          "type": "uint256"
        },
        {
          "internalType": "address",
          "name": "vrfCoordinatorV2",
          "type": "address"
        },
        {
          "internalType": "bytes32",
          "name": "gasLane",
          "type": "bytes32"
        },
        {
          "internalType": "uint64",
          "name": "subscriptionId",
          "type": "uint64"
        },
        {
          "internalType": "uint32",
          "name": "callbackGasLimit",
          "type": "uint32"
        }
      ],
      "stateMutability": "nonpayable",
      "type": "constructor"
    },
    {
      "inputs": [
        {
          "internalType": "address",
          "name": "have",
          "type": "address"
        },
        {
          "internalType": "address",
          "name": "want",
          "type": "address"
        }
      ],
      "name": "OnlyCoordinatorCanFulfill",
      "type": "error"
    },
    {
      "inputs": [],
      "name": "Raffle_TransferFailed",
      "type": "error"
    },
    {
      "inputs": [],
      "name": "Raffle_UpkeepNotNeeded",
      "type": "error"
    },
    {
      "inputs": [],
      "name": "Raffle__RaffleNotOpen",
      "type": "error"
    },
    {
      "inputs": [],
      "name": "Raffle__SendMoreToEnterRaffle",
      "type": "error"
    },
    {
      "anonymous": false,
      "inputs": [
        {
          "indexed": true,
          "internalType": "address",
          "name": "player",
          "type": "address"
        }
      ],
      "name": "RaffleEnter",
      "type": "event"
    },
    {
      "anonymous": false,
      "inputs": [
        {
          "indexed": true,
          "internalType": "uint256",
          "name": "requestId",
          "type": "uint256"
        }
      ],
      "name": "RequestedRaffleWinner",
      "type": "event"
    },
    {
      "anonymous": false,
      "inputs": [
        {
          "indexed": true,
          "internalType": "address",
          "name": "recentWinner",
          "type": "address"
        }
      ],
      "name": "WinnerPicked",
      "type": "event"
    },
    {
      "inputs": [],
      "name": "NUM_WORDS",
      "outputs": [
        {
          "internalType": "uint16",
          "name": "",
          "type": "uint16"
        }
      ],
      "stateMutability": "view",
      "type": "function"
    },
    {
      "inputs": [],
      "name": "REQUEST_CONFIRMATIONS",
      "outputs": [
        {
          "internalType": "uint16",
          "name": "",
          "type": "uint16"
        }
      ],
      "stateMutability": "view",
      "type": "function"
    },
    {
      "inputs": [
        {
          "internalType": "bytes",
          "name": "",
          "type": "bytes"
        }
      ],
      "name": "checkUpkeep",
      "outputs": [
        {
          "internalType": "bool",
          "name": "upkeepNeeded",
          "type": "bool"
        },
        {
          "internalType": "bytes",
          "name": "",
          "type": "bytes"
        }
      ],
      "stateMutability": "view",
      "type": "function"
    },
    {
      "inputs": [],
      "name": "enterRaffle",
      "outputs": [],
      "stateMutability": "payable",
      "type": "function"
    },
    {
      "inputs": [],
      "name": "i_callbackGasLimit",
      "outputs": [
        {
          "internalType": "uint32",
          "name": "",
          "type": "uint32"
        }
      ],
      "stateMutability": "view",
      "type": "function"
    },
    {
      "inputs": [],
      "name": "i_entranceFee",
      "outputs": [
        {
          "internalType": "uint256",
          "name": "",
          "type": "uint256"
        }
      ],
      "stateMutability": "view",
      "type": "function"
    },
    {
      "inputs": [],
      "name": "i_gasLane",
      "outputs": [
        {
          "internalType": "bytes32",
          "name": "",
          "type": "bytes32"
        }
      ],
      "stateMutability": "view",
      "type": "function"
    },
    {
      "inputs": [],
      "name": "i_interval",
      "outputs": [
        {
          "internalType": "uint256",
          "name": "",
          "type": "uint256"
        }
      ],
      "stateMutability": "view",
      "type": "function"
    },
    {
      "inputs": [],
      "name": "i_subscriptionId",
      "outputs": [
        {
          "internalType": "uint64",
          "name": "",
          "type": "uint64"
        }
      ],
      "stateMutability": "view",
      "type": "function"
    },
    {
      "inputs": [],
      "name": "i_vrfCoordinator",
      "outputs": [
        {
          "internalType": "contract VRFCoordinatorV2Interface",
          "name": "",
          "type": "address"
        }
      ],
      "stateMutability": "view",
      "type": "function"
    },
    {
      "inputs": [
        {
          "internalType": "bytes",
          "name": "",
          "type": "bytes"
        }
      ],
      "name": "performUpkeep",
      "outputs": [],
      "stateMutability": "nonpayable",
      "type": "function"
    },
    {
      "inputs": [
        {
          "internalType": "uint256",
          "name": "requestId",
          "type": "uint256"
        },
        {
          "internalType": "uint256[]",
          "name": "randomWords",
          "type": "uint256[]"
        }
      ],
      "name": "rawFulfillRandomWords",
      "outputs": [],
      "stateMutability": "nonpayable",
      "type": "function"
    },
    {
      "inputs": [],
      "name": "s_lastTimeStamp",
      "outputs": [
        {
          "internalType": "uint256",
          "name": "",
          "type": "uint256"
        }
      ],
      "stateMutability": "view",
      "type": "function"
    },
    {
      "inputs": [
        {
          "internalType": "uint256",
          "name": "",
          "type": "uint256"
        }
      ],
      "name": "s_players",
      "outputs": [
        {
          "internalType": "address payable",
          "name": "",
          "type": "address"
        }
      ],
      "stateMutability": "view",
      "type": "function"
    },
    {
      "inputs": [],
      "name": "s_raffleState",
      "outputs": [
        {
          "internalType": "enum Raffle.RaffleState",
          "name": "",
          "type": "uint8"
        }
      ],
      "stateMutability": "view",
      "type": "function"
    },
    {
      "inputs": [],
      "name": "s_recentWinner",
      "outputs": [
        {
          "internalType": "address",
          "name": "",
          "type": "address"
        }
      ],
      "stateMutability": "view",
      "type": "function"
    }
  ],
  "transactionHash": "0xd0c2bb7cc10fab4262ad5fe0d5d3ef0c24ea852db72b16597e5bd89db024187e",
  "args": [
    "10000000000000000",
    "300",
    "0x01BE23585060835E02B77ef475b0Cc51aA1e0709",
    "0xd89b2bf150e3b9e13446986e571fb9cab24b13cea0a43ea20a6049a85cc807cc",
    "3632",
    "500000"
  ],
  "numDeployments": 1,
  "solcInputHash": "4c9da2ec707f3fb1831ee6bad4562eec",
  "bytecode": "0x6101006040523480156200001257600080fd5b50604051620018f3380380620018f383398181016040528101906200003891906200018f565b838073ffffffffffffffffffffffffffffffffffffffff1660808173ffffffffffffffffffffffffffffffffffffffff1660601b81525050508560a081815250508460c08181525050426002819055508373ffffffffffffffffffffffffffffffffffffffff1660e08173ffffffffffffffffffffffffffffffffffffffff1660601b815250508260038190555081600460006101000a81548167ffffffffffffffff021916908367ffffffffffffffff16021790555080600460086101000a81548163ffffffff021916908363ffffffff1602179055505050505050506200031e565b6000815190506200012d816200029c565b92915050565b6000815190506200014481620002b6565b92915050565b6000815190506200015b81620002d0565b92915050565b6000815190506200017281620002ea565b92915050565b600081519050620001898162000304565b92915050565b60008060008060008060c08789031215620001af57620001ae62000297565b5b6000620001bf89828a016200014a565b9650506020620001d289828a016200014a565b9550506040620001e589828a016200011c565b9450506060620001f889828a0162000133565b93505060806200020b89828a0162000178565b92505060a06200021e89828a0162000161565b9150509295509295509295565b6000620002388262000249565b9050919050565b6000819050919050565b600073ffffffffffffffffffffffffffffffffffffffff82169050919050565b6000819050919050565b600063ffffffff82169050919050565b600067ffffffffffffffff82169050919050565b600080fd5b620002a7816200022b565b8114620002b357600080fd5b50565b620002c1816200023f565b8114620002cd57600080fd5b50565b620002db8162000269565b8114620002e757600080fd5b50565b620002f58162000273565b81146200030157600080fd5b50565b6200030f8162000283565b81146200031b57600080fd5b50565b60805160601c60a05160c05160e05160601c6115796200037a6000396000818161065d015261092f01526000818161079001526107f401526000818161046a01526108a00152600081816103aa01526103fe01526115796000f3fe6080604052600436106100f35760003560e01c806372cf6e341161008a578063ae771f6b11610059578063ae771f6b146102ea578063aebc455014610327578063cc45483f14610352578063d757d0271461037d576100f3565b806372cf6e341461023e5780637ea3e6c1146102695780638638b0c6146102945780638e879c8a146102bf576100f3565b8063470cdf97116100c6578063470cdf971461017f57806367f082b0146101aa5780636919207d146101d55780636e04ff0d14610200576100f3565b80631fe543e3146100f85780632cfcc53914610121578063348540431461012b5780634585e33b14610156575b600080fd5b34801561010457600080fd5b5061011f600480360381019061011a9190610ec6565b6103a8565b005b610129610468565b005b34801561013757600080fd5b506101406105d5565b60405161014d9190611186565b60405180910390f35b34801561016257600080fd5b5061017d60048036038101906101789190610dd6565b6105db565b005b34801561018b57600080fd5b5061019461076f565b6040516101a191906111bc565b60405180910390f35b3480156101b657600080fd5b506101bf610789565b6040516101cc919061116b565b60405180910390f35b3480156101e157600080fd5b506101ea61078e565b6040516101f79190611186565b60405180910390f35b34801561020c57600080fd5b5061022760048036038101906102229190610e23565b6107b2565b604051610235929190611097565b60405180910390f35b34801561024a57600080fd5b50610253610899565b604051610260919061116b565b60405180910390f35b34801561027557600080fd5b5061027e61089e565b60405161028b9190611186565b60405180910390f35b3480156102a057600080fd5b506102a96108c2565b6040516102b69190611038565b60405180910390f35b3480156102cb57600080fd5b506102d46108e8565b6040516102e191906110c7565b60405180910390f35b3480156102f657600080fd5b50610311600480360381019061030c9190610e6c565b6108ee565b60405161031e9190611053565b60405180910390f35b34801561033357600080fd5b5061033c61092d565b6040516103499190611135565b60405180910390f35b34801561035e57600080fd5b50610367610951565b6040516103749190611150565b60405180910390f35b34801561038957600080fd5b50610392610962565b60405161039f91906111a1565b60405180910390f35b7f000000000000000000000000000000000000000000000000000000000000000073ffffffffffffffffffffffffffffffffffffffff163373ffffffffffffffffffffffffffffffffffffffff161461045a57337f00000000000000000000000000000000000000000000000000000000000000006040517f1cf993f400000000000000000000000000000000000000000000000000000000815260040161045192919061106e565b60405180910390fd5b6104648282610978565b5050565b7f00000000000000000000000000000000000000000000000000000000000000003410156104c2576040517f3038c00a00000000000000000000000000000000000000000000000000000000815260040160405180910390fd5b600060018111156104d6576104d5611459565b5b60008054906101000a900460ff1660018111156104f6576104f5611459565b5b1461052d576040517fd24a271400000000000000000000000000000000000000000000000000000000815260040160405180910390fd5b6001339080600181540180825580915050600190039060005260206000200160009091909190916101000a81548173ffffffffffffffffffffffffffffffffffffffff021916908373ffffffffffffffffffffffffffffffffffffffff1602179055503373ffffffffffffffffffffffffffffffffffffffff167f0805e1d667bddb8a95f0f09880cf94f403fb596ce79928d9f29b74203ba284d460405160405180910390a2565b60025481565b60006105f5604051806020016040528060008152506107b2565b5090508061062f576040517f4f6ddb1900000000000000000000000000000000000000000000000000000000815260040160405180910390fd5b60016000806101000a81548160ff0219169083600181111561065457610653611459565b5b021790555060007f000000000000000000000000000000000000000000000000000000000000000073ffffffffffffffffffffffffffffffffffffffff16635d3b1d30600354600460009054906101000a900467ffffffffffffffff166003600460089054906101000a900463ffffffff1660016040518663ffffffff1660e01b81526004016106e89594939291906110e2565b602060405180830381600087803b15801561070257600080fd5b505af1158015610716573d6000803e3d6000fd5b505050506040513d601f19601f8201168201806040525081019061073a9190610e99565b9050807fcd6e45c8998311cab7e9d4385596cac867e20a0587194b954fa3a731c93ce78b60405160405180910390a250505050565b600460009054906101000a900467ffffffffffffffff1681565b600381565b7f000000000000000000000000000000000000000000000000000000000000000081565b6000606060008060009054906101000a900460ff1660018111156107d9576107d8611459565b5b600060018111156107ed576107ec611459565b5b14905060007f0000000000000000000000000000000000000000000000000000000000000000600254426108219190611280565b119050600080471190506000806001805490501190508280156108415750835b801561084a5750815b80156108535750805b9550856040518060400160405280600381526020017f30783000000000000000000000000000000000000000000000000000000000008152509550955050505050915091565b600181565b7f000000000000000000000000000000000000000000000000000000000000000081565b6004600c9054906101000a900473ffffffffffffffffffffffffffffffffffffffff1681565b60035481565b600181815481106108fe57600080fd5b906000526020600020016000915054906101000a900473ffffffffffffffffffffffffffffffffffffffff1681565b7f000000000000000000000000000000000000000000000000000000000000000081565b60008054906101000a900460ff1681565b600460089054906101000a900463ffffffff1681565b60006001805490508260008151811061099457610993611488565b5b60200260200101511690506000600182815481106109b5576109b4611488565b5b9060005260206000200160009054906101000a900473ffffffffffffffffffffffffffffffffffffffff169050806004600c6101000a81548173ffffffffffffffffffffffffffffffffffffffff021916908373ffffffffffffffffffffffffffffffffffffffff160217905550600067ffffffffffffffff811115610a3e57610a3d6114b7565b5b604051908082528060200260200182016040528015610a6c5781602001602082028036833780820191505090505b5060019080519060200190610a82929190610ba1565b5060008060006101000a81548160ff02191690836001811115610aa857610aa7611459565b5b02179055504260028190555060008173ffffffffffffffffffffffffffffffffffffffff1647604051610ada90611023565b60006040518083038185875af1925050503d8060008114610b17576040519150601f19603f3d011682016040523d82523d6000602084013e610b1c565b606091505b5050905080610b57576040517fba31c4f300000000000000000000000000000000000000000000000000000000815260040160405180910390fd5b8173ffffffffffffffffffffffffffffffffffffffff167f5b690ec4a06fe979403046eaeea5b3ce38524683c3001f662c8b5a829632f7df60405160405180910390a25050505050565b828054828255906000526020600020908101928215610c1a579160200282015b82811115610c195782518260006101000a81548173ffffffffffffffffffffffffffffffffffffffff021916908373ffffffffffffffffffffffffffffffffffffffff16021790555091602001919060010190610bc1565b5b509050610c279190610c2b565b5090565b5b80821115610c44576000816000905550600101610c2c565b5090565b6000610c5b610c56846111fc565b6111d7565b90508083825260208201905082856020860282011115610c7e57610c7d6114f0565b5b60005b85811015610cae5781610c948882610dac565b845260208401935060208301925050600181019050610c81565b5050509392505050565b6000610ccb610cc684611228565b6111d7565b905082815260208101848484011115610ce757610ce66114f5565b5b610cf28482856113b7565b509392505050565b600082601f830112610d0f57610d0e6114eb565b5b8135610d1f848260208601610c48565b91505092915050565b60008083601f840112610d3e57610d3d6114eb565b5b8235905067ffffffffffffffff811115610d5b57610d5a6114e6565b5b602083019150836001820283011115610d7757610d766114f0565b5b9250929050565b600082601f830112610d9357610d926114eb565b5b8135610da3848260208601610cb8565b91505092915050565b600081359050610dbb8161152c565b92915050565b600081519050610dd08161152c565b92915050565b60008060208385031215610ded57610dec6114ff565b5b600083013567ffffffffffffffff811115610e0b57610e0a6114fa565b5b610e1785828601610d28565b92509250509250929050565b600060208284031215610e3957610e386114ff565b5b600082013567ffffffffffffffff811115610e5757610e566114fa565b5b610e6384828501610d7e565b91505092915050565b600060208284031215610e8257610e816114ff565b5b6000610e9084828501610dac565b91505092915050565b600060208284031215610eaf57610eae6114ff565b5b6000610ebd84828501610dc1565b91505092915050565b60008060408385031215610edd57610edc6114ff565b5b6000610eeb85828601610dac565b925050602083013567ffffffffffffffff811115610f0c57610f0b6114fa565b5b610f1885828601610cfa565b9150509250929050565b610f2b816112c6565b82525050565b610f3a816112b4565b82525050565b610f49816112d8565b82525050565b610f58816112e4565b82525050565b6000610f6982611259565b610f738185611264565b9350610f838185602086016113c6565b610f8c81611504565b840191505092915050565b610fa08161135d565b82525050565b610faf8161136f565b82525050565b6000610fc2600083611275565b9150610fcd82611515565b600082019050919050565b610fe181611301565b82525050565b610ff0816113a5565b82525050565b610fff8161132f565b82525050565b61100e81611339565b82525050565b61101d81611349565b82525050565b600061102e82610fb5565b9150819050919050565b600060208201905061104d6000830184610f31565b92915050565b60006020820190506110686000830184610f22565b92915050565b60006040820190506110836000830185610f31565b6110906020830184610f31565b9392505050565b60006040820190506110ac6000830185610f40565b81810360208301526110be8184610f5e565b90509392505050565b60006020820190506110dc6000830184610f4f565b92915050565b600060a0820190506110f76000830188610f4f565b6111046020830187611014565b6111116040830186610fd8565b61111e6060830185611005565b61112b6080830184610fe7565b9695505050505050565b600060208201905061114a6000830184610f97565b92915050565b60006020820190506111656000830184610fa6565b92915050565b60006020820190506111806000830184610fd8565b92915050565b600060208201905061119b6000830184610ff6565b92915050565b60006020820190506111b66000830184611005565b92915050565b60006020820190506111d16000830184611014565b92915050565b60006111e16111f2565b90506111ed82826113f9565b919050565b6000604051905090565b600067ffffffffffffffff821115611217576112166114b7565b5b602082029050602081019050919050565b600067ffffffffffffffff821115611243576112426114b7565b5b61124c82611504565b9050602081019050919050565b600081519050919050565b600082825260208201905092915050565b600081905092915050565b600061128b8261132f565b91506112968361132f565b9250828210156112a9576112a861142a565b5b828203905092915050565b60006112bf8261130f565b9050919050565b60006112d18261130f565b9050919050565b60008115159050919050565b6000819050919050565b60008190506112fc82611518565b919050565b600061ffff82169050919050565b600073ffffffffffffffffffffffffffffffffffffffff82169050919050565b6000819050919050565b600063ffffffff82169050919050565b600067ffffffffffffffff82169050919050565b600061136882611381565b9050919050565b600061137a826112ee565b9050919050565b600061138c82611393565b9050919050565b600061139e8261130f565b9050919050565b60006113b082611301565b9050919050565b82818337600083830152505050565b60005b838110156113e45780820151818401526020810190506113c9565b838111156113f3576000848401525b50505050565b61140282611504565b810181811067ffffffffffffffff82111715611421576114206114b7565b5b80604052505050565b7f4e487b7100000000000000000000000000000000000000000000000000000000600052601160045260246000fd5b7f4e487b7100000000000000000000000000000000000000000000000000000000600052602160045260246000fd5b7f4e487b7100000000000000000000000000000000000000000000000000000000600052603260045260246000fd5b7f4e487b7100000000000000000000000000000000000000000000000000000000600052604160045260246000fd5b600080fd5b600080fd5b600080fd5b600080fd5b600080fd5b600080fd5b6000601f19601f8301169050919050565b50565b6002811061152957611528611459565b5b50565b6115358161132f565b811461154057600080fd5b5056fea2646970667358221220c394eefd444e99ee46ec85925e058ec4cff692187a691c37f254ec1897c07db464736f6c63430008070033",
  "devdoc": {
    "kind": "dev",
    "methods": {},
    "version": 1
  },
  "userdoc": {
    "kind": "user",
    "methods": {},
    "version": 1
  },
  "storageLayout": {
    "storage": [
      {
        "astId": 166,
        "contract": "contracts/Raffle.sol:Raffle",
        "label": "s_raffleState",
        "offset": 0,
        "slot": "0",
        "type": "t_enum(RaffleState)163"
      },
      {
        "astId": 173,
        "contract": "contracts/Raffle.sol:Raffle",
        "label": "s_players",
        "offset": 0,
        "slot": "1",
        "type": "t_array(t_address_payable)dyn_storage"
      },
      {
        "astId": 175,
        "contract": "contracts/Raffle.sol:Raffle",
        "label": "s_lastTimeStamp",
        "offset": 0,
        "slot": "2",
        "type": "t_uint256"
      },
      {
        "astId": 180,
        "contract": "contracts/Raffle.sol:Raffle",
        "label": "i_gasLane",
        "offset": 0,
        "slot": "3",
        "type": "t_bytes32"
      },
      {
        "astId": 182,
        "contract": "contracts/Raffle.sol:Raffle",
        "label": "i_subscriptionId",
        "offset": 0,
        "slot": "4",
        "type": "t_uint64"
      },
      {
        "astId": 184,
        "contract": "contracts/Raffle.sol:Raffle",
        "label": "i_callbackGasLimit",
        "offset": 8,
        "slot": "4",
        "type": "t_uint32"
      },
      {
        "astId": 186,
        "contract": "contracts/Raffle.sol:Raffle",
        "label": "s_recentWinner",
        "offset": 12,
        "slot": "4",
        "type": "t_address"
      }
    ],
    "types": {
      "t_address": {
        "encoding": "inplace",
        "label": "address",
        "numberOfBytes": "20"
      },
      "t_address_payable": {
        "encoding": "inplace",
        "label": "address payable",
        "numberOfBytes": "20"
      },
      "t_array(t_address_payable)dyn_storage": {
        "base": "t_address_payable",
        "encoding": "dynamic_array",
        "label": "address payable[]",
        "numberOfBytes": "32"
      },
      "t_bytes32": {
        "encoding": "inplace",
        "label": "bytes32",
        "numberOfBytes": "32"
      },
      "t_enum(RaffleState)163": {
        "encoding": "inplace",
        "label": "enum Raffle.RaffleState",
        "numberOfBytes": "1"
      },
      "t_uint256": {
        "encoding": "inplace",
        "label": "uint256",
        "numberOfBytes": "32"
      },
      "t_uint32": {
        "encoding": "inplace",
        "label": "uint32",
        "numberOfBytes": "4"
      },
      "t_uint64": {
        "encoding": "inplace",
        "label": "uint64",
        "numberOfBytes": "8"
      }
    }
  }
}